{
	"contracts/timecapsule.sol": {
		"TimeCapsule": {
			"abi": [
				{
					"anonymous": false,
					"inputs": [
						{
							"indexed": true,
							"internalType": "address",
							"name": "user",
							"type": "address"
						},
						{
							"indexed": false,
							"internalType": "uint256",
							"name": "unlockTime",
							"type": "uint256"
						}
					],
					"name": "CapsuleCreated",
					"type": "event"
				},
				{
					"anonymous": false,
					"inputs": [
						{
							"indexed": true,
							"internalType": "address",
							"name": "user",
							"type": "address"
						},
						{
							"indexed": false,
							"internalType": "string",
							"name": "message",
							"type": "string"
						}
					],
					"name": "CapsuleOpened",
					"type": "event"
				},
				{
					"inputs": [
						{
							"internalType": "address",
							"name": "",
							"type": "address"
						}
					],
					"name": "capsules",
					"outputs": [
						{
							"internalType": "bytes32",
							"name": "messageHash",
							"type": "bytes32"
						},
						{
							"internalType": "uint256",
							"name": "unlockTime",
							"type": "uint256"
						},
						{
							"internalType": "bool",
							"name": "isOpened",
							"type": "bool"
						}
					],
					"stateMutability": "view",
					"type": "function"
				},
				{
					"inputs": [
						{
							"internalType": "bytes32",
							"name": "messageHash",
							"type": "bytes32"
						},
						{
							"internalType": "uint256",
							"name": "unlockTime",
							"type": "uint256"
						}
					],
					"name": "createCapsule",
					"outputs": [],
					"stateMutability": "nonpayable",
					"type": "function"
				},
				{
					"inputs": [],
					"name": "getCapsuleStatus",
					"outputs": [
						{
							"internalType": "bytes32",
							"name": "",
							"type": "bytes32"
						},
						{
							"internalType": "uint256",
							"name": "",
							"type": "uint256"
						},
						{
							"internalType": "bool",
							"name": "",
							"type": "bool"
						}
					],
					"stateMutability": "view",
					"type": "function"
				},
				{
					"inputs": [],
					"name": "openCapsule",
					"outputs": [],
					"stateMutability": "nonpayable",
					"type": "function"
				},
				{
					"inputs": [
						{
							"internalType": "address",
							"name": "user",
							"type": "address"
						}
					],
					"name": "openCapsuleByAnyone",
					"outputs": [],
					"stateMutability": "nonpayable",
					"type": "function"
				}
			],
			"devdoc": {
				"kind": "dev",
				"methods": {},
				"version": 1
			},
			"evm": {
				"assembly": "    /* \"contracts/timecapsule.sol\":60:3545  contract TimeCapsule {... */\n  mstore(0x40, 0x80)\n    /* \"contracts/timecapsule.sol\":736:741  false */\n  0x00\n    /* \"contracts/timecapsule.sol\":714:741  bool private locked = false */\n  0x01\n  exp(0x0100, 0x00)\n  dup2\n  sload\n  dup2\n  0xff\n  mul\n  not\n  and\n  swap1\n  dup4\n  iszero\n  iszero\n  mul\n  or\n  swap1\n  sstore\n  pop\n    /* \"contracts/timecapsule.sol\":60:3545  contract TimeCapsule {... */\n  callvalue\n  dup1\n  iszero\n  tag_1\n  jumpi\n  0x00\n  dup1\n  revert\ntag_1:\n  pop\n  dataSize(sub_0)\n  dup1\n  dataOffset(sub_0)\n  0x00\n  codecopy\n  0x00\n  return\nstop\n\nsub_0: assembly {\n        /* \"contracts/timecapsule.sol\":60:3545  contract TimeCapsule {... */\n      mstore(0x40, 0x80)\n      callvalue\n      dup1\n      iszero\n      tag_1\n      jumpi\n      0x00\n      dup1\n      revert\n    tag_1:\n      pop\n      jumpi(tag_2, lt(calldatasize, 0x04))\n      shr(0xe0, calldataload(0x00))\n      dup1\n      0x1971186b\n      eq\n      tag_3\n      jumpi\n      dup1\n      0x5f1eb6fc\n      eq\n      tag_4\n      jumpi\n      dup1\n      0x712ef5b1\n      eq\n      tag_5\n      jumpi\n      dup1\n      0x81f8b8d9\n      eq\n      tag_6\n      jumpi\n      dup1\n      0xfcd506ea\n      eq\n      tag_7\n      jumpi\n    tag_2:\n      0x00\n      dup1\n      revert\n        /* \"contracts/timecapsule.sol\":2740:3238  function openCapsuleByAnyone(address user) public noReentrancy {... */\n    tag_3:\n      tag_8\n      0x04\n      dup1\n      calldatasize\n      sub\n      dup2\n      add\n      swap1\n      tag_9\n      swap2\n      swap1\n      tag_10\n      jump\t// in\n    tag_9:\n      tag_11\n      jump\t// in\n    tag_8:\n      stop\n        /* \"contracts/timecapsule.sol\":1446:2152  function createCapsule(bytes32 messageHash, uint256 unlockTime) public {... */\n    tag_4:\n      tag_12\n      0x04\n      dup1\n      calldatasize\n      sub\n      dup2\n      add\n      swap1\n      tag_13\n      swap2\n      swap1\n      tag_14\n      jump\t// in\n    tag_13:\n      tag_15\n      jump\t// in\n    tag_12:\n      stop\n        /* \"contracts/timecapsule.sol\":2206:2679  function openCapsule() public capsuleExists canOpen noReentrancy {... */\n    tag_5:\n      tag_16\n      tag_17\n      jump\t// in\n    tag_16:\n      stop\n        /* \"contracts/timecapsule.sol\":379:422  mapping(address => Capsule) public capsules */\n    tag_6:\n      tag_18\n      0x04\n      dup1\n      calldatasize\n      sub\n      dup2\n      add\n      swap1\n      tag_19\n      swap2\n      swap1\n      tag_10\n      jump\t// in\n    tag_19:\n      tag_20\n      jump\t// in\n    tag_18:\n      mload(0x40)\n      tag_21\n      swap4\n      swap3\n      swap2\n      swap1\n      tag_22\n      jump\t// in\n    tag_21:\n      mload(0x40)\n      dup1\n      swap2\n      sub\n      swap1\n      return\n        /* \"contracts/timecapsule.sol\":3328:3542  function getCapsuleStatus() public view returns (bytes32, uint256, bool) {... */\n    tag_7:\n      tag_23\n      tag_24\n      jump\t// in\n    tag_23:\n      mload(0x40)\n      tag_25\n      swap4\n      swap3\n      swap2\n      swap1\n      tag_22\n      jump\t// in\n    tag_25:\n      mload(0x40)\n      dup1\n      swap2\n      sub\n      swap1\n      return\n        /* \"contracts/timecapsule.sol\":2740:3238  function openCapsuleByAnyone(address user) public noReentrancy {... */\n    tag_11:\n        /* \"contracts/timecapsule.sol\":794:800  locked */\n      0x01\n      0x00\n      swap1\n      sload\n      swap1\n      0x0100\n      exp\n      swap1\n      div\n      0xff\n      and\n        /* \"contracts/timecapsule.sol\":793:800  !locked */\n      iszero\n        /* \"contracts/timecapsule.sol\":785:827  require(!locked, \"No reentrancy allowed.\") */\n      tag_27\n      jumpi\n      mload(0x40)\n      0x08c379a000000000000000000000000000000000000000000000000000000000\n      dup2\n      mstore\n      0x04\n      add\n      tag_28\n      swap1\n      tag_29\n      jump\t// in\n    tag_28:\n      mload(0x40)\n      dup1\n      swap2\n      sub\n      swap1\n      revert\n    tag_27:\n        /* \"contracts/timecapsule.sol\":847:851  true */\n      0x01\n        /* \"contracts/timecapsule.sol\":838:844  locked */\n      dup1\n      0x00\n        /* \"contracts/timecapsule.sol\":838:851  locked = true */\n      0x0100\n      exp\n      dup2\n      sload\n      dup2\n      0xff\n      mul\n      not\n      and\n      swap1\n      dup4\n      iszero\n      iszero\n      mul\n      or\n      swap1\n      sstore\n      pop\n        /* \"contracts/timecapsule.sol\":2860:2861  0 */\n      0x00\n        /* \"contracts/timecapsule.sol\":2852:2862  bytes32(0) */\n      dup1\n      shl\n        /* \"contracts/timecapsule.sol\":2822:2830  capsules */\n      0x00\n        /* \"contracts/timecapsule.sol\":2822:2836  capsules[user] */\n      dup1\n        /* \"contracts/timecapsule.sol\":2831:2835  user */\n      dup4\n        /* \"contracts/timecapsule.sol\":2822:2836  capsules[user] */\n      0xffffffffffffffffffffffffffffffffffffffff\n      and\n      0xffffffffffffffffffffffffffffffffffffffff\n      and\n      dup2\n      mstore\n      0x20\n      add\n      swap1\n      dup2\n      mstore\n      0x20\n      add\n      0x00\n      keccak256\n        /* \"contracts/timecapsule.sol\":2822:2848  capsules[user].messageHash */\n      0x00\n      add\n      sload\n        /* \"contracts/timecapsule.sol\":2822:2862  capsules[user].messageHash != bytes32(0) */\n      sub\n        /* \"contracts/timecapsule.sol\":2814:2889  require(capsules[user].messageHash != bytes32(0), \"No time capsule found.\") */\n      tag_31\n      jumpi\n      mload(0x40)\n      0x08c379a000000000000000000000000000000000000000000000000000000000\n      dup2\n      mstore\n      0x04\n      add\n      tag_32\n      swap1\n      tag_33\n      jump\t// in\n    tag_32:\n      mload(0x40)\n      dup1\n      swap2\n      sub\n      swap1\n      revert\n    tag_31:\n        /* \"contracts/timecapsule.sol\":2909:2917  capsules */\n      0x00\n        /* \"contracts/timecapsule.sol\":2909:2923  capsules[user] */\n      dup1\n        /* \"contracts/timecapsule.sol\":2918:2922  user */\n      dup3\n        /* \"contracts/timecapsule.sol\":2909:2923  capsules[user] */\n      0xffffffffffffffffffffffffffffffffffffffff\n      and\n      0xffffffffffffffffffffffffffffffffffffffff\n      and\n      dup2\n      mstore\n      0x20\n      add\n      swap1\n      dup2\n      mstore\n      0x20\n      add\n      0x00\n      keccak256\n        /* \"contracts/timecapsule.sol\":2909:2932  capsules[user].isOpened */\n      0x02\n      add\n      0x00\n      swap1\n      sload\n      swap1\n      0x0100\n      exp\n      swap1\n      div\n      0xff\n      and\n        /* \"contracts/timecapsule.sol\":2908:2932  !capsules[user].isOpened */\n      iszero\n        /* \"contracts/timecapsule.sol\":2900:2960  require(!capsules[user].isOpened, \"Capsule already opened.\") */\n      tag_34\n      jumpi\n      mload(0x40)\n      0x08c379a000000000000000000000000000000000000000000000000000000000\n      dup2\n      mstore\n      0x04\n      add\n      tag_35\n      swap1\n      tag_36\n      jump\t// in\n    tag_35:\n      mload(0x40)\n      dup1\n      swap2\n      sub\n      swap1\n      revert\n    tag_34:\n        /* \"contracts/timecapsule.sol\":2998:3006  capsules */\n      0x00\n        /* \"contracts/timecapsule.sol\":2998:3012  capsules[user] */\n      dup1\n        /* \"contracts/timecapsule.sol\":3007:3011  user */\n      dup3\n        /* \"contracts/timecapsule.sol\":2998:3012  capsules[user] */\n      0xffffffffffffffffffffffffffffffffffffffff\n      and\n      0xffffffffffffffffffffffffffffffffffffffff\n      and\n      dup2\n      mstore\n      0x20\n      add\n      swap1\n      dup2\n      mstore\n      0x20\n      add\n      0x00\n      keccak256\n        /* \"contracts/timecapsule.sol\":2998:3023  capsules[user].unlockTime */\n      0x01\n      add\n      sload\n        /* \"contracts/timecapsule.sol\":2979:2994  block.timestamp */\n      timestamp\n        /* \"contracts/timecapsule.sol\":2979:3023  block.timestamp >= capsules[user].unlockTime */\n      lt\n      iszero\n        /* \"contracts/timecapsule.sol\":2971:3052  require(block.timestamp >= capsules[user].unlockTime, \"Capsule is still locked.\") */\n      tag_37\n      jumpi\n      mload(0x40)\n      0x08c379a000000000000000000000000000000000000000000000000000000000\n      dup2\n      mstore\n      0x04\n      add\n      tag_38\n      swap1\n      tag_39\n      jump\t// in\n    tag_38:\n      mload(0x40)\n      dup1\n      swap2\n      sub\n      swap1\n      revert\n    tag_37:\n        /* \"contracts/timecapsule.sol\":3099:3103  true */\n      0x01\n        /* \"contracts/timecapsule.sol\":3073:3081  capsules */\n      0x00\n        /* \"contracts/timecapsule.sol\":3073:3087  capsules[user] */\n      dup1\n        /* \"contracts/timecapsule.sol\":3082:3086  user */\n      dup4\n        /* \"contracts/timecapsule.sol\":3073:3087  capsules[user] */\n      0xffffffffffffffffffffffffffffffffffffffff\n      and\n      0xffffffffffffffffffffffffffffffffffffffff\n      and\n      dup2\n      mstore\n      0x20\n      add\n      swap1\n      dup2\n      mstore\n      0x20\n      add\n      0x00\n      keccak256\n        /* \"contracts/timecapsule.sol\":3073:3096  capsules[user].isOpened */\n      0x02\n      add\n      0x00\n        /* \"contracts/timecapsule.sol\":3073:3103  capsules[user].isOpened = true */\n      0x0100\n      exp\n      dup2\n      sload\n      dup2\n      0xff\n      mul\n      not\n      and\n      swap1\n      dup4\n      iszero\n      iszero\n      mul\n      or\n      swap1\n      sstore\n      pop\n        /* \"contracts/timecapsule.sol\":3182:3186  user */\n      dup1\n        /* \"contracts/timecapsule.sol\":3168:3230  CapsuleOpened(user, \"Decrypted message (not stored on-chain)\") */\n      0xffffffffffffffffffffffffffffffffffffffff\n      and\n      0x4f5c8688c48a76e9662952b8c8d95fd049fb59e2f355b54a215db171f7db89c6\n      mload(0x40)\n      tag_40\n      swap1\n      tag_41\n      jump\t// in\n    tag_40:\n      mload(0x40)\n      dup1\n      swap2\n      sub\n      swap1\n      log2\n        /* \"contracts/timecapsule.sol\":883:888  false */\n      0x00\n        /* \"contracts/timecapsule.sol\":874:880  locked */\n      0x01\n      0x00\n        /* \"contracts/timecapsule.sol\":874:888  locked = false */\n      0x0100\n      exp\n      dup2\n      sload\n      dup2\n      0xff\n      mul\n      not\n      and\n      swap1\n      dup4\n      iszero\n      iszero\n      mul\n      or\n      swap1\n      sstore\n      pop\n        /* \"contracts/timecapsule.sol\":2740:3238  function openCapsuleByAnyone(address user) public noReentrancy {... */\n      pop\n      jump\t// out\n        /* \"contracts/timecapsule.sol\":1446:2152  function createCapsule(bytes32 messageHash, uint256 unlockTime) public {... */\n    tag_15:\n        /* \"contracts/timecapsule.sol\":1601:1616  block.timestamp */\n      timestamp\n        /* \"contracts/timecapsule.sol\":1588:1598  unlockTime */\n      dup2\n        /* \"contracts/timecapsule.sol\":1588:1616  unlockTime > block.timestamp */\n      gt\n        /* \"contracts/timecapsule.sol\":1580:1654  require(unlockTime > block.timestamp, \"Unlock time must be in the future\") */\n      tag_43\n      jumpi\n      mload(0x40)\n      0x08c379a000000000000000000000000000000000000000000000000000000000\n      dup2\n      mstore\n      0x04\n      add\n      tag_44\n      swap1\n      tag_45\n      jump\t// in\n    tag_44:\n      mload(0x40)\n      dup1\n      swap2\n      sub\n      swap1\n      revert\n    tag_43:\n        /* \"contracts/timecapsule.sol\":1800:1813  10 * 365 days */\n      0x12cc0300\n        /* \"contracts/timecapsule.sol\":1782:1797  block.timestamp */\n      timestamp\n        /* \"contracts/timecapsule.sol\":1782:1813  block.timestamp + 10 * 365 days */\n      tag_46\n      swap2\n      swap1\n      tag_47\n      jump\t// in\n    tag_46:\n        /* \"contracts/timecapsule.sol\":1768:1778  unlockTime */\n      dup2\n        /* \"contracts/timecapsule.sol\":1768:1813  unlockTime <= block.timestamp + 10 * 365 days */\n      gt\n      iszero\n        /* \"contracts/timecapsule.sol\":1760:1851  require(unlockTime <= block.timestamp + 10 * 365 days, \"Unlock time too far in the future\") */\n      tag_48\n      jumpi\n      mload(0x40)\n      0x08c379a000000000000000000000000000000000000000000000000000000000\n      dup2\n      mstore\n      0x04\n      add\n      tag_49\n      swap1\n      tag_50\n      jump\t// in\n    tag_49:\n      mload(0x40)\n      dup1\n      swap2\n      sub\n      swap1\n      revert\n    tag_48:\n        /* \"contracts/timecapsule.sol\":1918:2044  Capsule({... */\n      mload(0x40)\n      dup1\n      0x60\n      add\n      0x40\n      mstore\n      dup1\n        /* \"contracts/timecapsule.sol\":1954:1965  messageHash */\n      dup4\n        /* \"contracts/timecapsule.sol\":1918:2044  Capsule({... */\n      dup2\n      mstore\n      0x20\n      add\n        /* \"contracts/timecapsule.sol\":1992:2002  unlockTime */\n      dup3\n        /* \"contracts/timecapsule.sol\":1918:2044  Capsule({... */\n      dup2\n      mstore\n      0x20\n      add\n        /* \"contracts/timecapsule.sol\":2027:2032  false */\n      0x00\n        /* \"contracts/timecapsule.sol\":1918:2044  Capsule({... */\n      iszero\n      iszero\n      dup2\n      mstore\n      pop\n        /* \"contracts/timecapsule.sol\":1895:1903  capsules */\n      0x00\n        /* \"contracts/timecapsule.sol\":1895:1915  capsules[msg.sender] */\n      dup1\n        /* \"contracts/timecapsule.sol\":1904:1914  msg.sender */\n      caller\n        /* \"contracts/timecapsule.sol\":1895:1915  capsules[msg.sender] */\n      0xffffffffffffffffffffffffffffffffffffffff\n      and\n      0xffffffffffffffffffffffffffffffffffffffff\n      and\n      dup2\n      mstore\n      0x20\n      add\n      swap1\n      dup2\n      mstore\n      0x20\n      add\n      0x00\n      keccak256\n        /* \"contracts/timecapsule.sol\":1895:2044  capsules[msg.sender] = Capsule({... */\n      0x00\n      dup3\n      add\n      mload\n      dup2\n      0x00\n      add\n      sstore\n      0x20\n      dup3\n      add\n      mload\n      dup2\n      0x01\n      add\n      sstore\n      0x40\n      dup3\n      add\n      mload\n      dup2\n      0x02\n      add\n      exp(0x0100, 0x00)\n      dup2\n      sload\n      dup2\n      0xff\n      mul\n      not\n      and\n      swap1\n      dup4\n      iszero\n      iszero\n      mul\n      or\n      swap1\n      sstore\n      pop\n      swap1\n      pop\n      pop\n        /* \"contracts/timecapsule.sol\":2121:2131  msg.sender */\n      caller\n        /* \"contracts/timecapsule.sol\":2106:2144  CapsuleCreated(msg.sender, unlockTime) */\n      0xffffffffffffffffffffffffffffffffffffffff\n      and\n      0xb6d5a53adf9feebfd8fe1b61c8c721b6be115ea05e7b31f389a6b7a82a6540e3\n        /* \"contracts/timecapsule.sol\":2133:2143  unlockTime */\n      dup3\n        /* \"contracts/timecapsule.sol\":2106:2144  CapsuleCreated(msg.sender, unlockTime) */\n      mload(0x40)\n      tag_51\n      swap2\n      swap1\n      tag_52\n      jump\t// in\n    tag_51:\n      mload(0x40)\n      dup1\n      swap2\n      sub\n      swap1\n      log2\n        /* \"contracts/timecapsule.sol\":1446:2152  function createCapsule(bytes32 messageHash, uint256 unlockTime) public {... */\n      pop\n      pop\n      jump\t// out\n        /* \"contracts/timecapsule.sol\":2206:2679  function openCapsule() public capsuleExists canOpen noReentrancy {... */\n    tag_17:\n        /* \"contracts/timecapsule.sol\":1045:1046  0 */\n      0x00\n        /* \"contracts/timecapsule.sol\":1037:1047  bytes32(0) */\n      dup1\n      shl\n        /* \"contracts/timecapsule.sol\":1001:1009  capsules */\n      0x00\n        /* \"contracts/timecapsule.sol\":1001:1021  capsules[msg.sender] */\n      dup1\n        /* \"contracts/timecapsule.sol\":1010:1020  msg.sender */\n      caller\n        /* \"contracts/timecapsule.sol\":1001:1021  capsules[msg.sender] */\n      0xffffffffffffffffffffffffffffffffffffffff\n      and\n      0xffffffffffffffffffffffffffffffffffffffff\n      and\n      dup2\n      mstore\n      0x20\n      add\n      swap1\n      dup2\n      mstore\n      0x20\n      add\n      0x00\n      keccak256\n        /* \"contracts/timecapsule.sol\":1001:1033  capsules[msg.sender].messageHash */\n      0x00\n      add\n      sload\n        /* \"contracts/timecapsule.sol\":1001:1047  capsules[msg.sender].messageHash != bytes32(0) */\n      sub\n        /* \"contracts/timecapsule.sol\":993:1074  require(capsules[msg.sender].messageHash != bytes32(0), \"No time capsule found.\") */\n      tag_54\n      jumpi\n      mload(0x40)\n      0x08c379a000000000000000000000000000000000000000000000000000000000\n      dup2\n      mstore\n      0x04\n      add\n      tag_55\n      swap1\n      tag_33\n      jump\t// in\n    tag_55:\n      mload(0x40)\n      dup1\n      swap2\n      sub\n      swap1\n      revert\n    tag_54:\n        /* \"contracts/timecapsule.sol\":1219:1227  capsules */\n      0x00\n        /* \"contracts/timecapsule.sol\":1219:1239  capsules[msg.sender] */\n      dup1\n        /* \"contracts/timecapsule.sol\":1228:1238  msg.sender */\n      caller\n        /* \"contracts/timecapsule.sol\":1219:1239  capsules[msg.sender] */\n      0xffffffffffffffffffffffffffffffffffffffff\n      and\n      0xffffffffffffffffffffffffffffffffffffffff\n      and\n      dup2\n      mstore\n      0x20\n      add\n      swap1\n      dup2\n      mstore\n      0x20\n      add\n      0x00\n      keccak256\n        /* \"contracts/timecapsule.sol\":1219:1250  capsules[msg.sender].unlockTime */\n      0x01\n      add\n      sload\n        /* \"contracts/timecapsule.sol\":1200:1215  block.timestamp */\n      timestamp\n        /* \"contracts/timecapsule.sol\":1200:1250  block.timestamp >= capsules[msg.sender].unlockTime */\n      lt\n      iszero\n        /* \"contracts/timecapsule.sol\":1192:1279  require(block.timestamp >= capsules[msg.sender].unlockTime, \"Capsule is still locked.\") */\n      tag_57\n      jumpi\n      mload(0x40)\n      0x08c379a000000000000000000000000000000000000000000000000000000000\n      dup2\n      mstore\n      0x04\n      add\n      tag_58\n      swap1\n      tag_39\n      jump\t// in\n    tag_58:\n      mload(0x40)\n      dup1\n      swap2\n      sub\n      swap1\n      revert\n    tag_57:\n        /* \"contracts/timecapsule.sol\":1299:1307  capsules */\n      0x00\n        /* \"contracts/timecapsule.sol\":1299:1319  capsules[msg.sender] */\n      dup1\n        /* \"contracts/timecapsule.sol\":1308:1318  msg.sender */\n      caller\n        /* \"contracts/timecapsule.sol\":1299:1319  capsules[msg.sender] */\n      0xffffffffffffffffffffffffffffffffffffffff\n      and\n      0xffffffffffffffffffffffffffffffffffffffff\n      and\n      dup2\n      mstore\n      0x20\n      add\n      swap1\n      dup2\n      mstore\n      0x20\n      add\n      0x00\n      keccak256\n        /* \"contracts/timecapsule.sol\":1299:1328  capsules[msg.sender].isOpened */\n      0x02\n      add\n      0x00\n      swap1\n      sload\n      swap1\n      0x0100\n      exp\n      swap1\n      div\n      0xff\n      and\n        /* \"contracts/timecapsule.sol\":1298:1328  !capsules[msg.sender].isOpened */\n      iszero\n        /* \"contracts/timecapsule.sol\":1290:1356  require(!capsules[msg.sender].isOpened, \"Capsule already opened.\") */\n      tag_59\n      jumpi\n      mload(0x40)\n      0x08c379a000000000000000000000000000000000000000000000000000000000\n      dup2\n      mstore\n      0x04\n      add\n      tag_60\n      swap1\n      tag_36\n      jump\t// in\n    tag_60:\n      mload(0x40)\n      dup1\n      swap2\n      sub\n      swap1\n      revert\n    tag_59:\n        /* \"contracts/timecapsule.sol\":794:800  locked */\n      0x01\n      0x00\n      swap1\n      sload\n      swap1\n      0x0100\n      exp\n      swap1\n      div\n      0xff\n      and\n        /* \"contracts/timecapsule.sol\":793:800  !locked */\n      iszero\n        /* \"contracts/timecapsule.sol\":785:827  require(!locked, \"No reentrancy allowed.\") */\n      tag_62\n      jumpi\n      mload(0x40)\n      0x08c379a000000000000000000000000000000000000000000000000000000000\n      dup2\n      mstore\n      0x04\n      add\n      tag_63\n      swap1\n      tag_29\n      jump\t// in\n    tag_63:\n      mload(0x40)\n      dup1\n      swap2\n      sub\n      swap1\n      revert\n    tag_62:\n        /* \"contracts/timecapsule.sol\":847:851  true */\n      0x01\n        /* \"contracts/timecapsule.sol\":838:844  locked */\n      dup1\n      0x00\n        /* \"contracts/timecapsule.sol\":838:851  locked = true */\n      0x0100\n      exp\n      dup2\n      sload\n      dup2\n      0xff\n      mul\n      not\n      and\n      swap1\n      dup4\n      iszero\n      iszero\n      mul\n      or\n      swap1\n      sstore\n      pop\n        /* \"contracts/timecapsule.sol\":2282:2305  Capsule storage capsule */\n      0x00\n        /* \"contracts/timecapsule.sol\":2308:2316  capsules */\n      dup1\n        /* \"contracts/timecapsule.sol\":2308:2328  capsules[msg.sender] */\n      0x00\n        /* \"contracts/timecapsule.sol\":2317:2327  msg.sender */\n      caller\n        /* \"contracts/timecapsule.sol\":2308:2328  capsules[msg.sender] */\n      0xffffffffffffffffffffffffffffffffffffffff\n      and\n      0xffffffffffffffffffffffffffffffffffffffff\n      and\n      dup2\n      mstore\n      0x20\n      add\n      swap1\n      dup2\n      mstore\n      0x20\n      add\n      0x00\n      keccak256\n        /* \"contracts/timecapsule.sol\":2282:2328  Capsule storage capsule = capsules[msg.sender] */\n      swap1\n      pop\n        /* \"contracts/timecapsule.sol\":2368:2372  true */\n      0x01\n        /* \"contracts/timecapsule.sol\":2349:2356  capsule */\n      dup2\n        /* \"contracts/timecapsule.sol\":2349:2365  capsule.isOpened */\n      0x02\n      add\n      0x00\n        /* \"contracts/timecapsule.sol\":2349:2372  capsule.isOpened = true */\n      0x0100\n      exp\n      dup2\n      sload\n      dup2\n      0xff\n      mul\n      not\n      and\n      swap1\n      dup4\n      iszero\n      iszero\n      mul\n      or\n      swap1\n      sstore\n      pop\n        /* \"contracts/timecapsule.sol\":2486:2507  string memory message */\n      0x00\n        /* \"contracts/timecapsule.sol\":2486:2551  string memory message = \"Decrypted message (not stored on-chain)\" */\n      mload(0x40)\n      dup1\n      0x60\n      add\n      0x40\n      mstore\n      dup1\n      0x27\n      dup2\n      mstore\n      0x20\n      add\n      data_eec7388d566808eda5e6525c521b2bac49f9d49559d365971e42b5f29c33cd86\n      0x27\n      swap2\n      codecopy\n      swap1\n      pop\n        /* \"contracts/timecapsule.sol\":2651:2661  msg.sender */\n      caller\n        /* \"contracts/timecapsule.sol\":2637:2671  CapsuleOpened(msg.sender, message) */\n      0xffffffffffffffffffffffffffffffffffffffff\n      and\n      0x4f5c8688c48a76e9662952b8c8d95fd049fb59e2f355b54a215db171f7db89c6\n        /* \"contracts/timecapsule.sol\":2663:2670  message */\n      dup3\n        /* \"contracts/timecapsule.sol\":2637:2671  CapsuleOpened(msg.sender, message) */\n      mload(0x40)\n      tag_65\n      swap2\n      swap1\n      tag_66\n      jump\t// in\n    tag_65:\n      mload(0x40)\n      dup1\n      swap2\n      sub\n      swap1\n      log2\n        /* \"contracts/timecapsule.sol\":2271:2679  {... */\n      pop\n      pop\n        /* \"contracts/timecapsule.sol\":883:888  false */\n      0x00\n        /* \"contracts/timecapsule.sol\":874:880  locked */\n      0x01\n      0x00\n        /* \"contracts/timecapsule.sol\":874:888  locked = false */\n      0x0100\n      exp\n      dup2\n      sload\n      dup2\n      0xff\n      mul\n      not\n      and\n      swap1\n      dup4\n      iszero\n      iszero\n      mul\n      or\n      swap1\n      sstore\n      pop\n        /* \"contracts/timecapsule.sol\":2206:2679  function openCapsule() public capsuleExists canOpen noReentrancy {... */\n      jump\t// out\n        /* \"contracts/timecapsule.sol\":379:422  mapping(address => Capsule) public capsules */\n    tag_20:\n      mstore(0x20, 0x00)\n      dup1\n      0x00\n      mstore\n      keccak256(0x00, 0x40)\n      0x00\n      swap2\n      pop\n      swap1\n      pop\n      dup1\n      0x00\n      add\n      sload\n      swap1\n      dup1\n      0x01\n      add\n      sload\n      swap1\n      dup1\n      0x02\n      add\n      0x00\n      swap1\n      sload\n      swap1\n      0x0100\n      exp\n      swap1\n      div\n      0xff\n      and\n      swap1\n      pop\n      dup4\n      jump\t// out\n        /* \"contracts/timecapsule.sol\":3328:3542  function getCapsuleStatus() public view returns (bytes32, uint256, bool) {... */\n    tag_24:\n        /* \"contracts/timecapsule.sol\":3377:3384  bytes32 */\n      0x00\n        /* \"contracts/timecapsule.sol\":3386:3393  uint256 */\n      dup1\n        /* \"contracts/timecapsule.sol\":3395:3399  bool */\n      0x00\n        /* \"contracts/timecapsule.sol\":3412:3434  Capsule memory capsule */\n      dup1\n        /* \"contracts/timecapsule.sol\":3437:3445  capsules */\n      0x00\n        /* \"contracts/timecapsule.sol\":3437:3457  capsules[msg.sender] */\n      dup1\n        /* \"contracts/timecapsule.sol\":3446:3456  msg.sender */\n      caller\n        /* \"contracts/timecapsule.sol\":3437:3457  capsules[msg.sender] */\n      0xffffffffffffffffffffffffffffffffffffffff\n      and\n      0xffffffffffffffffffffffffffffffffffffffff\n      and\n      dup2\n      mstore\n      0x20\n      add\n      swap1\n      dup2\n      mstore\n      0x20\n      add\n      0x00\n      keccak256\n        /* \"contracts/timecapsule.sol\":3412:3457  Capsule memory capsule = capsules[msg.sender] */\n      mload(0x40)\n      dup1\n      0x60\n      add\n      0x40\n      mstore\n      swap1\n      dup2\n      0x00\n      dup3\n      add\n      sload\n      dup2\n      mstore\n      0x20\n      add\n      0x01\n      dup3\n      add\n      sload\n      dup2\n      mstore\n      0x20\n      add\n      0x02\n      dup3\n      add\n      0x00\n      swap1\n      sload\n      swap1\n      0x0100\n      exp\n      swap1\n      div\n      0xff\n      and\n      iszero\n      iszero\n      iszero\n      iszero\n      dup2\n      mstore\n      pop\n      pop\n      swap1\n      pop\n        /* \"contracts/timecapsule.sol\":3476:3483  capsule */\n      dup1\n        /* \"contracts/timecapsule.sol\":3476:3495  capsule.messageHash */\n      0x00\n      add\n      mload\n        /* \"contracts/timecapsule.sol\":3497:3504  capsule */\n      dup2\n        /* \"contracts/timecapsule.sol\":3497:3515  capsule.unlockTime */\n      0x20\n      add\n      mload\n        /* \"contracts/timecapsule.sol\":3517:3524  capsule */\n      dup3\n        /* \"contracts/timecapsule.sol\":3517:3533  capsule.isOpened */\n      0x40\n      add\n      mload\n        /* \"contracts/timecapsule.sol\":3468:3534  return (capsule.messageHash, capsule.unlockTime, capsule.isOpened) */\n      swap4\n      pop\n      swap4\n      pop\n      swap4\n      pop\n      pop\n        /* \"contracts/timecapsule.sol\":3328:3542  function getCapsuleStatus() public view returns (bytes32, uint256, bool) {... */\n      swap1\n      swap2\n      swap3\n      jump\t// out\n        /* \"#utility.yul\":88:205   */\n    tag_69:\n        /* \"#utility.yul\":197:198   */\n      0x00\n        /* \"#utility.yul\":194:195   */\n      dup1\n        /* \"#utility.yul\":187:199   */\n      revert\n        /* \"#utility.yul\":334:460   */\n    tag_71:\n        /* \"#utility.yul\":371:378   */\n      0x00\n        /* \"#utility.yul\":411:453   */\n      0xffffffffffffffffffffffffffffffffffffffff\n        /* \"#utility.yul\":404:409   */\n      dup3\n        /* \"#utility.yul\":400:454   */\n      and\n        /* \"#utility.yul\":389:454   */\n      swap1\n      pop\n        /* \"#utility.yul\":334:460   */\n      swap2\n      swap1\n      pop\n      jump\t// out\n        /* \"#utility.yul\":466:562   */\n    tag_72:\n        /* \"#utility.yul\":503:510   */\n      0x00\n        /* \"#utility.yul\":532:556   */\n      tag_111\n        /* \"#utility.yul\":550:555   */\n      dup3\n        /* \"#utility.yul\":532:556   */\n      tag_71\n      jump\t// in\n    tag_111:\n        /* \"#utility.yul\":521:556   */\n      swap1\n      pop\n        /* \"#utility.yul\":466:562   */\n      swap2\n      swap1\n      pop\n      jump\t// out\n        /* \"#utility.yul\":568:690   */\n    tag_73:\n        /* \"#utility.yul\":641:665   */\n      tag_113\n        /* \"#utility.yul\":659:664   */\n      dup2\n        /* \"#utility.yul\":641:665   */\n      tag_72\n      jump\t// in\n    tag_113:\n        /* \"#utility.yul\":634:639   */\n      dup2\n        /* \"#utility.yul\":631:666   */\n      eq\n        /* \"#utility.yul\":621:684   */\n      tag_114\n      jumpi\n        /* \"#utility.yul\":680:681   */\n      0x00\n        /* \"#utility.yul\":677:678   */\n      dup1\n        /* \"#utility.yul\":670:682   */\n      revert\n        /* \"#utility.yul\":621:684   */\n    tag_114:\n        /* \"#utility.yul\":568:690   */\n      pop\n      jump\t// out\n        /* \"#utility.yul\":696:835   */\n    tag_74:\n        /* \"#utility.yul\":742:747   */\n      0x00\n        /* \"#utility.yul\":780:786   */\n      dup2\n        /* \"#utility.yul\":767:787   */\n      calldataload\n        /* \"#utility.yul\":758:787   */\n      swap1\n      pop\n        /* \"#utility.yul\":796:829   */\n      tag_116\n        /* \"#utility.yul\":823:828   */\n      dup2\n        /* \"#utility.yul\":796:829   */\n      tag_73\n      jump\t// in\n    tag_116:\n        /* \"#utility.yul\":696:835   */\n      swap3\n      swap2\n      pop\n      pop\n      jump\t// out\n        /* \"#utility.yul\":841:1170   */\n    tag_10:\n        /* \"#utility.yul\":900:906   */\n      0x00\n        /* \"#utility.yul\":949:951   */\n      0x20\n        /* \"#utility.yul\":937:946   */\n      dup3\n        /* \"#utility.yul\":928:935   */\n      dup5\n        /* \"#utility.yul\":924:947   */\n      sub\n        /* \"#utility.yul\":920:952   */\n      slt\n        /* \"#utility.yul\":917:1036   */\n      iszero\n      tag_118\n      jumpi\n        /* \"#utility.yul\":955:1034   */\n      tag_119\n      tag_69\n      jump\t// in\n    tag_119:\n        /* \"#utility.yul\":917:1036   */\n    tag_118:\n        /* \"#utility.yul\":1075:1076   */\n      0x00\n        /* \"#utility.yul\":1100:1153   */\n      tag_120\n        /* \"#utility.yul\":1145:1152   */\n      dup5\n        /* \"#utility.yul\":1136:1142   */\n      dup3\n        /* \"#utility.yul\":1125:1134   */\n      dup6\n        /* \"#utility.yul\":1121:1143   */\n      add\n        /* \"#utility.yul\":1100:1153   */\n      tag_74\n      jump\t// in\n    tag_120:\n        /* \"#utility.yul\":1090:1153   */\n      swap2\n      pop\n        /* \"#utility.yul\":1046:1163   */\n      pop\n        /* \"#utility.yul\":841:1170   */\n      swap3\n      swap2\n      pop\n      pop\n      jump\t// out\n        /* \"#utility.yul\":1176:1253   */\n    tag_75:\n        /* \"#utility.yul\":1213:1220   */\n      0x00\n        /* \"#utility.yul\":1242:1247   */\n      dup2\n        /* \"#utility.yul\":1231:1247   */\n      swap1\n      pop\n        /* \"#utility.yul\":1176:1253   */\n      swap2\n      swap1\n      pop\n      jump\t// out\n        /* \"#utility.yul\":1259:1381   */\n    tag_76:\n        /* \"#utility.yul\":1332:1356   */\n      tag_123\n        /* \"#utility.yul\":1350:1355   */\n      dup2\n        /* \"#utility.yul\":1332:1356   */\n      tag_75\n      jump\t// in\n    tag_123:\n        /* \"#utility.yul\":1325:1330   */\n      dup2\n        /* \"#utility.yul\":1322:1357   */\n      eq\n        /* \"#utility.yul\":1312:1375   */\n      tag_124\n      jumpi\n        /* \"#utility.yul\":1371:1372   */\n      0x00\n        /* \"#utility.yul\":1368:1369   */\n      dup1\n        /* \"#utility.yul\":1361:1373   */\n      revert\n        /* \"#utility.yul\":1312:1375   */\n    tag_124:\n        /* \"#utility.yul\":1259:1381   */\n      pop\n      jump\t// out\n        /* \"#utility.yul\":1387:1526   */\n    tag_77:\n        /* \"#utility.yul\":1433:1438   */\n      0x00\n        /* \"#utility.yul\":1471:1477   */\n      dup2\n        /* \"#utility.yul\":1458:1478   */\n      calldataload\n        /* \"#utility.yul\":1449:1478   */\n      swap1\n      pop\n        /* \"#utility.yul\":1487:1520   */\n      tag_126\n        /* \"#utility.yul\":1514:1519   */\n      dup2\n        /* \"#utility.yul\":1487:1520   */\n      tag_76\n      jump\t// in\n    tag_126:\n        /* \"#utility.yul\":1387:1526   */\n      swap3\n      swap2\n      pop\n      pop\n      jump\t// out\n        /* \"#utility.yul\":1532:1609   */\n    tag_78:\n        /* \"#utility.yul\":1569:1576   */\n      0x00\n        /* \"#utility.yul\":1598:1603   */\n      dup2\n        /* \"#utility.yul\":1587:1603   */\n      swap1\n      pop\n        /* \"#utility.yul\":1532:1609   */\n      swap2\n      swap1\n      pop\n      jump\t// out\n        /* \"#utility.yul\":1615:1737   */\n    tag_79:\n        /* \"#utility.yul\":1688:1712   */\n      tag_129\n        /* \"#utility.yul\":1706:1711   */\n      dup2\n        /* \"#utility.yul\":1688:1712   */\n      tag_78\n      jump\t// in\n    tag_129:\n        /* \"#utility.yul\":1681:1686   */\n      dup2\n        /* \"#utility.yul\":1678:1713   */\n      eq\n        /* \"#utility.yul\":1668:1731   */\n      tag_130\n      jumpi\n        /* \"#utility.yul\":1727:1728   */\n      0x00\n        /* \"#utility.yul\":1724:1725   */\n      dup1\n        /* \"#utility.yul\":1717:1729   */\n      revert\n        /* \"#utility.yul\":1668:1731   */\n    tag_130:\n        /* \"#utility.yul\":1615:1737   */\n      pop\n      jump\t// out\n        /* \"#utility.yul\":1743:1882   */\n    tag_80:\n        /* \"#utility.yul\":1789:1794   */\n      0x00\n        /* \"#utility.yul\":1827:1833   */\n      dup2\n        /* \"#utility.yul\":1814:1834   */\n      calldataload\n        /* \"#utility.yul\":1805:1834   */\n      swap1\n      pop\n        /* \"#utility.yul\":1843:1876   */\n      tag_132\n        /* \"#utility.yul\":1870:1875   */\n      dup2\n        /* \"#utility.yul\":1843:1876   */\n      tag_79\n      jump\t// in\n    tag_132:\n        /* \"#utility.yul\":1743:1882   */\n      swap3\n      swap2\n      pop\n      pop\n      jump\t// out\n        /* \"#utility.yul\":1888:2362   */\n    tag_14:\n        /* \"#utility.yul\":1956:1962   */\n      0x00\n        /* \"#utility.yul\":1964:1970   */\n      dup1\n        /* \"#utility.yul\":2013:2015   */\n      0x40\n        /* \"#utility.yul\":2001:2010   */\n      dup4\n        /* \"#utility.yul\":1992:1999   */\n      dup6\n        /* \"#utility.yul\":1988:2011   */\n      sub\n        /* \"#utility.yul\":1984:2016   */\n      slt\n        /* \"#utility.yul\":1981:2100   */\n      iszero\n      tag_134\n      jumpi\n        /* \"#utility.yul\":2019:2098   */\n      tag_135\n      tag_69\n      jump\t// in\n    tag_135:\n        /* \"#utility.yul\":1981:2100   */\n    tag_134:\n        /* \"#utility.yul\":2139:2140   */\n      0x00\n        /* \"#utility.yul\":2164:2217   */\n      tag_136\n        /* \"#utility.yul\":2209:2216   */\n      dup6\n        /* \"#utility.yul\":2200:2206   */\n      dup3\n        /* \"#utility.yul\":2189:2198   */\n      dup7\n        /* \"#utility.yul\":2185:2207   */\n      add\n        /* \"#utility.yul\":2164:2217   */\n      tag_77\n      jump\t// in\n    tag_136:\n        /* \"#utility.yul\":2154:2217   */\n      swap3\n      pop\n        /* \"#utility.yul\":2110:2227   */\n      pop\n        /* \"#utility.yul\":2266:2268   */\n      0x20\n        /* \"#utility.yul\":2292:2345   */\n      tag_137\n        /* \"#utility.yul\":2337:2344   */\n      dup6\n        /* \"#utility.yul\":2328:2334   */\n      dup3\n        /* \"#utility.yul\":2317:2326   */\n      dup7\n        /* \"#utility.yul\":2313:2335   */\n      add\n        /* \"#utility.yul\":2292:2345   */\n      tag_80\n      jump\t// in\n    tag_137:\n        /* \"#utility.yul\":2282:2345   */\n      swap2\n      pop\n        /* \"#utility.yul\":2237:2355   */\n      pop\n        /* \"#utility.yul\":1888:2362   */\n      swap3\n      pop\n      swap3\n      swap1\n      pop\n      jump\t// out\n        /* \"#utility.yul\":2368:2486   */\n    tag_81:\n        /* \"#utility.yul\":2455:2479   */\n      tag_139\n        /* \"#utility.yul\":2473:2478   */\n      dup2\n        /* \"#utility.yul\":2455:2479   */\n      tag_75\n      jump\t// in\n    tag_139:\n        /* \"#utility.yul\":2450:2453   */\n      dup3\n        /* \"#utility.yul\":2443:2480   */\n      mstore\n        /* \"#utility.yul\":2368:2486   */\n      pop\n      pop\n      jump\t// out\n        /* \"#utility.yul\":2492:2610   */\n    tag_82:\n        /* \"#utility.yul\":2579:2603   */\n      tag_141\n        /* \"#utility.yul\":2597:2602   */\n      dup2\n        /* \"#utility.yul\":2579:2603   */\n      tag_78\n      jump\t// in\n    tag_141:\n        /* \"#utility.yul\":2574:2577   */\n      dup3\n        /* \"#utility.yul\":2567:2604   */\n      mstore\n        /* \"#utility.yul\":2492:2610   */\n      pop\n      pop\n      jump\t// out\n        /* \"#utility.yul\":2616:2706   */\n    tag_83:\n        /* \"#utility.yul\":2650:2657   */\n      0x00\n        /* \"#utility.yul\":2693:2698   */\n      dup2\n        /* \"#utility.yul\":2686:2699   */\n      iszero\n        /* \"#utility.yul\":2679:2700   */\n      iszero\n        /* \"#utility.yul\":2668:2700   */\n      swap1\n      pop\n        /* \"#utility.yul\":2616:2706   */\n      swap2\n      swap1\n      pop\n      jump\t// out\n        /* \"#utility.yul\":2712:2821   */\n    tag_84:\n        /* \"#utility.yul\":2793:2814   */\n      tag_144\n        /* \"#utility.yul\":2808:2813   */\n      dup2\n        /* \"#utility.yul\":2793:2814   */\n      tag_83\n      jump\t// in\n    tag_144:\n        /* \"#utility.yul\":2788:2791   */\n      dup3\n        /* \"#utility.yul\":2781:2815   */\n      mstore\n        /* \"#utility.yul\":2712:2821   */\n      pop\n      pop\n      jump\t// out\n        /* \"#utility.yul\":2827:3257   */\n    tag_22:\n        /* \"#utility.yul\":2970:2974   */\n      0x00\n        /* \"#utility.yul\":3008:3010   */\n      0x60\n        /* \"#utility.yul\":2997:3006   */\n      dup3\n        /* \"#utility.yul\":2993:3011   */\n      add\n        /* \"#utility.yul\":2985:3011   */\n      swap1\n      pop\n        /* \"#utility.yul\":3021:3092   */\n      tag_146\n        /* \"#utility.yul\":3089:3090   */\n      0x00\n        /* \"#utility.yul\":3078:3087   */\n      dup4\n        /* \"#utility.yul\":3074:3091   */\n      add\n        /* \"#utility.yul\":3065:3071   */\n      dup7\n        /* \"#utility.yul\":3021:3092   */\n      tag_81\n      jump\t// in\n    tag_146:\n        /* \"#utility.yul\":3102:3174   */\n      tag_147\n        /* \"#utility.yul\":3170:3172   */\n      0x20\n        /* \"#utility.yul\":3159:3168   */\n      dup4\n        /* \"#utility.yul\":3155:3173   */\n      add\n        /* \"#utility.yul\":3146:3152   */\n      dup6\n        /* \"#utility.yul\":3102:3174   */\n      tag_82\n      jump\t// in\n    tag_147:\n        /* \"#utility.yul\":3184:3250   */\n      tag_148\n        /* \"#utility.yul\":3246:3248   */\n      0x40\n        /* \"#utility.yul\":3235:3244   */\n      dup4\n        /* \"#utility.yul\":3231:3249   */\n      add\n        /* \"#utility.yul\":3222:3228   */\n      dup5\n        /* \"#utility.yul\":3184:3250   */\n      tag_84\n      jump\t// in\n    tag_148:\n        /* \"#utility.yul\":2827:3257   */\n      swap5\n      swap4\n      pop\n      pop\n      pop\n      pop\n      jump\t// out\n        /* \"#utility.yul\":3263:3432   */\n    tag_85:\n        /* \"#utility.yul\":3347:3358   */\n      0x00\n        /* \"#utility.yul\":3381:3387   */\n      dup3\n        /* \"#utility.yul\":3376:3379   */\n      dup3\n        /* \"#utility.yul\":3369:3388   */\n      mstore\n        /* \"#utility.yul\":3421:3425   */\n      0x20\n        /* \"#utility.yul\":3416:3419   */\n      dup3\n        /* \"#utility.yul\":3412:3426   */\n      add\n        /* \"#utility.yul\":3397:3426   */\n      swap1\n      pop\n        /* \"#utility.yul\":3263:3432   */\n      swap3\n      swap2\n      pop\n      pop\n      jump\t// out\n        /* \"#utility.yul\":3438:3610   */\n    tag_86:\n        /* \"#utility.yul\":3578:3602   */\n      0x4e6f207265656e7472616e637920616c6c6f7765642e00000000000000000000\n        /* \"#utility.yul\":3574:3575   */\n      0x00\n        /* \"#utility.yul\":3566:3572   */\n      dup3\n        /* \"#utility.yul\":3562:3576   */\n      add\n        /* \"#utility.yul\":3555:3603   */\n      mstore\n        /* \"#utility.yul\":3438:3610   */\n      pop\n      jump\t// out\n        /* \"#utility.yul\":3616:3982   */\n    tag_87:\n        /* \"#utility.yul\":3758:3761   */\n      0x00\n        /* \"#utility.yul\":3779:3846   */\n      tag_152\n        /* \"#utility.yul\":3843:3845   */\n      0x16\n        /* \"#utility.yul\":3838:3841   */\n      dup4\n        /* \"#utility.yul\":3779:3846   */\n      tag_85\n      jump\t// in\n    tag_152:\n        /* \"#utility.yul\":3772:3846   */\n      swap2\n      pop\n        /* \"#utility.yul\":3855:3948   */\n      tag_153\n        /* \"#utility.yul\":3944:3947   */\n      dup3\n        /* \"#utility.yul\":3855:3948   */\n      tag_86\n      jump\t// in\n    tag_153:\n        /* \"#utility.yul\":3973:3975   */\n      0x20\n        /* \"#utility.yul\":3968:3971   */\n      dup3\n        /* \"#utility.yul\":3964:3976   */\n      add\n        /* \"#utility.yul\":3957:3976   */\n      swap1\n      pop\n        /* \"#utility.yul\":3616:3982   */\n      swap2\n      swap1\n      pop\n      jump\t// out\n        /* \"#utility.yul\":3988:4407   */\n    tag_29:\n        /* \"#utility.yul\":4154:4158   */\n      0x00\n        /* \"#utility.yul\":4192:4194   */\n      0x20\n        /* \"#utility.yul\":4181:4190   */\n      dup3\n        /* \"#utility.yul\":4177:4195   */\n      add\n        /* \"#utility.yul\":4169:4195   */\n      swap1\n      pop\n        /* \"#utility.yul\":4241:4250   */\n      dup2\n        /* \"#utility.yul\":4235:4239   */\n      dup2\n        /* \"#utility.yul\":4231:4251   */\n      sub\n        /* \"#utility.yul\":4227:4228   */\n      0x00\n        /* \"#utility.yul\":4216:4225   */\n      dup4\n        /* \"#utility.yul\":4212:4229   */\n      add\n        /* \"#utility.yul\":4205:4252   */\n      mstore\n        /* \"#utility.yul\":4269:4400   */\n      tag_155\n        /* \"#utility.yul\":4395:4399   */\n      dup2\n        /* \"#utility.yul\":4269:4400   */\n      tag_87\n      jump\t// in\n    tag_155:\n        /* \"#utility.yul\":4261:4400   */\n      swap1\n      pop\n        /* \"#utility.yul\":3988:4407   */\n      swap2\n      swap1\n      pop\n      jump\t// out\n        /* \"#utility.yul\":4413:4585   */\n    tag_88:\n        /* \"#utility.yul\":4553:4577   */\n      0x4e6f2074696d652063617073756c6520666f756e642e00000000000000000000\n        /* \"#utility.yul\":4549:4550   */\n      0x00\n        /* \"#utility.yul\":4541:4547   */\n      dup3\n        /* \"#utility.yul\":4537:4551   */\n      add\n        /* \"#utility.yul\":4530:4578   */\n      mstore\n        /* \"#utility.yul\":4413:4585   */\n      pop\n      jump\t// out\n        /* \"#utility.yul\":4591:4957   */\n    tag_89:\n        /* \"#utility.yul\":4733:4736   */\n      0x00\n        /* \"#utility.yul\":4754:4821   */\n      tag_158\n        /* \"#utility.yul\":4818:4820   */\n      0x16\n        /* \"#utility.yul\":4813:4816   */\n      dup4\n        /* \"#utility.yul\":4754:4821   */\n      tag_85\n      jump\t// in\n    tag_158:\n        /* \"#utility.yul\":4747:4821   */\n      swap2\n      pop\n        /* \"#utility.yul\":4830:4923   */\n      tag_159\n        /* \"#utility.yul\":4919:4922   */\n      dup3\n        /* \"#utility.yul\":4830:4923   */\n      tag_88\n      jump\t// in\n    tag_159:\n        /* \"#utility.yul\":4948:4950   */\n      0x20\n        /* \"#utility.yul\":4943:4946   */\n      dup3\n        /* \"#utility.yul\":4939:4951   */\n      add\n        /* \"#utility.yul\":4932:4951   */\n      swap1\n      pop\n        /* \"#utility.yul\":4591:4957   */\n      swap2\n      swap1\n      pop\n      jump\t// out\n        /* \"#utility.yul\":4963:5382   */\n    tag_33:\n        /* \"#utility.yul\":5129:5133   */\n      0x00\n        /* \"#utility.yul\":5167:5169   */\n      0x20\n        /* \"#utility.yul\":5156:5165   */\n      dup3\n        /* \"#utility.yul\":5152:5170   */\n      add\n        /* \"#utility.yul\":5144:5170   */\n      swap1\n      pop\n        /* \"#utility.yul\":5216:5225   */\n      dup2\n        /* \"#utility.yul\":5210:5214   */\n      dup2\n        /* \"#utility.yul\":5206:5226   */\n      sub\n        /* \"#utility.yul\":5202:5203   */\n      0x00\n        /* \"#utility.yul\":5191:5200   */\n      dup4\n        /* \"#utility.yul\":5187:5204   */\n      add\n        /* \"#utility.yul\":5180:5227   */\n      mstore\n        /* \"#utility.yul\":5244:5375   */\n      tag_161\n        /* \"#utility.yul\":5370:5374   */\n      dup2\n        /* \"#utility.yul\":5244:5375   */\n      tag_89\n      jump\t// in\n    tag_161:\n        /* \"#utility.yul\":5236:5375   */\n      swap1\n      pop\n        /* \"#utility.yul\":4963:5382   */\n      swap2\n      swap1\n      pop\n      jump\t// out\n        /* \"#utility.yul\":5388:5561   */\n    tag_90:\n        /* \"#utility.yul\":5528:5553   */\n      0x43617073756c6520616c7265616479206f70656e65642e000000000000000000\n        /* \"#utility.yul\":5524:5525   */\n      0x00\n        /* \"#utility.yul\":5516:5522   */\n      dup3\n        /* \"#utility.yul\":5512:5526   */\n      add\n        /* \"#utility.yul\":5505:5554   */\n      mstore\n        /* \"#utility.yul\":5388:5561   */\n      pop\n      jump\t// out\n        /* \"#utility.yul\":5567:5933   */\n    tag_91:\n        /* \"#utility.yul\":5709:5712   */\n      0x00\n        /* \"#utility.yul\":5730:5797   */\n      tag_164\n        /* \"#utility.yul\":5794:5796   */\n      0x17\n        /* \"#utility.yul\":5789:5792   */\n      dup4\n        /* \"#utility.yul\":5730:5797   */\n      tag_85\n      jump\t// in\n    tag_164:\n        /* \"#utility.yul\":5723:5797   */\n      swap2\n      pop\n        /* \"#utility.yul\":5806:5899   */\n      tag_165\n        /* \"#utility.yul\":5895:5898   */\n      dup3\n        /* \"#utility.yul\":5806:5899   */\n      tag_90\n      jump\t// in\n    tag_165:\n        /* \"#utility.yul\":5924:5926   */\n      0x20\n        /* \"#utility.yul\":5919:5922   */\n      dup3\n        /* \"#utility.yul\":5915:5927   */\n      add\n        /* \"#utility.yul\":5908:5927   */\n      swap1\n      pop\n        /* \"#utility.yul\":5567:5933   */\n      swap2\n      swap1\n      pop\n      jump\t// out\n        /* \"#utility.yul\":5939:6358   */\n    tag_36:\n        /* \"#utility.yul\":6105:6109   */\n      0x00\n        /* \"#utility.yul\":6143:6145   */\n      0x20\n        /* \"#utility.yul\":6132:6141   */\n      dup3\n        /* \"#utility.yul\":6128:6146   */\n      add\n        /* \"#utility.yul\":6120:6146   */\n      swap1\n      pop\n        /* \"#utility.yul\":6192:6201   */\n      dup2\n        /* \"#utility.yul\":6186:6190   */\n      dup2\n        /* \"#utility.yul\":6182:6202   */\n      sub\n        /* \"#utility.yul\":6178:6179   */\n      0x00\n        /* \"#utility.yul\":6167:6176   */\n      dup4\n        /* \"#utility.yul\":6163:6180   */\n      add\n        /* \"#utility.yul\":6156:6203   */\n      mstore\n        /* \"#utility.yul\":6220:6351   */\n      tag_167\n        /* \"#utility.yul\":6346:6350   */\n      dup2\n        /* \"#utility.yul\":6220:6351   */\n      tag_91\n      jump\t// in\n    tag_167:\n        /* \"#utility.yul\":6212:6351   */\n      swap1\n      pop\n        /* \"#utility.yul\":5939:6358   */\n      swap2\n      swap1\n      pop\n      jump\t// out\n        /* \"#utility.yul\":6364:6538   */\n    tag_92:\n        /* \"#utility.yul\":6504:6530   */\n      0x43617073756c65206973207374696c6c206c6f636b65642e0000000000000000\n        /* \"#utility.yul\":6500:6501   */\n      0x00\n        /* \"#utility.yul\":6492:6498   */\n      dup3\n        /* \"#utility.yul\":6488:6502   */\n      add\n        /* \"#utility.yul\":6481:6531   */\n      mstore\n        /* \"#utility.yul\":6364:6538   */\n      pop\n      jump\t// out\n        /* \"#utility.yul\":6544:6910   */\n    tag_93:\n        /* \"#utility.yul\":6686:6689   */\n      0x00\n        /* \"#utility.yul\":6707:6774   */\n      tag_170\n        /* \"#utility.yul\":6771:6773   */\n      0x18\n        /* \"#utility.yul\":6766:6769   */\n      dup4\n        /* \"#utility.yul\":6707:6774   */\n      tag_85\n      jump\t// in\n    tag_170:\n        /* \"#utility.yul\":6700:6774   */\n      swap2\n      pop\n        /* \"#utility.yul\":6783:6876   */\n      tag_171\n        /* \"#utility.yul\":6872:6875   */\n      dup3\n        /* \"#utility.yul\":6783:6876   */\n      tag_92\n      jump\t// in\n    tag_171:\n        /* \"#utility.yul\":6901:6903   */\n      0x20\n        /* \"#utility.yul\":6896:6899   */\n      dup3\n        /* \"#utility.yul\":6892:6904   */\n      add\n        /* \"#utility.yul\":6885:6904   */\n      swap1\n      pop\n        /* \"#utility.yul\":6544:6910   */\n      swap2\n      swap1\n      pop\n      jump\t// out\n        /* \"#utility.yul\":6916:7335   */\n    tag_39:\n        /* \"#utility.yul\":7082:7086   */\n      0x00\n        /* \"#utility.yul\":7120:7122   */\n      0x20\n        /* \"#utility.yul\":7109:7118   */\n      dup3\n        /* \"#utility.yul\":7105:7123   */\n      add\n        /* \"#utility.yul\":7097:7123   */\n      swap1\n      pop\n        /* \"#utility.yul\":7169:7178   */\n      dup2\n        /* \"#utility.yul\":7163:7167   */\n      dup2\n        /* \"#utility.yul\":7159:7179   */\n      sub\n        /* \"#utility.yul\":7155:7156   */\n      0x00\n        /* \"#utility.yul\":7144:7153   */\n      dup4\n        /* \"#utility.yul\":7140:7157   */\n      add\n        /* \"#utility.yul\":7133:7180   */\n      mstore\n        /* \"#utility.yul\":7197:7328   */\n      tag_173\n        /* \"#utility.yul\":7323:7327   */\n      dup2\n        /* \"#utility.yul\":7197:7328   */\n      tag_93\n      jump\t// in\n    tag_173:\n        /* \"#utility.yul\":7189:7328   */\n      swap1\n      pop\n        /* \"#utility.yul\":6916:7335   */\n      swap2\n      swap1\n      pop\n      jump\t// out\n        /* \"#utility.yul\":7341:7567   */\n    tag_94:\n        /* \"#utility.yul\":7481:7515   */\n      0x446563727970746564206d65737361676520286e6f742073746f726564206f6e\n        /* \"#utility.yul\":7477:7478   */\n      0x00\n        /* \"#utility.yul\":7469:7475   */\n      dup3\n        /* \"#utility.yul\":7465:7479   */\n      add\n        /* \"#utility.yul\":7458:7516   */\n      mstore\n        /* \"#utility.yul\":7550:7559   */\n      0x2d636861696e2900000000000000000000000000000000000000000000000000\n        /* \"#utility.yul\":7545:7547   */\n      0x20\n        /* \"#utility.yul\":7537:7543   */\n      dup3\n        /* \"#utility.yul\":7533:7548   */\n      add\n        /* \"#utility.yul\":7526:7560   */\n      mstore\n        /* \"#utility.yul\":7341:7567   */\n      pop\n      jump\t// out\n        /* \"#utility.yul\":7573:7939   */\n    tag_95:\n        /* \"#utility.yul\":7715:7718   */\n      0x00\n        /* \"#utility.yul\":7736:7803   */\n      tag_176\n        /* \"#utility.yul\":7800:7802   */\n      0x27\n        /* \"#utility.yul\":7795:7798   */\n      dup4\n        /* \"#utility.yul\":7736:7803   */\n      tag_85\n      jump\t// in\n    tag_176:\n        /* \"#utility.yul\":7729:7803   */\n      swap2\n      pop\n        /* \"#utility.yul\":7812:7905   */\n      tag_177\n        /* \"#utility.yul\":7901:7904   */\n      dup3\n        /* \"#utility.yul\":7812:7905   */\n      tag_94\n      jump\t// in\n    tag_177:\n        /* \"#utility.yul\":7930:7932   */\n      0x40\n        /* \"#utility.yul\":7925:7928   */\n      dup3\n        /* \"#utility.yul\":7921:7933   */\n      add\n        /* \"#utility.yul\":7914:7933   */\n      swap1\n      pop\n        /* \"#utility.yul\":7573:7939   */\n      swap2\n      swap1\n      pop\n      jump\t// out\n        /* \"#utility.yul\":7945:8364   */\n    tag_41:\n        /* \"#utility.yul\":8111:8115   */\n      0x00\n        /* \"#utility.yul\":8149:8151   */\n      0x20\n        /* \"#utility.yul\":8138:8147   */\n      dup3\n        /* \"#utility.yul\":8134:8152   */\n      add\n        /* \"#utility.yul\":8126:8152   */\n      swap1\n      pop\n        /* \"#utility.yul\":8198:8207   */\n      dup2\n        /* \"#utility.yul\":8192:8196   */\n      dup2\n        /* \"#utility.yul\":8188:8208   */\n      sub\n        /* \"#utility.yul\":8184:8185   */\n      0x00\n        /* \"#utility.yul\":8173:8182   */\n      dup4\n        /* \"#utility.yul\":8169:8186   */\n      add\n        /* \"#utility.yul\":8162:8209   */\n      mstore\n        /* \"#utility.yul\":8226:8357   */\n      tag_179\n        /* \"#utility.yul\":8352:8356   */\n      dup2\n        /* \"#utility.yul\":8226:8357   */\n      tag_95\n      jump\t// in\n    tag_179:\n        /* \"#utility.yul\":8218:8357   */\n      swap1\n      pop\n        /* \"#utility.yul\":7945:8364   */\n      swap2\n      swap1\n      pop\n      jump\t// out\n        /* \"#utility.yul\":8370:8590   */\n    tag_96:\n        /* \"#utility.yul\":8510:8544   */\n      0x556e6c6f636b2074696d65206d75737420626520696e20746865206675747572\n        /* \"#utility.yul\":8506:8507   */\n      0x00\n        /* \"#utility.yul\":8498:8504   */\n      dup3\n        /* \"#utility.yul\":8494:8508   */\n      add\n        /* \"#utility.yul\":8487:8545   */\n      mstore\n        /* \"#utility.yul\":8579:8582   */\n      0x6500000000000000000000000000000000000000000000000000000000000000\n        /* \"#utility.yul\":8574:8576   */\n      0x20\n        /* \"#utility.yul\":8566:8572   */\n      dup3\n        /* \"#utility.yul\":8562:8577   */\n      add\n        /* \"#utility.yul\":8555:8583   */\n      mstore\n        /* \"#utility.yul\":8370:8590   */\n      pop\n      jump\t// out\n        /* \"#utility.yul\":8596:8962   */\n    tag_97:\n        /* \"#utility.yul\":8738:8741   */\n      0x00\n        /* \"#utility.yul\":8759:8826   */\n      tag_182\n        /* \"#utility.yul\":8823:8825   */\n      0x21\n        /* \"#utility.yul\":8818:8821   */\n      dup4\n        /* \"#utility.yul\":8759:8826   */\n      tag_85\n      jump\t// in\n    tag_182:\n        /* \"#utility.yul\":8752:8826   */\n      swap2\n      pop\n        /* \"#utility.yul\":8835:8928   */\n      tag_183\n        /* \"#utility.yul\":8924:8927   */\n      dup3\n        /* \"#utility.yul\":8835:8928   */\n      tag_96\n      jump\t// in\n    tag_183:\n        /* \"#utility.yul\":8953:8955   */\n      0x40\n        /* \"#utility.yul\":8948:8951   */\n      dup3\n        /* \"#utility.yul\":8944:8956   */\n      add\n        /* \"#utility.yul\":8937:8956   */\n      swap1\n      pop\n        /* \"#utility.yul\":8596:8962   */\n      swap2\n      swap1\n      pop\n      jump\t// out\n        /* \"#utility.yul\":8968:9387   */\n    tag_45:\n        /* \"#utility.yul\":9134:9138   */\n      0x00\n        /* \"#utility.yul\":9172:9174   */\n      0x20\n        /* \"#utility.yul\":9161:9170   */\n      dup3\n        /* \"#utility.yul\":9157:9175   */\n      add\n        /* \"#utility.yul\":9149:9175   */\n      swap1\n      pop\n        /* \"#utility.yul\":9221:9230   */\n      dup2\n        /* \"#utility.yul\":9215:9219   */\n      dup2\n        /* \"#utility.yul\":9211:9231   */\n      sub\n        /* \"#utility.yul\":9207:9208   */\n      0x00\n        /* \"#utility.yul\":9196:9205   */\n      dup4\n        /* \"#utility.yul\":9192:9209   */\n      add\n        /* \"#utility.yul\":9185:9232   */\n      mstore\n        /* \"#utility.yul\":9249:9380   */\n      tag_185\n        /* \"#utility.yul\":9375:9379   */\n      dup2\n        /* \"#utility.yul\":9249:9380   */\n      tag_97\n      jump\t// in\n    tag_185:\n        /* \"#utility.yul\":9241:9380   */\n      swap1\n      pop\n        /* \"#utility.yul\":8968:9387   */\n      swap2\n      swap1\n      pop\n      jump\t// out\n        /* \"#utility.yul\":9393:9573   */\n    tag_98:\n        /* \"#utility.yul\":9441:9518   */\n      0x4e487b7100000000000000000000000000000000000000000000000000000000\n        /* \"#utility.yul\":9438:9439   */\n      0x00\n        /* \"#utility.yul\":9431:9519   */\n      mstore\n        /* \"#utility.yul\":9538:9542   */\n      0x11\n        /* \"#utility.yul\":9535:9536   */\n      0x04\n        /* \"#utility.yul\":9528:9543   */\n      mstore\n        /* \"#utility.yul\":9562:9566   */\n      0x24\n        /* \"#utility.yul\":9559:9560   */\n      0x00\n        /* \"#utility.yul\":9552:9567   */\n      revert\n        /* \"#utility.yul\":9579:9770   */\n    tag_47:\n        /* \"#utility.yul\":9619:9622   */\n      0x00\n        /* \"#utility.yul\":9638:9658   */\n      tag_188\n        /* \"#utility.yul\":9656:9657   */\n      dup3\n        /* \"#utility.yul\":9638:9658   */\n      tag_78\n      jump\t// in\n    tag_188:\n        /* \"#utility.yul\":9633:9658   */\n      swap2\n      pop\n        /* \"#utility.yul\":9672:9692   */\n      tag_189\n        /* \"#utility.yul\":9690:9691   */\n      dup4\n        /* \"#utility.yul\":9672:9692   */\n      tag_78\n      jump\t// in\n    tag_189:\n        /* \"#utility.yul\":9667:9692   */\n      swap3\n      pop\n        /* \"#utility.yul\":9715:9716   */\n      dup3\n        /* \"#utility.yul\":9712:9713   */\n      dup3\n        /* \"#utility.yul\":9708:9717   */\n      add\n        /* \"#utility.yul\":9701:9717   */\n      swap1\n      pop\n        /* \"#utility.yul\":9736:9739   */\n      dup1\n        /* \"#utility.yul\":9733:9734   */\n      dup3\n        /* \"#utility.yul\":9730:9740   */\n      gt\n        /* \"#utility.yul\":9727:9763   */\n      iszero\n      tag_190\n      jumpi\n        /* \"#utility.yul\":9743:9761   */\n      tag_191\n      tag_98\n      jump\t// in\n    tag_191:\n        /* \"#utility.yul\":9727:9763   */\n    tag_190:\n        /* \"#utility.yul\":9579:9770   */\n      swap3\n      swap2\n      pop\n      pop\n      jump\t// out\n        /* \"#utility.yul\":9776:9996   */\n    tag_99:\n        /* \"#utility.yul\":9916:9950   */\n      0x556e6c6f636b2074696d6520746f6f2066617220696e20746865206675747572\n        /* \"#utility.yul\":9912:9913   */\n      0x00\n        /* \"#utility.yul\":9904:9910   */\n      dup3\n        /* \"#utility.yul\":9900:9914   */\n      add\n        /* \"#utility.yul\":9893:9951   */\n      mstore\n        /* \"#utility.yul\":9985:9988   */\n      0x6500000000000000000000000000000000000000000000000000000000000000\n        /* \"#utility.yul\":9980:9982   */\n      0x20\n        /* \"#utility.yul\":9972:9978   */\n      dup3\n        /* \"#utility.yul\":9968:9983   */\n      add\n        /* \"#utility.yul\":9961:9989   */\n      mstore\n        /* \"#utility.yul\":9776:9996   */\n      pop\n      jump\t// out\n        /* \"#utility.yul\":10002:10368   */\n    tag_100:\n        /* \"#utility.yul\":10144:10147   */\n      0x00\n        /* \"#utility.yul\":10165:10232   */\n      tag_194\n        /* \"#utility.yul\":10229:10231   */\n      0x21\n        /* \"#utility.yul\":10224:10227   */\n      dup4\n        /* \"#utility.yul\":10165:10232   */\n      tag_85\n      jump\t// in\n    tag_194:\n        /* \"#utility.yul\":10158:10232   */\n      swap2\n      pop\n        /* \"#utility.yul\":10241:10334   */\n      tag_195\n        /* \"#utility.yul\":10330:10333   */\n      dup3\n        /* \"#utility.yul\":10241:10334   */\n      tag_99\n      jump\t// in\n    tag_195:\n        /* \"#utility.yul\":10359:10361   */\n      0x40\n        /* \"#utility.yul\":10354:10357   */\n      dup3\n        /* \"#utility.yul\":10350:10362   */\n      add\n        /* \"#utility.yul\":10343:10362   */\n      swap1\n      pop\n        /* \"#utility.yul\":10002:10368   */\n      swap2\n      swap1\n      pop\n      jump\t// out\n        /* \"#utility.yul\":10374:10793   */\n    tag_50:\n        /* \"#utility.yul\":10540:10544   */\n      0x00\n        /* \"#utility.yul\":10578:10580   */\n      0x20\n        /* \"#utility.yul\":10567:10576   */\n      dup3\n        /* \"#utility.yul\":10563:10581   */\n      add\n        /* \"#utility.yul\":10555:10581   */\n      swap1\n      pop\n        /* \"#utility.yul\":10627:10636   */\n      dup2\n        /* \"#utility.yul\":10621:10625   */\n      dup2\n        /* \"#utility.yul\":10617:10637   */\n      sub\n        /* \"#utility.yul\":10613:10614   */\n      0x00\n        /* \"#utility.yul\":10602:10611   */\n      dup4\n        /* \"#utility.yul\":10598:10615   */\n      add\n        /* \"#utility.yul\":10591:10638   */\n      mstore\n        /* \"#utility.yul\":10655:10786   */\n      tag_197\n        /* \"#utility.yul\":10781:10785   */\n      dup2\n        /* \"#utility.yul\":10655:10786   */\n      tag_100\n      jump\t// in\n    tag_197:\n        /* \"#utility.yul\":10647:10786   */\n      swap1\n      pop\n        /* \"#utility.yul\":10374:10793   */\n      swap2\n      swap1\n      pop\n      jump\t// out\n        /* \"#utility.yul\":10799:11021   */\n    tag_52:\n        /* \"#utility.yul\":10892:10896   */\n      0x00\n        /* \"#utility.yul\":10930:10932   */\n      0x20\n        /* \"#utility.yul\":10919:10928   */\n      dup3\n        /* \"#utility.yul\":10915:10933   */\n      add\n        /* \"#utility.yul\":10907:10933   */\n      swap1\n      pop\n        /* \"#utility.yul\":10943:11014   */\n      tag_199\n        /* \"#utility.yul\":11011:11012   */\n      0x00\n        /* \"#utility.yul\":11000:11009   */\n      dup4\n        /* \"#utility.yul\":10996:11013   */\n      add\n        /* \"#utility.yul\":10987:10993   */\n      dup5\n        /* \"#utility.yul\":10943:11014   */\n      tag_82\n      jump\t// in\n    tag_199:\n        /* \"#utility.yul\":10799:11021   */\n      swap3\n      swap2\n      pop\n      pop\n      jump\t// out\n        /* \"#utility.yul\":11027:11126   */\n    tag_101:\n        /* \"#utility.yul\":11079:11085   */\n      0x00\n        /* \"#utility.yul\":11113:11118   */\n      dup2\n        /* \"#utility.yul\":11107:11119   */\n      mload\n        /* \"#utility.yul\":11097:11119   */\n      swap1\n      pop\n        /* \"#utility.yul\":11027:11126   */\n      swap2\n      swap1\n      pop\n      jump\t// out\n        /* \"#utility.yul\":11132:11271   */\n    tag_102:\n        /* \"#utility.yul\":11221:11227   */\n      dup3\n        /* \"#utility.yul\":11216:11219   */\n      dup2\n        /* \"#utility.yul\":11211:11214   */\n      dup4\n        /* \"#utility.yul\":11205:11228   */\n      mcopy\n        /* \"#utility.yul\":11262:11263   */\n      0x00\n        /* \"#utility.yul\":11253:11259   */\n      dup4\n        /* \"#utility.yul\":11248:11251   */\n      dup4\n        /* \"#utility.yul\":11244:11260   */\n      add\n        /* \"#utility.yul\":11237:11264   */\n      mstore\n        /* \"#utility.yul\":11132:11271   */\n      pop\n      pop\n      pop\n      jump\t// out\n        /* \"#utility.yul\":11277:11379   */\n    tag_103:\n        /* \"#utility.yul\":11318:11324   */\n      0x00\n        /* \"#utility.yul\":11369:11371   */\n      0x1f\n        /* \"#utility.yul\":11365:11372   */\n      not\n        /* \"#utility.yul\":11360:11362   */\n      0x1f\n        /* \"#utility.yul\":11353:11358   */\n      dup4\n        /* \"#utility.yul\":11349:11363   */\n      add\n        /* \"#utility.yul\":11345:11373   */\n      and\n        /* \"#utility.yul\":11335:11373   */\n      swap1\n      pop\n        /* \"#utility.yul\":11277:11379   */\n      swap2\n      swap1\n      pop\n      jump\t// out\n        /* \"#utility.yul\":11385:11762   */\n    tag_104:\n        /* \"#utility.yul\":11473:11476   */\n      0x00\n        /* \"#utility.yul\":11501:11540   */\n      tag_204\n        /* \"#utility.yul\":11534:11539   */\n      dup3\n        /* \"#utility.yul\":11501:11540   */\n      tag_101\n      jump\t// in\n    tag_204:\n        /* \"#utility.yul\":11556:11627   */\n      tag_205\n        /* \"#utility.yul\":11620:11626   */\n      dup2\n        /* \"#utility.yul\":11615:11618   */\n      dup6\n        /* \"#utility.yul\":11556:11627   */\n      tag_85\n      jump\t// in\n    tag_205:\n        /* \"#utility.yul\":11549:11627   */\n      swap4\n      pop\n        /* \"#utility.yul\":11636:11701   */\n      tag_206\n        /* \"#utility.yul\":11694:11700   */\n      dup2\n        /* \"#utility.yul\":11689:11692   */\n      dup6\n        /* \"#utility.yul\":11682:11686   */\n      0x20\n        /* \"#utility.yul\":11675:11680   */\n      dup7\n        /* \"#utility.yul\":11671:11687   */\n      add\n        /* \"#utility.yul\":11636:11701   */\n      tag_102\n      jump\t// in\n    tag_206:\n        /* \"#utility.yul\":11726:11755   */\n      tag_207\n        /* \"#utility.yul\":11748:11754   */\n      dup2\n        /* \"#utility.yul\":11726:11755   */\n      tag_103\n      jump\t// in\n    tag_207:\n        /* \"#utility.yul\":11721:11724   */\n      dup5\n        /* \"#utility.yul\":11717:11756   */\n      add\n        /* \"#utility.yul\":11710:11756   */\n      swap2\n      pop\n        /* \"#utility.yul\":11477:11762   */\n      pop\n        /* \"#utility.yul\":11385:11762   */\n      swap3\n      swap2\n      pop\n      pop\n      jump\t// out\n        /* \"#utility.yul\":11768:12081   */\n    tag_66:\n        /* \"#utility.yul\":11881:11885   */\n      0x00\n        /* \"#utility.yul\":11919:11921   */\n      0x20\n        /* \"#utility.yul\":11908:11917   */\n      dup3\n        /* \"#utility.yul\":11904:11922   */\n      add\n        /* \"#utility.yul\":11896:11922   */\n      swap1\n      pop\n        /* \"#utility.yul\":11968:11977   */\n      dup2\n        /* \"#utility.yul\":11962:11966   */\n      dup2\n        /* \"#utility.yul\":11958:11978   */\n      sub\n        /* \"#utility.yul\":11954:11955   */\n      0x00\n        /* \"#utility.yul\":11943:11952   */\n      dup4\n        /* \"#utility.yul\":11939:11956   */\n      add\n        /* \"#utility.yul\":11932:11979   */\n      mstore\n        /* \"#utility.yul\":11996:12074   */\n      tag_209\n        /* \"#utility.yul\":12069:12073   */\n      dup2\n        /* \"#utility.yul\":12060:12066   */\n      dup5\n        /* \"#utility.yul\":11996:12074   */\n      tag_104\n      jump\t// in\n    tag_209:\n        /* \"#utility.yul\":11988:12074   */\n      swap1\n      pop\n        /* \"#utility.yul\":11768:12081   */\n      swap3\n      swap2\n      pop\n      pop\n      jump\t// out\n    stop\n    data_eec7388d566808eda5e6525c521b2bac49f9d49559d365971e42b5f29c33cd86 446563727970746564206d65737361676520286e6f742073746f726564206f6e2d636861696e29\n\n    auxdata: 0xa26469706673582212209ff07c38bec8bac20ba317b419151bc14c555a198eda487e93af38894899a37264736f6c634300081a0033\n}\n",
				"bytecode": {
					"linkReferences": {},
					"object": "60806040525f60015f6101000a81548160ff0219169083151502179055503480156027575f80fd5b50610f00806100355f395ff3fe608060405234801561000f575f80fd5b5060043610610055575f3560e01c80631971186b146100595780635f1eb6fc14610075578063712ef5b11461009157806381f8b8d91461009b578063fcd506ea146100cd575b5f80fd5b610073600480360381019061006e9190610914565b6100ed565b005b61008f600480360381019061008a91906109a5565b6103a4565b005b610099610517565b005b6100b560048036038101906100b09190610914565b6107f1565b6040516100c493929190610a1b565b60405180910390f35b6100d5610822565b6040516100e493929190610a1b565b60405180910390f35b60015f9054906101000a900460ff161561013c576040517f08c379a000000000000000000000000000000000000000000000000000000000815260040161013390610aaa565b60405180910390fd5b6001805f6101000a81548160ff0219169083151502179055505f801b5f808373ffffffffffffffffffffffffffffffffffffffff1673ffffffffffffffffffffffffffffffffffffffff1681526020019081526020015f205f0154036101d7576040517f08c379a00000000000000000000000000000000000000000000000000000000081526004016101ce90610b12565b60405180910390fd5b5f808273ffffffffffffffffffffffffffffffffffffffff1673ffffffffffffffffffffffffffffffffffffffff1681526020019081526020015f206002015f9054906101000a900460ff1615610263576040517f08c379a000000000000000000000000000000000000000000000000000000000815260040161025a90610b7a565b60405180910390fd5b5f808273ffffffffffffffffffffffffffffffffffffffff1673ffffffffffffffffffffffffffffffffffffffff1681526020019081526020015f20600101544210156102e5576040517f08c379a00000000000000000000000000000000000000000000000000000000081526004016102dc90610be2565b60405180910390fd5b60015f808373ffffffffffffffffffffffffffffffffffffffff1673ffffffffffffffffffffffffffffffffffffffff1681526020019081526020015f206002015f6101000a81548160ff0219169083151502179055508073ffffffffffffffffffffffffffffffffffffffff167f4f5c8688c48a76e9662952b8c8d95fd049fb59e2f355b54a215db171f7db89c660405161038090610c70565b60405180910390a25f60015f6101000a81548160ff02191690831515021790555050565b4281116103e6576040517f08c379a00000000000000000000000000000000000000000000000000000000081526004016103dd90610cfe565b60405180910390fd5b6312cc0300426103f69190610d49565b811115610438576040517f08c379a000000000000000000000000000000000000000000000000000000000815260040161042f90610dec565b60405180910390fd5b60405180606001604052808381526020018281526020015f15158152505f803373ffffffffffffffffffffffffffffffffffffffff1673ffffffffffffffffffffffffffffffffffffffff1681526020019081526020015f205f820151815f0155602082015181600101556040820151816002015f6101000a81548160ff0219169083151502179055509050503373ffffffffffffffffffffffffffffffffffffffff167fb6d5a53adf9feebfd8fe1b61c8c721b6be115ea05e7b31f389a6b7a82a6540e38260405161050b9190610e0a565b60405180910390a25050565b5f801b5f803373ffffffffffffffffffffffffffffffffffffffff1673ffffffffffffffffffffffffffffffffffffffff1681526020019081526020015f205f015403610599576040517f08c379a000000000000000000000000000000000000000000000000000000000815260040161059090610b12565b60405180910390fd5b5f803373ffffffffffffffffffffffffffffffffffffffff1673ffffffffffffffffffffffffffffffffffffffff1681526020019081526020015f206001015442101561061b576040517f08c379a000000000000000000000000000000000000000000000000000000000815260040161061290610be2565b60405180910390fd5b5f803373ffffffffffffffffffffffffffffffffffffffff1673ffffffffffffffffffffffffffffffffffffffff1681526020019081526020015f206002015f9054906101000a900460ff16156106a7576040517f08c379a000000000000000000000000000000000000000000000000000000000815260040161069e90610b7a565b60405180910390fd5b60015f9054906101000a900460ff16156106f6576040517f08c379a00000000000000000000000000000000000000000000000000000000081526004016106ed90610aaa565b60405180910390fd5b6001805f6101000a81548160ff0219169083151502179055505f805f3373ffffffffffffffffffffffffffffffffffffffff1673ffffffffffffffffffffffffffffffffffffffff1681526020019081526020015f2090506001816002015f6101000a81548160ff0219169083151502179055505f604051806060016040528060278152602001610ea46027913990503373ffffffffffffffffffffffffffffffffffffffff167f4f5c8688c48a76e9662952b8c8d95fd049fb59e2f355b54a215db171f7db89c6826040516107cc9190610e83565b60405180910390a250505f60015f6101000a81548160ff021916908315150217905550565b5f602052805f5260405f205f91509050805f015490806001015490806002015f9054906101000a900460ff16905083565b5f805f805f803373ffffffffffffffffffffffffffffffffffffffff1673ffffffffffffffffffffffffffffffffffffffff1681526020019081526020015f206040518060600160405290815f820154815260200160018201548152602001600282015f9054906101000a900460ff1615151515815250509050805f01518160200151826040015193509350935050909192565b5f80fd5b5f73ffffffffffffffffffffffffffffffffffffffff82169050919050565b5f6108e3826108ba565b9050919050565b6108f3816108d9565b81146108fd575f80fd5b50565b5f8135905061090e816108ea565b92915050565b5f60208284031215610929576109286108b6565b5b5f61093684828501610900565b91505092915050565b5f819050919050565b6109518161093f565b811461095b575f80fd5b50565b5f8135905061096c81610948565b92915050565b5f819050919050565b61098481610972565b811461098e575f80fd5b50565b5f8135905061099f8161097b565b92915050565b5f80604083850312156109bb576109ba6108b6565b5b5f6109c88582860161095e565b92505060206109d985828601610991565b9150509250929050565b6109ec8161093f565b82525050565b6109fb81610972565b82525050565b5f8115159050919050565b610a1581610a01565b82525050565b5f606082019050610a2e5f8301866109e3565b610a3b60208301856109f2565b610a486040830184610a0c565b949350505050565b5f82825260208201905092915050565b7f4e6f207265656e7472616e637920616c6c6f7765642e000000000000000000005f82015250565b5f610a94601683610a50565b9150610a9f82610a60565b602082019050919050565b5f6020820190508181035f830152610ac181610a88565b9050919050565b7f4e6f2074696d652063617073756c6520666f756e642e000000000000000000005f82015250565b5f610afc601683610a50565b9150610b0782610ac8565b602082019050919050565b5f6020820190508181035f830152610b2981610af0565b9050919050565b7f43617073756c6520616c7265616479206f70656e65642e0000000000000000005f82015250565b5f610b64601783610a50565b9150610b6f82610b30565b602082019050919050565b5f6020820190508181035f830152610b9181610b58565b9050919050565b7f43617073756c65206973207374696c6c206c6f636b65642e00000000000000005f82015250565b5f610bcc601883610a50565b9150610bd782610b98565b602082019050919050565b5f6020820190508181035f830152610bf981610bc0565b9050919050565b7f446563727970746564206d65737361676520286e6f742073746f726564206f6e5f8201527f2d636861696e2900000000000000000000000000000000000000000000000000602082015250565b5f610c5a602783610a50565b9150610c6582610c00565b604082019050919050565b5f6020820190508181035f830152610c8781610c4e565b9050919050565b7f556e6c6f636b2074696d65206d75737420626520696e207468652066757475725f8201527f6500000000000000000000000000000000000000000000000000000000000000602082015250565b5f610ce8602183610a50565b9150610cf382610c8e565b604082019050919050565b5f6020820190508181035f830152610d1581610cdc565b9050919050565b7f4e487b71000000000000000000000000000000000000000000000000000000005f52601160045260245ffd5b5f610d5382610972565b9150610d5e83610972565b9250828201905080821115610d7657610d75610d1c565b5b92915050565b7f556e6c6f636b2074696d6520746f6f2066617220696e207468652066757475725f8201527f6500000000000000000000000000000000000000000000000000000000000000602082015250565b5f610dd6602183610a50565b9150610de182610d7c565b604082019050919050565b5f6020820190508181035f830152610e0381610dca565b9050919050565b5f602082019050610e1d5f8301846109f2565b92915050565b5f81519050919050565b8281835e5f83830152505050565b5f601f19601f8301169050919050565b5f610e5582610e23565b610e5f8185610a50565b9350610e6f818560208601610e2d565b610e7881610e3b565b840191505092915050565b5f6020820190508181035f830152610e9b8184610e4b565b90509291505056fe446563727970746564206d65737361676520286e6f742073746f726564206f6e2d636861696e29a26469706673582212209ff07c38bec8bac20ba317b419151bc14c555a198eda487e93af38894899a37264736f6c634300081a0033",
					"opcodes": "PUSH1 0x80 PUSH1 0x40 MSTORE PUSH0 PUSH1 0x1 PUSH0 PUSH2 0x100 EXP DUP2 SLOAD DUP2 PUSH1 0xFF MUL NOT AND SWAP1 DUP4 ISZERO ISZERO MUL OR SWAP1 SSTORE POP CALLVALUE DUP1 ISZERO PUSH1 0x27 JUMPI PUSH0 DUP1 REVERT JUMPDEST POP PUSH2 0xF00 DUP1 PUSH2 0x35 PUSH0 CODECOPY PUSH0 RETURN INVALID PUSH1 0x80 PUSH1 0x40 MSTORE CALLVALUE DUP1 ISZERO PUSH2 0xF JUMPI PUSH0 DUP1 REVERT JUMPDEST POP PUSH1 0x4 CALLDATASIZE LT PUSH2 0x55 JUMPI PUSH0 CALLDATALOAD PUSH1 0xE0 SHR DUP1 PUSH4 0x1971186B EQ PUSH2 0x59 JUMPI DUP1 PUSH4 0x5F1EB6FC EQ PUSH2 0x75 JUMPI DUP1 PUSH4 0x712EF5B1 EQ PUSH2 0x91 JUMPI DUP1 PUSH4 0x81F8B8D9 EQ PUSH2 0x9B JUMPI DUP1 PUSH4 0xFCD506EA EQ PUSH2 0xCD JUMPI JUMPDEST PUSH0 DUP1 REVERT JUMPDEST PUSH2 0x73 PUSH1 0x4 DUP1 CALLDATASIZE SUB DUP2 ADD SWAP1 PUSH2 0x6E SWAP2 SWAP1 PUSH2 0x914 JUMP JUMPDEST PUSH2 0xED JUMP JUMPDEST STOP JUMPDEST PUSH2 0x8F PUSH1 0x4 DUP1 CALLDATASIZE SUB DUP2 ADD SWAP1 PUSH2 0x8A SWAP2 SWAP1 PUSH2 0x9A5 JUMP JUMPDEST PUSH2 0x3A4 JUMP JUMPDEST STOP JUMPDEST PUSH2 0x99 PUSH2 0x517 JUMP JUMPDEST STOP JUMPDEST PUSH2 0xB5 PUSH1 0x4 DUP1 CALLDATASIZE SUB DUP2 ADD SWAP1 PUSH2 0xB0 SWAP2 SWAP1 PUSH2 0x914 JUMP JUMPDEST PUSH2 0x7F1 JUMP JUMPDEST PUSH1 0x40 MLOAD PUSH2 0xC4 SWAP4 SWAP3 SWAP2 SWAP1 PUSH2 0xA1B JUMP JUMPDEST PUSH1 0x40 MLOAD DUP1 SWAP2 SUB SWAP1 RETURN JUMPDEST PUSH2 0xD5 PUSH2 0x822 JUMP JUMPDEST PUSH1 0x40 MLOAD PUSH2 0xE4 SWAP4 SWAP3 SWAP2 SWAP1 PUSH2 0xA1B JUMP JUMPDEST PUSH1 0x40 MLOAD DUP1 SWAP2 SUB SWAP1 RETURN JUMPDEST PUSH1 0x1 PUSH0 SWAP1 SLOAD SWAP1 PUSH2 0x100 EXP SWAP1 DIV PUSH1 0xFF AND ISZERO PUSH2 0x13C JUMPI PUSH1 0x40 MLOAD PUSH32 0x8C379A000000000000000000000000000000000000000000000000000000000 DUP2 MSTORE PUSH1 0x4 ADD PUSH2 0x133 SWAP1 PUSH2 0xAAA JUMP JUMPDEST PUSH1 0x40 MLOAD DUP1 SWAP2 SUB SWAP1 REVERT JUMPDEST PUSH1 0x1 DUP1 PUSH0 PUSH2 0x100 EXP DUP2 SLOAD DUP2 PUSH1 0xFF MUL NOT AND SWAP1 DUP4 ISZERO ISZERO MUL OR SWAP1 SSTORE POP PUSH0 DUP1 SHL PUSH0 DUP1 DUP4 PUSH20 0xFFFFFFFFFFFFFFFFFFFFFFFFFFFFFFFFFFFFFFFF AND PUSH20 0xFFFFFFFFFFFFFFFFFFFFFFFFFFFFFFFFFFFFFFFF AND DUP2 MSTORE PUSH1 0x20 ADD SWAP1 DUP2 MSTORE PUSH1 0x20 ADD PUSH0 KECCAK256 PUSH0 ADD SLOAD SUB PUSH2 0x1D7 JUMPI PUSH1 0x40 MLOAD PUSH32 0x8C379A000000000000000000000000000000000000000000000000000000000 DUP2 MSTORE PUSH1 0x4 ADD PUSH2 0x1CE SWAP1 PUSH2 0xB12 JUMP JUMPDEST PUSH1 0x40 MLOAD DUP1 SWAP2 SUB SWAP1 REVERT JUMPDEST PUSH0 DUP1 DUP3 PUSH20 0xFFFFFFFFFFFFFFFFFFFFFFFFFFFFFFFFFFFFFFFF AND PUSH20 0xFFFFFFFFFFFFFFFFFFFFFFFFFFFFFFFFFFFFFFFF AND DUP2 MSTORE PUSH1 0x20 ADD SWAP1 DUP2 MSTORE PUSH1 0x20 ADD PUSH0 KECCAK256 PUSH1 0x2 ADD PUSH0 SWAP1 SLOAD SWAP1 PUSH2 0x100 EXP SWAP1 DIV PUSH1 0xFF AND ISZERO PUSH2 0x263 JUMPI PUSH1 0x40 MLOAD PUSH32 0x8C379A000000000000000000000000000000000000000000000000000000000 DUP2 MSTORE PUSH1 0x4 ADD PUSH2 0x25A SWAP1 PUSH2 0xB7A JUMP JUMPDEST PUSH1 0x40 MLOAD DUP1 SWAP2 SUB SWAP1 REVERT JUMPDEST PUSH0 DUP1 DUP3 PUSH20 0xFFFFFFFFFFFFFFFFFFFFFFFFFFFFFFFFFFFFFFFF AND PUSH20 0xFFFFFFFFFFFFFFFFFFFFFFFFFFFFFFFFFFFFFFFF AND DUP2 MSTORE PUSH1 0x20 ADD SWAP1 DUP2 MSTORE PUSH1 0x20 ADD PUSH0 KECCAK256 PUSH1 0x1 ADD SLOAD TIMESTAMP LT ISZERO PUSH2 0x2E5 JUMPI PUSH1 0x40 MLOAD PUSH32 0x8C379A000000000000000000000000000000000000000000000000000000000 DUP2 MSTORE PUSH1 0x4 ADD PUSH2 0x2DC SWAP1 PUSH2 0xBE2 JUMP JUMPDEST PUSH1 0x40 MLOAD DUP1 SWAP2 SUB SWAP1 REVERT JUMPDEST PUSH1 0x1 PUSH0 DUP1 DUP4 PUSH20 0xFFFFFFFFFFFFFFFFFFFFFFFFFFFFFFFFFFFFFFFF AND PUSH20 0xFFFFFFFFFFFFFFFFFFFFFFFFFFFFFFFFFFFFFFFF AND DUP2 MSTORE PUSH1 0x20 ADD SWAP1 DUP2 MSTORE PUSH1 0x20 ADD PUSH0 KECCAK256 PUSH1 0x2 ADD PUSH0 PUSH2 0x100 EXP DUP2 SLOAD DUP2 PUSH1 0xFF MUL NOT AND SWAP1 DUP4 ISZERO ISZERO MUL OR SWAP1 SSTORE POP DUP1 PUSH20 0xFFFFFFFFFFFFFFFFFFFFFFFFFFFFFFFFFFFFFFFF AND PUSH32 0x4F5C8688C48A76E9662952B8C8D95FD049FB59E2F355B54A215DB171F7DB89C6 PUSH1 0x40 MLOAD PUSH2 0x380 SWAP1 PUSH2 0xC70 JUMP JUMPDEST PUSH1 0x40 MLOAD DUP1 SWAP2 SUB SWAP1 LOG2 PUSH0 PUSH1 0x1 PUSH0 PUSH2 0x100 EXP DUP2 SLOAD DUP2 PUSH1 0xFF MUL NOT AND SWAP1 DUP4 ISZERO ISZERO MUL OR SWAP1 SSTORE POP POP JUMP JUMPDEST TIMESTAMP DUP2 GT PUSH2 0x3E6 JUMPI PUSH1 0x40 MLOAD PUSH32 0x8C379A000000000000000000000000000000000000000000000000000000000 DUP2 MSTORE PUSH1 0x4 ADD PUSH2 0x3DD SWAP1 PUSH2 0xCFE JUMP JUMPDEST PUSH1 0x40 MLOAD DUP1 SWAP2 SUB SWAP1 REVERT JUMPDEST PUSH4 0x12CC0300 TIMESTAMP PUSH2 0x3F6 SWAP2 SWAP1 PUSH2 0xD49 JUMP JUMPDEST DUP2 GT ISZERO PUSH2 0x438 JUMPI PUSH1 0x40 MLOAD PUSH32 0x8C379A000000000000000000000000000000000000000000000000000000000 DUP2 MSTORE PUSH1 0x4 ADD PUSH2 0x42F SWAP1 PUSH2 0xDEC JUMP JUMPDEST PUSH1 0x40 MLOAD DUP1 SWAP2 SUB SWAP1 REVERT JUMPDEST PUSH1 0x40 MLOAD DUP1 PUSH1 0x60 ADD PUSH1 0x40 MSTORE DUP1 DUP4 DUP2 MSTORE PUSH1 0x20 ADD DUP3 DUP2 MSTORE PUSH1 0x20 ADD PUSH0 ISZERO ISZERO DUP2 MSTORE POP PUSH0 DUP1 CALLER PUSH20 0xFFFFFFFFFFFFFFFFFFFFFFFFFFFFFFFFFFFFFFFF AND PUSH20 0xFFFFFFFFFFFFFFFFFFFFFFFFFFFFFFFFFFFFFFFF AND DUP2 MSTORE PUSH1 0x20 ADD SWAP1 DUP2 MSTORE PUSH1 0x20 ADD PUSH0 KECCAK256 PUSH0 DUP3 ADD MLOAD DUP2 PUSH0 ADD SSTORE PUSH1 0x20 DUP3 ADD MLOAD DUP2 PUSH1 0x1 ADD SSTORE PUSH1 0x40 DUP3 ADD MLOAD DUP2 PUSH1 0x2 ADD PUSH0 PUSH2 0x100 EXP DUP2 SLOAD DUP2 PUSH1 0xFF MUL NOT AND SWAP1 DUP4 ISZERO ISZERO MUL OR SWAP1 SSTORE POP SWAP1 POP POP CALLER PUSH20 0xFFFFFFFFFFFFFFFFFFFFFFFFFFFFFFFFFFFFFFFF AND PUSH32 0xB6D5A53ADF9FEEBFD8FE1B61C8C721B6BE115EA05E7B31F389A6B7A82A6540E3 DUP3 PUSH1 0x40 MLOAD PUSH2 0x50B SWAP2 SWAP1 PUSH2 0xE0A JUMP JUMPDEST PUSH1 0x40 MLOAD DUP1 SWAP2 SUB SWAP1 LOG2 POP POP JUMP JUMPDEST PUSH0 DUP1 SHL PUSH0 DUP1 CALLER PUSH20 0xFFFFFFFFFFFFFFFFFFFFFFFFFFFFFFFFFFFFFFFF AND PUSH20 0xFFFFFFFFFFFFFFFFFFFFFFFFFFFFFFFFFFFFFFFF AND DUP2 MSTORE PUSH1 0x20 ADD SWAP1 DUP2 MSTORE PUSH1 0x20 ADD PUSH0 KECCAK256 PUSH0 ADD SLOAD SUB PUSH2 0x599 JUMPI PUSH1 0x40 MLOAD PUSH32 0x8C379A000000000000000000000000000000000000000000000000000000000 DUP2 MSTORE PUSH1 0x4 ADD PUSH2 0x590 SWAP1 PUSH2 0xB12 JUMP JUMPDEST PUSH1 0x40 MLOAD DUP1 SWAP2 SUB SWAP1 REVERT JUMPDEST PUSH0 DUP1 CALLER PUSH20 0xFFFFFFFFFFFFFFFFFFFFFFFFFFFFFFFFFFFFFFFF AND PUSH20 0xFFFFFFFFFFFFFFFFFFFFFFFFFFFFFFFFFFFFFFFF AND DUP2 MSTORE PUSH1 0x20 ADD SWAP1 DUP2 MSTORE PUSH1 0x20 ADD PUSH0 KECCAK256 PUSH1 0x1 ADD SLOAD TIMESTAMP LT ISZERO PUSH2 0x61B JUMPI PUSH1 0x40 MLOAD PUSH32 0x8C379A000000000000000000000000000000000000000000000000000000000 DUP2 MSTORE PUSH1 0x4 ADD PUSH2 0x612 SWAP1 PUSH2 0xBE2 JUMP JUMPDEST PUSH1 0x40 MLOAD DUP1 SWAP2 SUB SWAP1 REVERT JUMPDEST PUSH0 DUP1 CALLER PUSH20 0xFFFFFFFFFFFFFFFFFFFFFFFFFFFFFFFFFFFFFFFF AND PUSH20 0xFFFFFFFFFFFFFFFFFFFFFFFFFFFFFFFFFFFFFFFF AND DUP2 MSTORE PUSH1 0x20 ADD SWAP1 DUP2 MSTORE PUSH1 0x20 ADD PUSH0 KECCAK256 PUSH1 0x2 ADD PUSH0 SWAP1 SLOAD SWAP1 PUSH2 0x100 EXP SWAP1 DIV PUSH1 0xFF AND ISZERO PUSH2 0x6A7 JUMPI PUSH1 0x40 MLOAD PUSH32 0x8C379A000000000000000000000000000000000000000000000000000000000 DUP2 MSTORE PUSH1 0x4 ADD PUSH2 0x69E SWAP1 PUSH2 0xB7A JUMP JUMPDEST PUSH1 0x40 MLOAD DUP1 SWAP2 SUB SWAP1 REVERT JUMPDEST PUSH1 0x1 PUSH0 SWAP1 SLOAD SWAP1 PUSH2 0x100 EXP SWAP1 DIV PUSH1 0xFF AND ISZERO PUSH2 0x6F6 JUMPI PUSH1 0x40 MLOAD PUSH32 0x8C379A000000000000000000000000000000000000000000000000000000000 DUP2 MSTORE PUSH1 0x4 ADD PUSH2 0x6ED SWAP1 PUSH2 0xAAA JUMP JUMPDEST PUSH1 0x40 MLOAD DUP1 SWAP2 SUB SWAP1 REVERT JUMPDEST PUSH1 0x1 DUP1 PUSH0 PUSH2 0x100 EXP DUP2 SLOAD DUP2 PUSH1 0xFF MUL NOT AND SWAP1 DUP4 ISZERO ISZERO MUL OR SWAP1 SSTORE POP PUSH0 DUP1 PUSH0 CALLER PUSH20 0xFFFFFFFFFFFFFFFFFFFFFFFFFFFFFFFFFFFFFFFF AND PUSH20 0xFFFFFFFFFFFFFFFFFFFFFFFFFFFFFFFFFFFFFFFF AND DUP2 MSTORE PUSH1 0x20 ADD SWAP1 DUP2 MSTORE PUSH1 0x20 ADD PUSH0 KECCAK256 SWAP1 POP PUSH1 0x1 DUP2 PUSH1 0x2 ADD PUSH0 PUSH2 0x100 EXP DUP2 SLOAD DUP2 PUSH1 0xFF MUL NOT AND SWAP1 DUP4 ISZERO ISZERO MUL OR SWAP1 SSTORE POP PUSH0 PUSH1 0x40 MLOAD DUP1 PUSH1 0x60 ADD PUSH1 0x40 MSTORE DUP1 PUSH1 0x27 DUP2 MSTORE PUSH1 0x20 ADD PUSH2 0xEA4 PUSH1 0x27 SWAP2 CODECOPY SWAP1 POP CALLER PUSH20 0xFFFFFFFFFFFFFFFFFFFFFFFFFFFFFFFFFFFFFFFF AND PUSH32 0x4F5C8688C48A76E9662952B8C8D95FD049FB59E2F355B54A215DB171F7DB89C6 DUP3 PUSH1 0x40 MLOAD PUSH2 0x7CC SWAP2 SWAP1 PUSH2 0xE83 JUMP JUMPDEST PUSH1 0x40 MLOAD DUP1 SWAP2 SUB SWAP1 LOG2 POP POP PUSH0 PUSH1 0x1 PUSH0 PUSH2 0x100 EXP DUP2 SLOAD DUP2 PUSH1 0xFF MUL NOT AND SWAP1 DUP4 ISZERO ISZERO MUL OR SWAP1 SSTORE POP JUMP JUMPDEST PUSH0 PUSH1 0x20 MSTORE DUP1 PUSH0 MSTORE PUSH1 0x40 PUSH0 KECCAK256 PUSH0 SWAP2 POP SWAP1 POP DUP1 PUSH0 ADD SLOAD SWAP1 DUP1 PUSH1 0x1 ADD SLOAD SWAP1 DUP1 PUSH1 0x2 ADD PUSH0 SWAP1 SLOAD SWAP1 PUSH2 0x100 EXP SWAP1 DIV PUSH1 0xFF AND SWAP1 POP DUP4 JUMP JUMPDEST PUSH0 DUP1 PUSH0 DUP1 PUSH0 DUP1 CALLER PUSH20 0xFFFFFFFFFFFFFFFFFFFFFFFFFFFFFFFFFFFFFFFF AND PUSH20 0xFFFFFFFFFFFFFFFFFFFFFFFFFFFFFFFFFFFFFFFF AND DUP2 MSTORE PUSH1 0x20 ADD SWAP1 DUP2 MSTORE PUSH1 0x20 ADD PUSH0 KECCAK256 PUSH1 0x40 MLOAD DUP1 PUSH1 0x60 ADD PUSH1 0x40 MSTORE SWAP1 DUP2 PUSH0 DUP3 ADD SLOAD DUP2 MSTORE PUSH1 0x20 ADD PUSH1 0x1 DUP3 ADD SLOAD DUP2 MSTORE PUSH1 0x20 ADD PUSH1 0x2 DUP3 ADD PUSH0 SWAP1 SLOAD SWAP1 PUSH2 0x100 EXP SWAP1 DIV PUSH1 0xFF AND ISZERO ISZERO ISZERO ISZERO DUP2 MSTORE POP POP SWAP1 POP DUP1 PUSH0 ADD MLOAD DUP2 PUSH1 0x20 ADD MLOAD DUP3 PUSH1 0x40 ADD MLOAD SWAP4 POP SWAP4 POP SWAP4 POP POP SWAP1 SWAP2 SWAP3 JUMP JUMPDEST PUSH0 DUP1 REVERT JUMPDEST PUSH0 PUSH20 0xFFFFFFFFFFFFFFFFFFFFFFFFFFFFFFFFFFFFFFFF DUP3 AND SWAP1 POP SWAP2 SWAP1 POP JUMP JUMPDEST PUSH0 PUSH2 0x8E3 DUP3 PUSH2 0x8BA JUMP JUMPDEST SWAP1 POP SWAP2 SWAP1 POP JUMP JUMPDEST PUSH2 0x8F3 DUP2 PUSH2 0x8D9 JUMP JUMPDEST DUP2 EQ PUSH2 0x8FD JUMPI PUSH0 DUP1 REVERT JUMPDEST POP JUMP JUMPDEST PUSH0 DUP2 CALLDATALOAD SWAP1 POP PUSH2 0x90E DUP2 PUSH2 0x8EA JUMP JUMPDEST SWAP3 SWAP2 POP POP JUMP JUMPDEST PUSH0 PUSH1 0x20 DUP3 DUP5 SUB SLT ISZERO PUSH2 0x929 JUMPI PUSH2 0x928 PUSH2 0x8B6 JUMP JUMPDEST JUMPDEST PUSH0 PUSH2 0x936 DUP5 DUP3 DUP6 ADD PUSH2 0x900 JUMP JUMPDEST SWAP2 POP POP SWAP3 SWAP2 POP POP JUMP JUMPDEST PUSH0 DUP2 SWAP1 POP SWAP2 SWAP1 POP JUMP JUMPDEST PUSH2 0x951 DUP2 PUSH2 0x93F JUMP JUMPDEST DUP2 EQ PUSH2 0x95B JUMPI PUSH0 DUP1 REVERT JUMPDEST POP JUMP JUMPDEST PUSH0 DUP2 CALLDATALOAD SWAP1 POP PUSH2 0x96C DUP2 PUSH2 0x948 JUMP JUMPDEST SWAP3 SWAP2 POP POP JUMP JUMPDEST PUSH0 DUP2 SWAP1 POP SWAP2 SWAP1 POP JUMP JUMPDEST PUSH2 0x984 DUP2 PUSH2 0x972 JUMP JUMPDEST DUP2 EQ PUSH2 0x98E JUMPI PUSH0 DUP1 REVERT JUMPDEST POP JUMP JUMPDEST PUSH0 DUP2 CALLDATALOAD SWAP1 POP PUSH2 0x99F DUP2 PUSH2 0x97B JUMP JUMPDEST SWAP3 SWAP2 POP POP JUMP JUMPDEST PUSH0 DUP1 PUSH1 0x40 DUP4 DUP6 SUB SLT ISZERO PUSH2 0x9BB JUMPI PUSH2 0x9BA PUSH2 0x8B6 JUMP JUMPDEST JUMPDEST PUSH0 PUSH2 0x9C8 DUP6 DUP3 DUP7 ADD PUSH2 0x95E JUMP JUMPDEST SWAP3 POP POP PUSH1 0x20 PUSH2 0x9D9 DUP6 DUP3 DUP7 ADD PUSH2 0x991 JUMP JUMPDEST SWAP2 POP POP SWAP3 POP SWAP3 SWAP1 POP JUMP JUMPDEST PUSH2 0x9EC DUP2 PUSH2 0x93F JUMP JUMPDEST DUP3 MSTORE POP POP JUMP JUMPDEST PUSH2 0x9FB DUP2 PUSH2 0x972 JUMP JUMPDEST DUP3 MSTORE POP POP JUMP JUMPDEST PUSH0 DUP2 ISZERO ISZERO SWAP1 POP SWAP2 SWAP1 POP JUMP JUMPDEST PUSH2 0xA15 DUP2 PUSH2 0xA01 JUMP JUMPDEST DUP3 MSTORE POP POP JUMP JUMPDEST PUSH0 PUSH1 0x60 DUP3 ADD SWAP1 POP PUSH2 0xA2E PUSH0 DUP4 ADD DUP7 PUSH2 0x9E3 JUMP JUMPDEST PUSH2 0xA3B PUSH1 0x20 DUP4 ADD DUP6 PUSH2 0x9F2 JUMP JUMPDEST PUSH2 0xA48 PUSH1 0x40 DUP4 ADD DUP5 PUSH2 0xA0C JUMP JUMPDEST SWAP5 SWAP4 POP POP POP POP JUMP JUMPDEST PUSH0 DUP3 DUP3 MSTORE PUSH1 0x20 DUP3 ADD SWAP1 POP SWAP3 SWAP2 POP POP JUMP JUMPDEST PUSH32 0x4E6F207265656E7472616E637920616C6C6F7765642E00000000000000000000 PUSH0 DUP3 ADD MSTORE POP JUMP JUMPDEST PUSH0 PUSH2 0xA94 PUSH1 0x16 DUP4 PUSH2 0xA50 JUMP JUMPDEST SWAP2 POP PUSH2 0xA9F DUP3 PUSH2 0xA60 JUMP JUMPDEST PUSH1 0x20 DUP3 ADD SWAP1 POP SWAP2 SWAP1 POP JUMP JUMPDEST PUSH0 PUSH1 0x20 DUP3 ADD SWAP1 POP DUP2 DUP2 SUB PUSH0 DUP4 ADD MSTORE PUSH2 0xAC1 DUP2 PUSH2 0xA88 JUMP JUMPDEST SWAP1 POP SWAP2 SWAP1 POP JUMP JUMPDEST PUSH32 0x4E6F2074696D652063617073756C6520666F756E642E00000000000000000000 PUSH0 DUP3 ADD MSTORE POP JUMP JUMPDEST PUSH0 PUSH2 0xAFC PUSH1 0x16 DUP4 PUSH2 0xA50 JUMP JUMPDEST SWAP2 POP PUSH2 0xB07 DUP3 PUSH2 0xAC8 JUMP JUMPDEST PUSH1 0x20 DUP3 ADD SWAP1 POP SWAP2 SWAP1 POP JUMP JUMPDEST PUSH0 PUSH1 0x20 DUP3 ADD SWAP1 POP DUP2 DUP2 SUB PUSH0 DUP4 ADD MSTORE PUSH2 0xB29 DUP2 PUSH2 0xAF0 JUMP JUMPDEST SWAP1 POP SWAP2 SWAP1 POP JUMP JUMPDEST PUSH32 0x43617073756C6520616C7265616479206F70656E65642E000000000000000000 PUSH0 DUP3 ADD MSTORE POP JUMP JUMPDEST PUSH0 PUSH2 0xB64 PUSH1 0x17 DUP4 PUSH2 0xA50 JUMP JUMPDEST SWAP2 POP PUSH2 0xB6F DUP3 PUSH2 0xB30 JUMP JUMPDEST PUSH1 0x20 DUP3 ADD SWAP1 POP SWAP2 SWAP1 POP JUMP JUMPDEST PUSH0 PUSH1 0x20 DUP3 ADD SWAP1 POP DUP2 DUP2 SUB PUSH0 DUP4 ADD MSTORE PUSH2 0xB91 DUP2 PUSH2 0xB58 JUMP JUMPDEST SWAP1 POP SWAP2 SWAP1 POP JUMP JUMPDEST PUSH32 0x43617073756C65206973207374696C6C206C6F636B65642E0000000000000000 PUSH0 DUP3 ADD MSTORE POP JUMP JUMPDEST PUSH0 PUSH2 0xBCC PUSH1 0x18 DUP4 PUSH2 0xA50 JUMP JUMPDEST SWAP2 POP PUSH2 0xBD7 DUP3 PUSH2 0xB98 JUMP JUMPDEST PUSH1 0x20 DUP3 ADD SWAP1 POP SWAP2 SWAP1 POP JUMP JUMPDEST PUSH0 PUSH1 0x20 DUP3 ADD SWAP1 POP DUP2 DUP2 SUB PUSH0 DUP4 ADD MSTORE PUSH2 0xBF9 DUP2 PUSH2 0xBC0 JUMP JUMPDEST SWAP1 POP SWAP2 SWAP1 POP JUMP JUMPDEST PUSH32 0x446563727970746564206D65737361676520286E6F742073746F726564206F6E PUSH0 DUP3 ADD MSTORE PUSH32 0x2D636861696E2900000000000000000000000000000000000000000000000000 PUSH1 0x20 DUP3 ADD MSTORE POP JUMP JUMPDEST PUSH0 PUSH2 0xC5A PUSH1 0x27 DUP4 PUSH2 0xA50 JUMP JUMPDEST SWAP2 POP PUSH2 0xC65 DUP3 PUSH2 0xC00 JUMP JUMPDEST PUSH1 0x40 DUP3 ADD SWAP1 POP SWAP2 SWAP1 POP JUMP JUMPDEST PUSH0 PUSH1 0x20 DUP3 ADD SWAP1 POP DUP2 DUP2 SUB PUSH0 DUP4 ADD MSTORE PUSH2 0xC87 DUP2 PUSH2 0xC4E JUMP JUMPDEST SWAP1 POP SWAP2 SWAP1 POP JUMP JUMPDEST PUSH32 0x556E6C6F636B2074696D65206D75737420626520696E20746865206675747572 PUSH0 DUP3 ADD MSTORE PUSH32 0x6500000000000000000000000000000000000000000000000000000000000000 PUSH1 0x20 DUP3 ADD MSTORE POP JUMP JUMPDEST PUSH0 PUSH2 0xCE8 PUSH1 0x21 DUP4 PUSH2 0xA50 JUMP JUMPDEST SWAP2 POP PUSH2 0xCF3 DUP3 PUSH2 0xC8E JUMP JUMPDEST PUSH1 0x40 DUP3 ADD SWAP1 POP SWAP2 SWAP1 POP JUMP JUMPDEST PUSH0 PUSH1 0x20 DUP3 ADD SWAP1 POP DUP2 DUP2 SUB PUSH0 DUP4 ADD MSTORE PUSH2 0xD15 DUP2 PUSH2 0xCDC JUMP JUMPDEST SWAP1 POP SWAP2 SWAP1 POP JUMP JUMPDEST PUSH32 0x4E487B7100000000000000000000000000000000000000000000000000000000 PUSH0 MSTORE PUSH1 0x11 PUSH1 0x4 MSTORE PUSH1 0x24 PUSH0 REVERT JUMPDEST PUSH0 PUSH2 0xD53 DUP3 PUSH2 0x972 JUMP JUMPDEST SWAP2 POP PUSH2 0xD5E DUP4 PUSH2 0x972 JUMP JUMPDEST SWAP3 POP DUP3 DUP3 ADD SWAP1 POP DUP1 DUP3 GT ISZERO PUSH2 0xD76 JUMPI PUSH2 0xD75 PUSH2 0xD1C JUMP JUMPDEST JUMPDEST SWAP3 SWAP2 POP POP JUMP JUMPDEST PUSH32 0x556E6C6F636B2074696D6520746F6F2066617220696E20746865206675747572 PUSH0 DUP3 ADD MSTORE PUSH32 0x6500000000000000000000000000000000000000000000000000000000000000 PUSH1 0x20 DUP3 ADD MSTORE POP JUMP JUMPDEST PUSH0 PUSH2 0xDD6 PUSH1 0x21 DUP4 PUSH2 0xA50 JUMP JUMPDEST SWAP2 POP PUSH2 0xDE1 DUP3 PUSH2 0xD7C JUMP JUMPDEST PUSH1 0x40 DUP3 ADD SWAP1 POP SWAP2 SWAP1 POP JUMP JUMPDEST PUSH0 PUSH1 0x20 DUP3 ADD SWAP1 POP DUP2 DUP2 SUB PUSH0 DUP4 ADD MSTORE PUSH2 0xE03 DUP2 PUSH2 0xDCA JUMP JUMPDEST SWAP1 POP SWAP2 SWAP1 POP JUMP JUMPDEST PUSH0 PUSH1 0x20 DUP3 ADD SWAP1 POP PUSH2 0xE1D PUSH0 DUP4 ADD DUP5 PUSH2 0x9F2 JUMP JUMPDEST SWAP3 SWAP2 POP POP JUMP JUMPDEST PUSH0 DUP2 MLOAD SWAP1 POP SWAP2 SWAP1 POP JUMP JUMPDEST DUP3 DUP2 DUP4 MCOPY PUSH0 DUP4 DUP4 ADD MSTORE POP POP POP JUMP JUMPDEST PUSH0 PUSH1 0x1F NOT PUSH1 0x1F DUP4 ADD AND SWAP1 POP SWAP2 SWAP1 POP JUMP JUMPDEST PUSH0 PUSH2 0xE55 DUP3 PUSH2 0xE23 JUMP JUMPDEST PUSH2 0xE5F DUP2 DUP6 PUSH2 0xA50 JUMP JUMPDEST SWAP4 POP PUSH2 0xE6F DUP2 DUP6 PUSH1 0x20 DUP7 ADD PUSH2 0xE2D JUMP JUMPDEST PUSH2 0xE78 DUP2 PUSH2 0xE3B JUMP JUMPDEST DUP5 ADD SWAP2 POP POP SWAP3 SWAP2 POP POP JUMP JUMPDEST PUSH0 PUSH1 0x20 DUP3 ADD SWAP1 POP DUP2 DUP2 SUB PUSH0 DUP4 ADD MSTORE PUSH2 0xE9B DUP2 DUP5 PUSH2 0xE4B JUMP JUMPDEST SWAP1 POP SWAP3 SWAP2 POP POP JUMP INVALID PREVRANDAO PUSH6 0x637279707465 PUSH5 0x206D657373 PUSH2 0x6765 KECCAK256 0x28 PUSH15 0x6F742073746F726564206F6E2D6368 PUSH2 0x696E 0x29 LOG2 PUSH5 0x6970667358 0x22 SLT KECCAK256 SWAP16 CREATE PUSH29 0x38BEC8BAC20BA317B419151BC14C555A198EDA487E93AF38894899A372 PUSH5 0x736F6C6343 STOP ADDMOD BYTE STOP CALLER "
				},
				"gasEstimates": {
					"creation": {
						"codeDepositCost": "768000",
						"executionCost": "25062",
						"totalCost": "793062"
					},
					"external": {
						"capsules(address)": "7321",
						"createCapsule(bytes32,uint256)": "infinite",
						"getCapsuleStatus()": "7198",
						"openCapsule()": "infinite",
						"openCapsuleByAnyone(address)": "84617"
					}
				},
				"methodIdentifiers": {
					"capsules(address)": "81f8b8d9",
					"createCapsule(bytes32,uint256)": "5f1eb6fc",
					"getCapsuleStatus()": "fcd506ea",
					"openCapsule()": "712ef5b1",
					"openCapsuleByAnyone(address)": "1971186b"
				}
			},
			"storageLayout": {
				"storage": [
					{
						"astId": 13,
						"contract": "contracts/timecapsule.sol:TimeCapsule",
						"label": "capsules",
						"offset": 0,
						"slot": "0",
						"type": "t_mapping(t_address,t_struct(Capsule)8_storage)"
					},
					{
						"astId": 28,
						"contract": "contracts/timecapsule.sol:TimeCapsule",
						"label": "locked",
						"offset": 0,
						"slot": "1",
						"type": "t_bool"
					}
				],
				"types": {
					"t_address": {
						"encoding": "inplace",
						"label": "address",
						"numberOfBytes": "20"
					},
					"t_bool": {
						"encoding": "inplace",
						"label": "bool",
						"numberOfBytes": "1"
					},
					"t_bytes32": {
						"encoding": "inplace",
						"label": "bytes32",
						"numberOfBytes": "32"
					},
					"t_mapping(t_address,t_struct(Capsule)8_storage)": {
						"encoding": "mapping",
						"key": "t_address",
						"label": "mapping(address => struct TimeCapsule.Capsule)",
						"numberOfBytes": "32",
						"value": "t_struct(Capsule)8_storage"
					},
					"t_struct(Capsule)8_storage": {
						"encoding": "inplace",
						"label": "struct TimeCapsule.Capsule",
						"members": [
							{
								"astId": 3,
								"contract": "contracts/timecapsule.sol:TimeCapsule",
								"label": "messageHash",
								"offset": 0,
								"slot": "0",
								"type": "t_bytes32"
							},
							{
								"astId": 5,
								"contract": "contracts/timecapsule.sol:TimeCapsule",
								"label": "unlockTime",
								"offset": 0,
								"slot": "1",
								"type": "t_uint256"
							},
							{
								"astId": 7,
								"contract": "contracts/timecapsule.sol:TimeCapsule",
								"label": "isOpened",
								"offset": 0,
								"slot": "2",
								"type": "t_bool"
							}
						],
						"numberOfBytes": "96"
					},
					"t_uint256": {
						"encoding": "inplace",
						"label": "uint256",
						"numberOfBytes": "32"
					}
				}
			},
			"userdoc": {
				"kind": "user",
				"methods": {},
				"version": 1
			}
		}
	}
}