{
	"contracts/1_Storage.sol": {
		"TimeCapsule": {
			"abi": [
				{
					"inputs": [
						{
							"internalType": "uint256",
							"name": "_unlockTime",
							"type": "uint256"
						},
						{
							"internalType": "string",
							"name": "_capsuleMessage",
							"type": "string"
						}
					],
					"stateMutability": "nonpayable",
					"type": "constructor"
				},
				{
					"anonymous": false,
					"inputs": [
						{
							"indexed": true,
							"internalType": "address",
							"name": "owner",
							"type": "address"
						},
						{
							"indexed": false,
							"internalType": "uint256",
							"name": "unlockTime",
							"type": "uint256"
						}
					],
					"name": "CapsuleCreated",
					"type": "event"
				},
				{
					"anonymous": false,
					"inputs": [
						{
							"indexed": true,
							"internalType": "address",
							"name": "owner",
							"type": "address"
						},
						{
							"indexed": false,
							"internalType": "uint256",
							"name": "unlockTime",
							"type": "uint256"
						}
					],
					"name": "CapsuleUnlocked",
					"type": "event"
				},
				{
					"inputs": [],
					"name": "capsuleMessage",
					"outputs": [
						{
							"internalType": "string",
							"name": "",
							"type": "string"
						}
					],
					"stateMutability": "view",
					"type": "function"
				},
				{
					"inputs": [],
					"name": "getCapsuleMessage",
					"outputs": [
						{
							"internalType": "string",
							"name": "",
							"type": "string"
						}
					],
					"stateMutability": "view",
					"type": "function"
				},
				{
					"inputs": [],
					"name": "isUnlocked",
					"outputs": [
						{
							"internalType": "bool",
							"name": "",
							"type": "bool"
						}
					],
					"stateMutability": "view",
					"type": "function"
				},
				{
					"inputs": [],
					"name": "owner",
					"outputs": [
						{
							"internalType": "address",
							"name": "",
							"type": "address"
						}
					],
					"stateMutability": "view",
					"type": "function"
				},
				{
					"inputs": [],
					"name": "unlockBeforeMaturity",
					"outputs": [],
					"stateMutability": "nonpayable",
					"type": "function"
				},
				{
					"inputs": [],
					"name": "unlockCapsule",
					"outputs": [],
					"stateMutability": "nonpayable",
					"type": "function"
				},
				{
					"inputs": [],
					"name": "unlockTime",
					"outputs": [
						{
							"internalType": "uint256",
							"name": "",
							"type": "uint256"
						}
					],
					"stateMutability": "view",
					"type": "function"
				}
			],
			"devdoc": {
				"kind": "dev",
				"methods": {},
				"version": 1
			},
			"evm": {
				"assembly": "    /* \"contracts/1_Storage.sol\":57:1799  contract TimeCapsule {... */\n  mstore(0x40, 0x80)\n    /* \"contracts/1_Storage.sol\":345:767  constructor(uint256 _unlockTime, string memory _capsuleMessage) {... */\n  callvalue\n  dup1\n  iszero\n  tag_1\n  jumpi\n  0x00\n  dup1\n  revert\ntag_1:\n  pop\n  mload(0x40)\n  sub(codesize, bytecodeSize)\n  dup1\n  bytecodeSize\n  dup4\n  codecopy\n  dup2\n  dup2\n  add\n  0x40\n  mstore\n  dup2\n  add\n  swap1\n  tag_2\n  swap2\n  swap1\n  tag_3\n  jump\t// in\ntag_2:\n    /* \"contracts/1_Storage.sol\":441:456  block.timestamp */\n  timestamp\n    /* \"contracts/1_Storage.sol\":427:438  _unlockTime */\n  dup3\n    /* \"contracts/1_Storage.sol\":427:456  _unlockTime > block.timestamp */\n  gt\n    /* \"contracts/1_Storage.sol\":419:494  require(_unlockTime > block.timestamp, \"Unlock time must be in the future\") */\n  tag_6\n  jumpi\n  mload(0x40)\n  0x08c379a000000000000000000000000000000000000000000000000000000000\n  dup2\n  mstore\n  0x04\n  add\n  tag_7\n  swap1\n  tag_8\n  jump\t// in\ntag_7:\n  mload(0x40)\n  dup1\n  swap2\n  sub\n  swap1\n  revert\ntag_6:\n    /* \"contracts/1_Storage.sol\":544:545  0 */\n  0x00\n    /* \"contracts/1_Storage.sol\":518:533  _capsuleMessage */\n  dup2\n    /* \"contracts/1_Storage.sol\":512:541  bytes(_capsuleMessage).length */\n  mload\n    /* \"contracts/1_Storage.sol\":512:545  bytes(_capsuleMessage).length > 0 */\n  gt\n    /* \"contracts/1_Storage.sol\":504:573  require(bytes(_capsuleMessage).length > 0, \"Message cannot be empty\") */\n  tag_9\n  jumpi\n  mload(0x40)\n  0x08c379a000000000000000000000000000000000000000000000000000000000\n  dup2\n  mstore\n  0x04\n  add\n  tag_10\n  swap1\n  tag_11\n  jump\t// in\ntag_10:\n  mload(0x40)\n  dup1\n  swap2\n  sub\n  swap1\n  revert\ntag_9:\n    /* \"contracts/1_Storage.sol\":592:602  msg.sender */\n  caller\n    /* \"contracts/1_Storage.sol\":584:589  owner */\n  0x00\n  dup1\n    /* \"contracts/1_Storage.sol\":584:602  owner = msg.sender */\n  0x0100\n  exp\n  dup2\n  sload\n  dup2\n  0xffffffffffffffffffffffffffffffffffffffff\n  mul\n  not\n  and\n  swap1\n  dup4\n  0xffffffffffffffffffffffffffffffffffffffff\n  and\n  mul\n  or\n  swap1\n  sstore\n  pop\n    /* \"contracts/1_Storage.sol\":625:636  _unlockTime */\n  dup2\n    /* \"contracts/1_Storage.sol\":612:622  unlockTime */\n  0x01\n    /* \"contracts/1_Storage.sol\":612:636  unlockTime = _unlockTime */\n  dup2\n  swap1\n  sstore\n  pop\n    /* \"contracts/1_Storage.sol\":663:678  _capsuleMessage */\n  dup1\n    /* \"contracts/1_Storage.sol\":646:660  capsuleMessage */\n  0x02\n    /* \"contracts/1_Storage.sol\":646:678  capsuleMessage = _capsuleMessage */\n  swap1\n  dup2\n  tag_12\n  swap2\n  swap1\n  tag_13\n  jump\t// in\ntag_12:\n  pop\n    /* \"contracts/1_Storage.sol\":701:706  false */\n  0x00\n    /* \"contracts/1_Storage.sol\":688:698  isUnlocked */\n  0x03\n  0x00\n    /* \"contracts/1_Storage.sol\":688:706  isUnlocked = false */\n  0x0100\n  exp\n  dup2\n  sload\n  dup2\n  0xff\n  mul\n  not\n  and\n  swap1\n  dup4\n  iszero\n  iszero\n  mul\n  or\n  swap1\n  sstore\n  pop\n    /* \"contracts/1_Storage.sol\":736:746  msg.sender */\n  caller\n    /* \"contracts/1_Storage.sol\":721:760  CapsuleCreated(msg.sender, _unlockTime) */\n  0xffffffffffffffffffffffffffffffffffffffff\n  and\n  0xb6d5a53adf9feebfd8fe1b61c8c721b6be115ea05e7b31f389a6b7a82a6540e3\n    /* \"contracts/1_Storage.sol\":748:759  _unlockTime */\n  dup4\n    /* \"contracts/1_Storage.sol\":721:760  CapsuleCreated(msg.sender, _unlockTime) */\n  mload(0x40)\n  tag_14\n  swap2\n  swap1\n  tag_15\n  jump\t// in\ntag_14:\n  mload(0x40)\n  dup1\n  swap2\n  sub\n  swap1\n  log2\n    /* \"contracts/1_Storage.sol\":345:767  constructor(uint256 _unlockTime, string memory _capsuleMessage) {... */\n  pop\n  pop\n    /* \"contracts/1_Storage.sol\":57:1799  contract TimeCapsule {... */\n  jump(tag_16)\n    /* \"#utility.yul\":7:82   */\ntag_17:\n    /* \"#utility.yul\":40:46   */\n  0x00\n    /* \"#utility.yul\":73:75   */\n  0x40\n    /* \"#utility.yul\":67:76   */\n  mload\n    /* \"#utility.yul\":57:76   */\n  swap1\n  pop\n    /* \"#utility.yul\":7:82   */\n  swap1\n  jump\t// out\n    /* \"#utility.yul\":88:205   */\ntag_18:\n    /* \"#utility.yul\":197:198   */\n  0x00\n    /* \"#utility.yul\":194:195   */\n  dup1\n    /* \"#utility.yul\":187:199   */\n  revert\n    /* \"#utility.yul\":211:328   */\ntag_19:\n    /* \"#utility.yul\":320:321   */\n  0x00\n    /* \"#utility.yul\":317:318   */\n  dup1\n    /* \"#utility.yul\":310:322   */\n  revert\n    /* \"#utility.yul\":334:411   */\ntag_20:\n    /* \"#utility.yul\":371:378   */\n  0x00\n    /* \"#utility.yul\":400:405   */\n  dup2\n    /* \"#utility.yul\":389:405   */\n  swap1\n  pop\n    /* \"#utility.yul\":334:411   */\n  swap2\n  swap1\n  pop\n  jump\t// out\n    /* \"#utility.yul\":417:539   */\ntag_21:\n    /* \"#utility.yul\":490:514   */\n  tag_63\n    /* \"#utility.yul\":508:513   */\n  dup2\n    /* \"#utility.yul\":490:514   */\n  tag_20\n  jump\t// in\ntag_63:\n    /* \"#utility.yul\":483:488   */\n  dup2\n    /* \"#utility.yul\":480:515   */\n  eq\n    /* \"#utility.yul\":470:533   */\n  tag_64\n  jumpi\n    /* \"#utility.yul\":529:530   */\n  0x00\n    /* \"#utility.yul\":526:527   */\n  dup1\n    /* \"#utility.yul\":519:531   */\n  revert\n    /* \"#utility.yul\":470:533   */\ntag_64:\n    /* \"#utility.yul\":417:539   */\n  pop\n  jump\t// out\n    /* \"#utility.yul\":545:688   */\ntag_22:\n    /* \"#utility.yul\":602:607   */\n  0x00\n    /* \"#utility.yul\":633:639   */\n  dup2\n    /* \"#utility.yul\":627:640   */\n  mload\n    /* \"#utility.yul\":618:640   */\n  swap1\n  pop\n    /* \"#utility.yul\":649:682   */\n  tag_66\n    /* \"#utility.yul\":676:681   */\n  dup2\n    /* \"#utility.yul\":649:682   */\n  tag_21\n  jump\t// in\ntag_66:\n    /* \"#utility.yul\":545:688   */\n  swap3\n  swap2\n  pop\n  pop\n  jump\t// out\n    /* \"#utility.yul\":694:811   */\ntag_23:\n    /* \"#utility.yul\":803:804   */\n  0x00\n    /* \"#utility.yul\":800:801   */\n  dup1\n    /* \"#utility.yul\":793:805   */\n  revert\n    /* \"#utility.yul\":817:934   */\ntag_24:\n    /* \"#utility.yul\":926:927   */\n  0x00\n    /* \"#utility.yul\":923:924   */\n  dup1\n    /* \"#utility.yul\":916:928   */\n  revert\n    /* \"#utility.yul\":940:1042   */\ntag_25:\n    /* \"#utility.yul\":981:987   */\n  0x00\n    /* \"#utility.yul\":1032:1034   */\n  0x1f\n    /* \"#utility.yul\":1028:1035   */\n  not\n    /* \"#utility.yul\":1023:1025   */\n  0x1f\n    /* \"#utility.yul\":1016:1021   */\n  dup4\n    /* \"#utility.yul\":1012:1026   */\n  add\n    /* \"#utility.yul\":1008:1036   */\n  and\n    /* \"#utility.yul\":998:1036   */\n  swap1\n  pop\n    /* \"#utility.yul\":940:1042   */\n  swap2\n  swap1\n  pop\n  jump\t// out\n    /* \"#utility.yul\":1048:1228   */\ntag_26:\n    /* \"#utility.yul\":1096:1173   */\n  0x4e487b7100000000000000000000000000000000000000000000000000000000\n    /* \"#utility.yul\":1093:1094   */\n  0x00\n    /* \"#utility.yul\":1086:1174   */\n  mstore\n    /* \"#utility.yul\":1193:1197   */\n  0x41\n    /* \"#utility.yul\":1190:1191   */\n  0x04\n    /* \"#utility.yul\":1183:1198   */\n  mstore\n    /* \"#utility.yul\":1217:1221   */\n  0x24\n    /* \"#utility.yul\":1214:1215   */\n  0x00\n    /* \"#utility.yul\":1207:1222   */\n  revert\n    /* \"#utility.yul\":1234:1515   */\ntag_27:\n    /* \"#utility.yul\":1317:1344   */\n  tag_72\n    /* \"#utility.yul\":1339:1343   */\n  dup3\n    /* \"#utility.yul\":1317:1344   */\n  tag_25\n  jump\t// in\ntag_72:\n    /* \"#utility.yul\":1309:1315   */\n  dup2\n    /* \"#utility.yul\":1305:1345   */\n  add\n    /* \"#utility.yul\":1447:1453   */\n  dup2\n    /* \"#utility.yul\":1435:1445   */\n  dup2\n    /* \"#utility.yul\":1432:1454   */\n  lt\n    /* \"#utility.yul\":1411:1429   */\n  0xffffffffffffffff\n    /* \"#utility.yul\":1399:1409   */\n  dup3\n    /* \"#utility.yul\":1396:1430   */\n  gt\n    /* \"#utility.yul\":1393:1455   */\n  or\n    /* \"#utility.yul\":1390:1478   */\n  iszero\n  tag_73\n  jumpi\n    /* \"#utility.yul\":1458:1476   */\n  tag_74\n  tag_26\n  jump\t// in\ntag_74:\n    /* \"#utility.yul\":1390:1478   */\ntag_73:\n    /* \"#utility.yul\":1498:1508   */\n  dup1\n    /* \"#utility.yul\":1494:1496   */\n  0x40\n    /* \"#utility.yul\":1487:1509   */\n  mstore\n    /* \"#utility.yul\":1277:1515   */\n  pop\n    /* \"#utility.yul\":1234:1515   */\n  pop\n  pop\n  jump\t// out\n    /* \"#utility.yul\":1521:1650   */\ntag_28:\n    /* \"#utility.yul\":1555:1561   */\n  0x00\n    /* \"#utility.yul\":1582:1602   */\n  tag_76\n  tag_17\n  jump\t// in\ntag_76:\n    /* \"#utility.yul\":1572:1602   */\n  swap1\n  pop\n    /* \"#utility.yul\":1611:1644   */\n  tag_77\n    /* \"#utility.yul\":1639:1643   */\n  dup3\n    /* \"#utility.yul\":1631:1637   */\n  dup3\n    /* \"#utility.yul\":1611:1644   */\n  tag_27\n  jump\t// in\ntag_77:\n    /* \"#utility.yul\":1521:1650   */\n  swap2\n  swap1\n  pop\n  jump\t// out\n    /* \"#utility.yul\":1656:1964   */\ntag_29:\n    /* \"#utility.yul\":1718:1722   */\n  0x00\n    /* \"#utility.yul\":1808:1826   */\n  0xffffffffffffffff\n    /* \"#utility.yul\":1800:1806   */\n  dup3\n    /* \"#utility.yul\":1797:1827   */\n  gt\n    /* \"#utility.yul\":1794:1850   */\n  iszero\n  tag_79\n  jumpi\n    /* \"#utility.yul\":1830:1848   */\n  tag_80\n  tag_26\n  jump\t// in\ntag_80:\n    /* \"#utility.yul\":1794:1850   */\ntag_79:\n    /* \"#utility.yul\":1868:1897   */\n  tag_81\n    /* \"#utility.yul\":1890:1896   */\n  dup3\n    /* \"#utility.yul\":1868:1897   */\n  tag_25\n  jump\t// in\ntag_81:\n    /* \"#utility.yul\":1860:1897   */\n  swap1\n  pop\n    /* \"#utility.yul\":1952:1956   */\n  0x20\n    /* \"#utility.yul\":1946:1950   */\n  dup2\n    /* \"#utility.yul\":1942:1957   */\n  add\n    /* \"#utility.yul\":1934:1957   */\n  swap1\n  pop\n    /* \"#utility.yul\":1656:1964   */\n  swap2\n  swap1\n  pop\n  jump\t// out\n    /* \"#utility.yul\":1970:2109   */\ntag_30:\n    /* \"#utility.yul\":2059:2065   */\n  dup3\n    /* \"#utility.yul\":2054:2057   */\n  dup2\n    /* \"#utility.yul\":2049:2052   */\n  dup4\n    /* \"#utility.yul\":2043:2066   */\n  mcopy\n    /* \"#utility.yul\":2100:2101   */\n  0x00\n    /* \"#utility.yul\":2091:2097   */\n  dup4\n    /* \"#utility.yul\":2086:2089   */\n  dup4\n    /* \"#utility.yul\":2082:2098   */\n  add\n    /* \"#utility.yul\":2075:2102   */\n  mstore\n    /* \"#utility.yul\":1970:2109   */\n  pop\n  pop\n  pop\n  jump\t// out\n    /* \"#utility.yul\":2115:2549   */\ntag_31:\n    /* \"#utility.yul\":2204:2209   */\n  0x00\n    /* \"#utility.yul\":2229:2295   */\n  tag_84\n    /* \"#utility.yul\":2245:2294   */\n  tag_85\n    /* \"#utility.yul\":2287:2293   */\n  dup5\n    /* \"#utility.yul\":2245:2294   */\n  tag_29\n  jump\t// in\ntag_85:\n    /* \"#utility.yul\":2229:2295   */\n  tag_28\n  jump\t// in\ntag_84:\n    /* \"#utility.yul\":2220:2295   */\n  swap1\n  pop\n    /* \"#utility.yul\":2318:2324   */\n  dup3\n    /* \"#utility.yul\":2311:2316   */\n  dup2\n    /* \"#utility.yul\":2304:2325   */\n  mstore\n    /* \"#utility.yul\":2356:2360   */\n  0x20\n    /* \"#utility.yul\":2349:2354   */\n  dup2\n    /* \"#utility.yul\":2345:2361   */\n  add\n    /* \"#utility.yul\":2394:2397   */\n  dup5\n    /* \"#utility.yul\":2385:2391   */\n  dup5\n    /* \"#utility.yul\":2380:2383   */\n  dup5\n    /* \"#utility.yul\":2376:2392   */\n  add\n    /* \"#utility.yul\":2373:2398   */\n  gt\n    /* \"#utility.yul\":2370:2482   */\n  iszero\n  tag_86\n  jumpi\n    /* \"#utility.yul\":2401:2480   */\n  tag_87\n  tag_24\n  jump\t// in\ntag_87:\n    /* \"#utility.yul\":2370:2482   */\ntag_86:\n    /* \"#utility.yul\":2491:2543   */\n  tag_88\n    /* \"#utility.yul\":2536:2542   */\n  dup5\n    /* \"#utility.yul\":2531:2534   */\n  dup3\n    /* \"#utility.yul\":2526:2529   */\n  dup6\n    /* \"#utility.yul\":2491:2543   */\n  tag_30\n  jump\t// in\ntag_88:\n    /* \"#utility.yul\":2210:2549   */\n  pop\n    /* \"#utility.yul\":2115:2549   */\n  swap4\n  swap3\n  pop\n  pop\n  pop\n  jump\t// out\n    /* \"#utility.yul\":2569:2924   */\ntag_32:\n    /* \"#utility.yul\":2636:2641   */\n  0x00\n    /* \"#utility.yul\":2685:2688   */\n  dup3\n    /* \"#utility.yul\":2678:2682   */\n  0x1f\n    /* \"#utility.yul\":2670:2676   */\n  dup4\n    /* \"#utility.yul\":2666:2683   */\n  add\n    /* \"#utility.yul\":2662:2689   */\n  slt\n    /* \"#utility.yul\":2652:2774   */\n  tag_90\n  jumpi\n    /* \"#utility.yul\":2693:2772   */\n  tag_91\n  tag_23\n  jump\t// in\ntag_91:\n    /* \"#utility.yul\":2652:2774   */\ntag_90:\n    /* \"#utility.yul\":2803:2809   */\n  dup2\n    /* \"#utility.yul\":2797:2810   */\n  mload\n    /* \"#utility.yul\":2828:2918   */\n  tag_92\n    /* \"#utility.yul\":2914:2917   */\n  dup5\n    /* \"#utility.yul\":2906:2912   */\n  dup3\n    /* \"#utility.yul\":2899:2903   */\n  0x20\n    /* \"#utility.yul\":2891:2897   */\n  dup7\n    /* \"#utility.yul\":2887:2904   */\n  add\n    /* \"#utility.yul\":2828:2918   */\n  tag_31\n  jump\t// in\ntag_92:\n    /* \"#utility.yul\":2819:2918   */\n  swap2\n  pop\n    /* \"#utility.yul\":2642:2924   */\n  pop\n    /* \"#utility.yul\":2569:2924   */\n  swap3\n  swap2\n  pop\n  pop\n  jump\t// out\n    /* \"#utility.yul\":2930:3610   */\ntag_3:\n    /* \"#utility.yul\":3019:3025   */\n  0x00\n    /* \"#utility.yul\":3027:3033   */\n  dup1\n    /* \"#utility.yul\":3076:3078   */\n  0x40\n    /* \"#utility.yul\":3064:3073   */\n  dup4\n    /* \"#utility.yul\":3055:3062   */\n  dup6\n    /* \"#utility.yul\":3051:3074   */\n  sub\n    /* \"#utility.yul\":3047:3079   */\n  slt\n    /* \"#utility.yul\":3044:3163   */\n  iszero\n  tag_94\n  jumpi\n    /* \"#utility.yul\":3082:3161   */\n  tag_95\n  tag_18\n  jump\t// in\ntag_95:\n    /* \"#utility.yul\":3044:3163   */\ntag_94:\n    /* \"#utility.yul\":3202:3203   */\n  0x00\n    /* \"#utility.yul\":3227:3291   */\n  tag_96\n    /* \"#utility.yul\":3283:3290   */\n  dup6\n    /* \"#utility.yul\":3274:3280   */\n  dup3\n    /* \"#utility.yul\":3263:3272   */\n  dup7\n    /* \"#utility.yul\":3259:3281   */\n  add\n    /* \"#utility.yul\":3227:3291   */\n  tag_22\n  jump\t// in\ntag_96:\n    /* \"#utility.yul\":3217:3291   */\n  swap3\n  pop\n    /* \"#utility.yul\":3173:3301   */\n  pop\n    /* \"#utility.yul\":3361:3363   */\n  0x20\n    /* \"#utility.yul\":3350:3359   */\n  dup4\n    /* \"#utility.yul\":3346:3364   */\n  add\n    /* \"#utility.yul\":3340:3365   */\n  mload\n    /* \"#utility.yul\":3392:3410   */\n  0xffffffffffffffff\n    /* \"#utility.yul\":3384:3390   */\n  dup2\n    /* \"#utility.yul\":3381:3411   */\n  gt\n    /* \"#utility.yul\":3378:3495   */\n  iszero\n  tag_97\n  jumpi\n    /* \"#utility.yul\":3414:3493   */\n  tag_98\n  tag_19\n  jump\t// in\ntag_98:\n    /* \"#utility.yul\":3378:3495   */\ntag_97:\n    /* \"#utility.yul\":3519:3593   */\n  tag_99\n    /* \"#utility.yul\":3585:3592   */\n  dup6\n    /* \"#utility.yul\":3576:3582   */\n  dup3\n    /* \"#utility.yul\":3565:3574   */\n  dup7\n    /* \"#utility.yul\":3561:3583   */\n  add\n    /* \"#utility.yul\":3519:3593   */\n  tag_32\n  jump\t// in\ntag_99:\n    /* \"#utility.yul\":3509:3593   */\n  swap2\n  pop\n    /* \"#utility.yul\":3311:3603   */\n  pop\n    /* \"#utility.yul\":2930:3610   */\n  swap3\n  pop\n  swap3\n  swap1\n  pop\n  jump\t// out\n    /* \"#utility.yul\":3616:3785   */\ntag_33:\n    /* \"#utility.yul\":3700:3711   */\n  0x00\n    /* \"#utility.yul\":3734:3740   */\n  dup3\n    /* \"#utility.yul\":3729:3732   */\n  dup3\n    /* \"#utility.yul\":3722:3741   */\n  mstore\n    /* \"#utility.yul\":3774:3778   */\n  0x20\n    /* \"#utility.yul\":3769:3772   */\n  dup3\n    /* \"#utility.yul\":3765:3779   */\n  add\n    /* \"#utility.yul\":3750:3779   */\n  swap1\n  pop\n    /* \"#utility.yul\":3616:3785   */\n  swap3\n  swap2\n  pop\n  pop\n  jump\t// out\n    /* \"#utility.yul\":3791:4011   */\ntag_34:\n    /* \"#utility.yul\":3931:3965   */\n  0x556e6c6f636b2074696d65206d75737420626520696e20746865206675747572\n    /* \"#utility.yul\":3927:3928   */\n  0x00\n    /* \"#utility.yul\":3919:3925   */\n  dup3\n    /* \"#utility.yul\":3915:3929   */\n  add\n    /* \"#utility.yul\":3908:3966   */\n  mstore\n    /* \"#utility.yul\":4000:4003   */\n  0x6500000000000000000000000000000000000000000000000000000000000000\n    /* \"#utility.yul\":3995:3997   */\n  0x20\n    /* \"#utility.yul\":3987:3993   */\n  dup3\n    /* \"#utility.yul\":3983:3998   */\n  add\n    /* \"#utility.yul\":3976:4004   */\n  mstore\n    /* \"#utility.yul\":3791:4011   */\n  pop\n  jump\t// out\n    /* \"#utility.yul\":4017:4383   */\ntag_35:\n    /* \"#utility.yul\":4159:4162   */\n  0x00\n    /* \"#utility.yul\":4180:4247   */\n  tag_103\n    /* \"#utility.yul\":4244:4246   */\n  0x21\n    /* \"#utility.yul\":4239:4242   */\n  dup4\n    /* \"#utility.yul\":4180:4247   */\n  tag_33\n  jump\t// in\ntag_103:\n    /* \"#utility.yul\":4173:4247   */\n  swap2\n  pop\n    /* \"#utility.yul\":4256:4349   */\n  tag_104\n    /* \"#utility.yul\":4345:4348   */\n  dup3\n    /* \"#utility.yul\":4256:4349   */\n  tag_34\n  jump\t// in\ntag_104:\n    /* \"#utility.yul\":4374:4376   */\n  0x40\n    /* \"#utility.yul\":4369:4372   */\n  dup3\n    /* \"#utility.yul\":4365:4377   */\n  add\n    /* \"#utility.yul\":4358:4377   */\n  swap1\n  pop\n    /* \"#utility.yul\":4017:4383   */\n  swap2\n  swap1\n  pop\n  jump\t// out\n    /* \"#utility.yul\":4389:4808   */\ntag_8:\n    /* \"#utility.yul\":4555:4559   */\n  0x00\n    /* \"#utility.yul\":4593:4595   */\n  0x20\n    /* \"#utility.yul\":4582:4591   */\n  dup3\n    /* \"#utility.yul\":4578:4596   */\n  add\n    /* \"#utility.yul\":4570:4596   */\n  swap1\n  pop\n    /* \"#utility.yul\":4642:4651   */\n  dup2\n    /* \"#utility.yul\":4636:4640   */\n  dup2\n    /* \"#utility.yul\":4632:4652   */\n  sub\n    /* \"#utility.yul\":4628:4629   */\n  0x00\n    /* \"#utility.yul\":4617:4626   */\n  dup4\n    /* \"#utility.yul\":4613:4630   */\n  add\n    /* \"#utility.yul\":4606:4653   */\n  mstore\n    /* \"#utility.yul\":4670:4801   */\n  tag_106\n    /* \"#utility.yul\":4796:4800   */\n  dup2\n    /* \"#utility.yul\":4670:4801   */\n  tag_35\n  jump\t// in\ntag_106:\n    /* \"#utility.yul\":4662:4801   */\n  swap1\n  pop\n    /* \"#utility.yul\":4389:4808   */\n  swap2\n  swap1\n  pop\n  jump\t// out\n    /* \"#utility.yul\":4814:4987   */\ntag_36:\n    /* \"#utility.yul\":4954:4979   */\n  0x4d6573736167652063616e6e6f7420626520656d707479000000000000000000\n    /* \"#utility.yul\":4950:4951   */\n  0x00\n    /* \"#utility.yul\":4942:4948   */\n  dup3\n    /* \"#utility.yul\":4938:4952   */\n  add\n    /* \"#utility.yul\":4931:4980   */\n  mstore\n    /* \"#utility.yul\":4814:4987   */\n  pop\n  jump\t// out\n    /* \"#utility.yul\":4993:5359   */\ntag_37:\n    /* \"#utility.yul\":5135:5138   */\n  0x00\n    /* \"#utility.yul\":5156:5223   */\n  tag_109\n    /* \"#utility.yul\":5220:5222   */\n  0x17\n    /* \"#utility.yul\":5215:5218   */\n  dup4\n    /* \"#utility.yul\":5156:5223   */\n  tag_33\n  jump\t// in\ntag_109:\n    /* \"#utility.yul\":5149:5223   */\n  swap2\n  pop\n    /* \"#utility.yul\":5232:5325   */\n  tag_110\n    /* \"#utility.yul\":5321:5324   */\n  dup3\n    /* \"#utility.yul\":5232:5325   */\n  tag_36\n  jump\t// in\ntag_110:\n    /* \"#utility.yul\":5350:5352   */\n  0x20\n    /* \"#utility.yul\":5345:5348   */\n  dup3\n    /* \"#utility.yul\":5341:5353   */\n  add\n    /* \"#utility.yul\":5334:5353   */\n  swap1\n  pop\n    /* \"#utility.yul\":4993:5359   */\n  swap2\n  swap1\n  pop\n  jump\t// out\n    /* \"#utility.yul\":5365:5784   */\ntag_11:\n    /* \"#utility.yul\":5531:5535   */\n  0x00\n    /* \"#utility.yul\":5569:5571   */\n  0x20\n    /* \"#utility.yul\":5558:5567   */\n  dup3\n    /* \"#utility.yul\":5554:5572   */\n  add\n    /* \"#utility.yul\":5546:5572   */\n  swap1\n  pop\n    /* \"#utility.yul\":5618:5627   */\n  dup2\n    /* \"#utility.yul\":5612:5616   */\n  dup2\n    /* \"#utility.yul\":5608:5628   */\n  sub\n    /* \"#utility.yul\":5604:5605   */\n  0x00\n    /* \"#utility.yul\":5593:5602   */\n  dup4\n    /* \"#utility.yul\":5589:5606   */\n  add\n    /* \"#utility.yul\":5582:5629   */\n  mstore\n    /* \"#utility.yul\":5646:5777   */\n  tag_112\n    /* \"#utility.yul\":5772:5776   */\n  dup2\n    /* \"#utility.yul\":5646:5777   */\n  tag_37\n  jump\t// in\ntag_112:\n    /* \"#utility.yul\":5638:5777   */\n  swap1\n  pop\n    /* \"#utility.yul\":5365:5784   */\n  swap2\n  swap1\n  pop\n  jump\t// out\n    /* \"#utility.yul\":5790:5889   */\ntag_38:\n    /* \"#utility.yul\":5842:5848   */\n  0x00\n    /* \"#utility.yul\":5876:5881   */\n  dup2\n    /* \"#utility.yul\":5870:5882   */\n  mload\n    /* \"#utility.yul\":5860:5882   */\n  swap1\n  pop\n    /* \"#utility.yul\":5790:5889   */\n  swap2\n  swap1\n  pop\n  jump\t// out\n    /* \"#utility.yul\":5895:6075   */\ntag_39:\n    /* \"#utility.yul\":5943:6020   */\n  0x4e487b7100000000000000000000000000000000000000000000000000000000\n    /* \"#utility.yul\":5940:5941   */\n  0x00\n    /* \"#utility.yul\":5933:6021   */\n  mstore\n    /* \"#utility.yul\":6040:6044   */\n  0x22\n    /* \"#utility.yul\":6037:6038   */\n  0x04\n    /* \"#utility.yul\":6030:6045   */\n  mstore\n    /* \"#utility.yul\":6064:6068   */\n  0x24\n    /* \"#utility.yul\":6061:6062   */\n  0x00\n    /* \"#utility.yul\":6054:6069   */\n  revert\n    /* \"#utility.yul\":6081:6401   */\ntag_40:\n    /* \"#utility.yul\":6125:6131   */\n  0x00\n    /* \"#utility.yul\":6162:6163   */\n  0x02\n    /* \"#utility.yul\":6156:6160   */\n  dup3\n    /* \"#utility.yul\":6152:6164   */\n  div\n    /* \"#utility.yul\":6142:6164   */\n  swap1\n  pop\n    /* \"#utility.yul\":6209:6210   */\n  0x01\n    /* \"#utility.yul\":6203:6207   */\n  dup3\n    /* \"#utility.yul\":6199:6211   */\n  and\n    /* \"#utility.yul\":6230:6248   */\n  dup1\n    /* \"#utility.yul\":6220:6301   */\n  tag_116\n  jumpi\n    /* \"#utility.yul\":6286:6290   */\n  0x7f\n    /* \"#utility.yul\":6278:6284   */\n  dup3\n    /* \"#utility.yul\":6274:6291   */\n  and\n    /* \"#utility.yul\":6264:6291   */\n  swap2\n  pop\n    /* \"#utility.yul\":6220:6301   */\ntag_116:\n    /* \"#utility.yul\":6348:6350   */\n  0x20\n    /* \"#utility.yul\":6340:6346   */\n  dup3\n    /* \"#utility.yul\":6337:6351   */\n  lt\n    /* \"#utility.yul\":6317:6335   */\n  dup2\n    /* \"#utility.yul\":6314:6352   */\n  sub\n    /* \"#utility.yul\":6311:6395   */\n  tag_117\n  jumpi\n    /* \"#utility.yul\":6367:6385   */\n  tag_118\n  tag_39\n  jump\t// in\ntag_118:\n    /* \"#utility.yul\":6311:6395   */\ntag_117:\n    /* \"#utility.yul\":6132:6401   */\n  pop\n    /* \"#utility.yul\":6081:6401   */\n  swap2\n  swap1\n  pop\n  jump\t// out\n    /* \"#utility.yul\":6407:6548   */\ntag_41:\n    /* \"#utility.yul\":6456:6460   */\n  0x00\n    /* \"#utility.yul\":6479:6482   */\n  dup2\n    /* \"#utility.yul\":6471:6482   */\n  swap1\n  pop\n    /* \"#utility.yul\":6502:6505   */\n  dup2\n    /* \"#utility.yul\":6499:6500   */\n  0x00\n    /* \"#utility.yul\":6492:6506   */\n  mstore\n    /* \"#utility.yul\":6536:6540   */\n  0x20\n    /* \"#utility.yul\":6533:6534   */\n  0x00\n    /* \"#utility.yul\":6523:6541   */\n  keccak256\n    /* \"#utility.yul\":6515:6541   */\n  swap1\n  pop\n    /* \"#utility.yul\":6407:6548   */\n  swap2\n  swap1\n  pop\n  jump\t// out\n    /* \"#utility.yul\":6554:6647   */\ntag_42:\n    /* \"#utility.yul\":6591:6597   */\n  0x00\n    /* \"#utility.yul\":6638:6640   */\n  0x20\n    /* \"#utility.yul\":6633:6635   */\n  0x1f\n    /* \"#utility.yul\":6626:6631   */\n  dup4\n    /* \"#utility.yul\":6622:6636   */\n  add\n    /* \"#utility.yul\":6618:6641   */\n  div\n    /* \"#utility.yul\":6608:6641   */\n  swap1\n  pop\n    /* \"#utility.yul\":6554:6647   */\n  swap2\n  swap1\n  pop\n  jump\t// out\n    /* \"#utility.yul\":6653:6760   */\ntag_43:\n    /* \"#utility.yul\":6697:6705   */\n  0x00\n    /* \"#utility.yul\":6747:6752   */\n  dup3\n    /* \"#utility.yul\":6741:6745   */\n  dup3\n    /* \"#utility.yul\":6737:6753   */\n  shl\n    /* \"#utility.yul\":6716:6753   */\n  swap1\n  pop\n    /* \"#utility.yul\":6653:6760   */\n  swap3\n  swap2\n  pop\n  pop\n  jump\t// out\n    /* \"#utility.yul\":6766:7159   */\ntag_44:\n    /* \"#utility.yul\":6835:6841   */\n  0x00\n    /* \"#utility.yul\":6885:6886   */\n  0x08\n    /* \"#utility.yul\":6873:6883   */\n  dup4\n    /* \"#utility.yul\":6869:6887   */\n  mul\n    /* \"#utility.yul\":6908:7005   */\n  tag_123\n    /* \"#utility.yul\":6938:7004   */\n  0xffffffffffffffffffffffffffffffffffffffffffffffffffffffffffffffff\n    /* \"#utility.yul\":6927:6936   */\n  dup3\n    /* \"#utility.yul\":6908:7005   */\n  tag_43\n  jump\t// in\ntag_123:\n    /* \"#utility.yul\":7026:7065   */\n  tag_124\n    /* \"#utility.yul\":7056:7064   */\n  dup7\n    /* \"#utility.yul\":7045:7054   */\n  dup4\n    /* \"#utility.yul\":7026:7065   */\n  tag_43\n  jump\t// in\ntag_124:\n    /* \"#utility.yul\":7014:7065   */\n  swap6\n  pop\n    /* \"#utility.yul\":7098:7102   */\n  dup1\n    /* \"#utility.yul\":7094:7103   */\n  not\n    /* \"#utility.yul\":7087:7092   */\n  dup5\n    /* \"#utility.yul\":7083:7104   */\n  and\n    /* \"#utility.yul\":7074:7104   */\n  swap4\n  pop\n    /* \"#utility.yul\":7147:7151   */\n  dup1\n    /* \"#utility.yul\":7137:7145   */\n  dup7\n    /* \"#utility.yul\":7133:7152   */\n  and\n    /* \"#utility.yul\":7126:7131   */\n  dup5\n    /* \"#utility.yul\":7123:7153   */\n  or\n    /* \"#utility.yul\":7113:7153   */\n  swap3\n  pop\n    /* \"#utility.yul\":6842:7159   */\n  pop\n  pop\n    /* \"#utility.yul\":6766:7159   */\n  swap4\n  swap3\n  pop\n  pop\n  pop\n  jump\t// out\n    /* \"#utility.yul\":7165:7225   */\ntag_45:\n    /* \"#utility.yul\":7193:7196   */\n  0x00\n    /* \"#utility.yul\":7214:7219   */\n  dup2\n    /* \"#utility.yul\":7207:7219   */\n  swap1\n  pop\n    /* \"#utility.yul\":7165:7225   */\n  swap2\n  swap1\n  pop\n  jump\t// out\n    /* \"#utility.yul\":7231:7373   */\ntag_46:\n    /* \"#utility.yul\":7281:7290   */\n  0x00\n    /* \"#utility.yul\":7314:7367   */\n  tag_127\n    /* \"#utility.yul\":7332:7366   */\n  tag_128\n    /* \"#utility.yul\":7341:7365   */\n  tag_129\n    /* \"#utility.yul\":7359:7364   */\n  dup5\n    /* \"#utility.yul\":7341:7365   */\n  tag_20\n  jump\t// in\ntag_129:\n    /* \"#utility.yul\":7332:7366   */\n  tag_45\n  jump\t// in\ntag_128:\n    /* \"#utility.yul\":7314:7367   */\n  tag_20\n  jump\t// in\ntag_127:\n    /* \"#utility.yul\":7301:7367   */\n  swap1\n  pop\n    /* \"#utility.yul\":7231:7373   */\n  swap2\n  swap1\n  pop\n  jump\t// out\n    /* \"#utility.yul\":7379:7454   */\ntag_47:\n    /* \"#utility.yul\":7422:7425   */\n  0x00\n    /* \"#utility.yul\":7443:7448   */\n  dup2\n    /* \"#utility.yul\":7436:7448   */\n  swap1\n  pop\n    /* \"#utility.yul\":7379:7454   */\n  swap2\n  swap1\n  pop\n  jump\t// out\n    /* \"#utility.yul\":7460:7729   */\ntag_48:\n    /* \"#utility.yul\":7570:7609   */\n  tag_132\n    /* \"#utility.yul\":7601:7608   */\n  dup4\n    /* \"#utility.yul\":7570:7609   */\n  tag_46\n  jump\t// in\ntag_132:\n    /* \"#utility.yul\":7631:7722   */\n  tag_133\n    /* \"#utility.yul\":7680:7721   */\n  tag_134\n    /* \"#utility.yul\":7704:7720   */\n  dup3\n    /* \"#utility.yul\":7680:7721   */\n  tag_47\n  jump\t// in\ntag_134:\n    /* \"#utility.yul\":7672:7678   */\n  dup5\n    /* \"#utility.yul\":7665:7669   */\n  dup5\n    /* \"#utility.yul\":7659:7670   */\n  sload\n    /* \"#utility.yul\":7631:7722   */\n  tag_44\n  jump\t// in\ntag_133:\n    /* \"#utility.yul\":7625:7629   */\n  dup3\n    /* \"#utility.yul\":7618:7723   */\n  sstore\n    /* \"#utility.yul\":7536:7729   */\n  pop\n    /* \"#utility.yul\":7460:7729   */\n  pop\n  pop\n  pop\n  jump\t// out\n    /* \"#utility.yul\":7735:7808   */\ntag_49:\n    /* \"#utility.yul\":7780:7783   */\n  0x00\n    /* \"#utility.yul\":7735:7808   */\n  swap1\n  jump\t// out\n    /* \"#utility.yul\":7814:8003   */\ntag_50:\n    /* \"#utility.yul\":7891:7923   */\n  tag_137\n  tag_49\n  jump\t// in\ntag_137:\n    /* \"#utility.yul\":7932:7997   */\n  tag_138\n    /* \"#utility.yul\":7990:7996   */\n  dup2\n    /* \"#utility.yul\":7982:7988   */\n  dup5\n    /* \"#utility.yul\":7976:7980   */\n  dup5\n    /* \"#utility.yul\":7932:7997   */\n  tag_48\n  jump\t// in\ntag_138:\n    /* \"#utility.yul\":7867:8003   */\n  pop\n    /* \"#utility.yul\":7814:8003   */\n  pop\n  pop\n  jump\t// out\n    /* \"#utility.yul\":8009:8195   */\ntag_51:\n    /* \"#utility.yul\":8069:8189   */\ntag_140:\n    /* \"#utility.yul\":8086:8089   */\n  dup2\n    /* \"#utility.yul\":8079:8084   */\n  dup2\n    /* \"#utility.yul\":8076:8090   */\n  lt\n    /* \"#utility.yul\":8069:8189   */\n  iszero\n  tag_142\n  jumpi\n    /* \"#utility.yul\":8140:8179   */\n  tag_143\n    /* \"#utility.yul\":8177:8178   */\n  0x00\n    /* \"#utility.yul\":8170:8175   */\n  dup3\n    /* \"#utility.yul\":8140:8179   */\n  tag_50\n  jump\t// in\ntag_143:\n    /* \"#utility.yul\":8113:8114   */\n  0x01\n    /* \"#utility.yul\":8106:8111   */\n  dup2\n    /* \"#utility.yul\":8102:8115   */\n  add\n    /* \"#utility.yul\":8093:8115   */\n  swap1\n  pop\n    /* \"#utility.yul\":8069:8189   */\n  jump(tag_140)\ntag_142:\n    /* \"#utility.yul\":8009:8195   */\n  pop\n  pop\n  jump\t// out\n    /* \"#utility.yul\":8201:8744   */\ntag_52:\n    /* \"#utility.yul\":8302:8304   */\n  0x1f\n    /* \"#utility.yul\":8297:8300   */\n  dup3\n    /* \"#utility.yul\":8294:8305   */\n  gt\n    /* \"#utility.yul\":8291:8737   */\n  iszero\n  tag_145\n  jumpi\n    /* \"#utility.yul\":8336:8374   */\n  tag_146\n    /* \"#utility.yul\":8368:8373   */\n  dup2\n    /* \"#utility.yul\":8336:8374   */\n  tag_41\n  jump\t// in\ntag_146:\n    /* \"#utility.yul\":8420:8449   */\n  tag_147\n    /* \"#utility.yul\":8438:8448   */\n  dup5\n    /* \"#utility.yul\":8420:8449   */\n  tag_42\n  jump\t// in\ntag_147:\n    /* \"#utility.yul\":8410:8418   */\n  dup2\n    /* \"#utility.yul\":8406:8450   */\n  add\n    /* \"#utility.yul\":8603:8605   */\n  0x20\n    /* \"#utility.yul\":8591:8601   */\n  dup6\n    /* \"#utility.yul\":8588:8606   */\n  lt\n    /* \"#utility.yul\":8585:8634   */\n  iszero\n  tag_148\n  jumpi\n    /* \"#utility.yul\":8624:8632   */\n  dup2\n    /* \"#utility.yul\":8609:8632   */\n  swap1\n  pop\n    /* \"#utility.yul\":8585:8634   */\ntag_148:\n    /* \"#utility.yul\":8647:8727   */\n  tag_149\n    /* \"#utility.yul\":8703:8725   */\n  tag_150\n    /* \"#utility.yul\":8721:8724   */\n  dup6\n    /* \"#utility.yul\":8703:8725   */\n  tag_42\n  jump\t// in\ntag_150:\n    /* \"#utility.yul\":8693:8701   */\n  dup4\n    /* \"#utility.yul\":8689:8726   */\n  add\n    /* \"#utility.yul\":8676:8687   */\n  dup3\n    /* \"#utility.yul\":8647:8727   */\n  tag_51\n  jump\t// in\ntag_149:\n    /* \"#utility.yul\":8306:8737   */\n  pop\n  pop\n    /* \"#utility.yul\":8291:8737   */\ntag_145:\n    /* \"#utility.yul\":8201:8744   */\n  pop\n  pop\n  pop\n  jump\t// out\n    /* \"#utility.yul\":8750:8867   */\ntag_53:\n    /* \"#utility.yul\":8804:8812   */\n  0x00\n    /* \"#utility.yul\":8854:8859   */\n  dup3\n    /* \"#utility.yul\":8848:8852   */\n  dup3\n    /* \"#utility.yul\":8844:8860   */\n  shr\n    /* \"#utility.yul\":8823:8860   */\n  swap1\n  pop\n    /* \"#utility.yul\":8750:8867   */\n  swap3\n  swap2\n  pop\n  pop\n  jump\t// out\n    /* \"#utility.yul\":8873:9042   */\ntag_54:\n    /* \"#utility.yul\":8917:8923   */\n  0x00\n    /* \"#utility.yul\":8950:9001   */\n  tag_153\n    /* \"#utility.yul\":8998:8999   */\n  0x00\n    /* \"#utility.yul\":8994:9000   */\n  not\n    /* \"#utility.yul\":8986:8991   */\n  dup5\n    /* \"#utility.yul\":8983:8984   */\n  0x08\n    /* \"#utility.yul\":8979:8992   */\n  mul\n    /* \"#utility.yul\":8950:9001   */\n  tag_53\n  jump\t// in\ntag_153:\n    /* \"#utility.yul\":8946:9002   */\n  not\n    /* \"#utility.yul\":9031:9035   */\n  dup1\n    /* \"#utility.yul\":9025:9029   */\n  dup4\n    /* \"#utility.yul\":9021:9036   */\n  and\n    /* \"#utility.yul\":9011:9036   */\n  swap2\n  pop\n    /* \"#utility.yul\":8924:9042   */\n  pop\n    /* \"#utility.yul\":8873:9042   */\n  swap3\n  swap2\n  pop\n  pop\n  jump\t// out\n    /* \"#utility.yul\":9047:9342   */\ntag_55:\n    /* \"#utility.yul\":9123:9127   */\n  0x00\n    /* \"#utility.yul\":9269:9298   */\n  tag_155\n    /* \"#utility.yul\":9294:9297   */\n  dup4\n    /* \"#utility.yul\":9288:9292   */\n  dup4\n    /* \"#utility.yul\":9269:9298   */\n  tag_54\n  jump\t// in\ntag_155:\n    /* \"#utility.yul\":9261:9298   */\n  swap2\n  pop\n    /* \"#utility.yul\":9331:9334   */\n  dup3\n    /* \"#utility.yul\":9328:9329   */\n  0x02\n    /* \"#utility.yul\":9324:9335   */\n  mul\n    /* \"#utility.yul\":9318:9322   */\n  dup3\n    /* \"#utility.yul\":9315:9336   */\n  or\n    /* \"#utility.yul\":9307:9336   */\n  swap1\n  pop\n    /* \"#utility.yul\":9047:9342   */\n  swap3\n  swap2\n  pop\n  pop\n  jump\t// out\n    /* \"#utility.yul\":9347:10742   */\ntag_13:\n    /* \"#utility.yul\":9464:9501   */\n  tag_157\n    /* \"#utility.yul\":9497:9500   */\n  dup3\n    /* \"#utility.yul\":9464:9501   */\n  tag_38\n  jump\t// in\ntag_157:\n    /* \"#utility.yul\":9566:9584   */\n  0xffffffffffffffff\n    /* \"#utility.yul\":9558:9564   */\n  dup2\n    /* \"#utility.yul\":9555:9585   */\n  gt\n    /* \"#utility.yul\":9552:9608   */\n  iszero\n  tag_158\n  jumpi\n    /* \"#utility.yul\":9588:9606   */\n  tag_159\n  tag_26\n  jump\t// in\ntag_159:\n    /* \"#utility.yul\":9552:9608   */\ntag_158:\n    /* \"#utility.yul\":9632:9670   */\n  tag_160\n    /* \"#utility.yul\":9664:9668   */\n  dup3\n    /* \"#utility.yul\":9658:9669   */\n  sload\n    /* \"#utility.yul\":9632:9670   */\n  tag_40\n  jump\t// in\ntag_160:\n    /* \"#utility.yul\":9717:9784   */\n  tag_161\n    /* \"#utility.yul\":9777:9783   */\n  dup3\n    /* \"#utility.yul\":9769:9775   */\n  dup3\n    /* \"#utility.yul\":9763:9767   */\n  dup6\n    /* \"#utility.yul\":9717:9784   */\n  tag_52\n  jump\t// in\ntag_161:\n    /* \"#utility.yul\":9811:9812   */\n  0x00\n    /* \"#utility.yul\":9835:9839   */\n  0x20\n    /* \"#utility.yul\":9822:9839   */\n  swap1\n  pop\n    /* \"#utility.yul\":9867:9869   */\n  0x1f\n    /* \"#utility.yul\":9859:9865   */\n  dup4\n    /* \"#utility.yul\":9856:9870   */\n  gt\n    /* \"#utility.yul\":9884:9885   */\n  0x01\n    /* \"#utility.yul\":9879:10497   */\n  dup2\n  eq\n  tag_163\n  jumpi\n    /* \"#utility.yul\":10541:10542   */\n  0x00\n    /* \"#utility.yul\":10558:10564   */\n  dup5\n    /* \"#utility.yul\":10555:10632   */\n  iszero\n  tag_164\n  jumpi\n    /* \"#utility.yul\":10607:10616   */\n  dup3\n    /* \"#utility.yul\":10602:10605   */\n  dup8\n    /* \"#utility.yul\":10598:10617   */\n  add\n    /* \"#utility.yul\":10592:10618   */\n  mload\n    /* \"#utility.yul\":10583:10618   */\n  swap1\n  pop\n    /* \"#utility.yul\":10555:10632   */\ntag_164:\n    /* \"#utility.yul\":10658:10725   */\n  tag_165\n    /* \"#utility.yul\":10718:10724   */\n  dup6\n    /* \"#utility.yul\":10711:10716   */\n  dup3\n    /* \"#utility.yul\":10658:10725   */\n  tag_55\n  jump\t// in\ntag_165:\n    /* \"#utility.yul\":10652:10656   */\n  dup7\n    /* \"#utility.yul\":10645:10726   */\n  sstore\n    /* \"#utility.yul\":10514:10736   */\n  pop\n    /* \"#utility.yul\":9849:10736   */\n  jump(tag_162)\n    /* \"#utility.yul\":9879:10497   */\ntag_163:\n    /* \"#utility.yul\":9931:9935   */\n  0x1f\n    /* \"#utility.yul\":9927:9936   */\n  not\n    /* \"#utility.yul\":9919:9925   */\n  dup5\n    /* \"#utility.yul\":9915:9937   */\n  and\n    /* \"#utility.yul\":9965:10002   */\n  tag_166\n    /* \"#utility.yul\":9997:10001   */\n  dup7\n    /* \"#utility.yul\":9965:10002   */\n  tag_41\n  jump\t// in\ntag_166:\n    /* \"#utility.yul\":10024:10025   */\n  0x00\n    /* \"#utility.yul\":10038:10246   */\ntag_167:\n    /* \"#utility.yul\":10052:10059   */\n  dup3\n    /* \"#utility.yul\":10049:10050   */\n  dup2\n    /* \"#utility.yul\":10046:10060   */\n  lt\n    /* \"#utility.yul\":10038:10246   */\n  iszero\n  tag_169\n  jumpi\n    /* \"#utility.yul\":10131:10140   */\n  dup5\n    /* \"#utility.yul\":10126:10129   */\n  dup10\n    /* \"#utility.yul\":10122:10141   */\n  add\n    /* \"#utility.yul\":10116:10142   */\n  mload\n    /* \"#utility.yul\":10108:10114   */\n  dup3\n    /* \"#utility.yul\":10101:10143   */\n  sstore\n    /* \"#utility.yul\":10182:10183   */\n  0x01\n    /* \"#utility.yul\":10174:10180   */\n  dup3\n    /* \"#utility.yul\":10170:10184   */\n  add\n    /* \"#utility.yul\":10160:10184   */\n  swap2\n  pop\n    /* \"#utility.yul\":10229:10231   */\n  0x20\n    /* \"#utility.yul\":10218:10227   */\n  dup6\n    /* \"#utility.yul\":10214:10232   */\n  add\n    /* \"#utility.yul\":10201:10232   */\n  swap5\n  pop\n    /* \"#utility.yul\":10075:10079   */\n  0x20\n    /* \"#utility.yul\":10072:10073   */\n  dup2\n    /* \"#utility.yul\":10068:10080   */\n  add\n    /* \"#utility.yul\":10063:10080   */\n  swap1\n  pop\n    /* \"#utility.yul\":10038:10246   */\n  jump(tag_167)\ntag_169:\n    /* \"#utility.yul\":10274:10280   */\n  dup7\n    /* \"#utility.yul\":10265:10272   */\n  dup4\n    /* \"#utility.yul\":10262:10281   */\n  lt\n    /* \"#utility.yul\":10259:10438   */\n  iszero\n  tag_170\n  jumpi\n    /* \"#utility.yul\":10332:10341   */\n  dup5\n    /* \"#utility.yul\":10327:10330   */\n  dup10\n    /* \"#utility.yul\":10323:10342   */\n  add\n    /* \"#utility.yul\":10317:10343   */\n  mload\n    /* \"#utility.yul\":10375:10423   */\n  tag_171\n    /* \"#utility.yul\":10417:10421   */\n  0x1f\n    /* \"#utility.yul\":10409:10415   */\n  dup10\n    /* \"#utility.yul\":10405:10422   */\n  and\n    /* \"#utility.yul\":10394:10403   */\n  dup3\n    /* \"#utility.yul\":10375:10423   */\n  tag_54\n  jump\t// in\ntag_171:\n    /* \"#utility.yul\":10367:10373   */\n  dup4\n    /* \"#utility.yul\":10360:10424   */\n  sstore\n    /* \"#utility.yul\":10282:10438   */\n  pop\n    /* \"#utility.yul\":10259:10438   */\ntag_170:\n    /* \"#utility.yul\":10484:10485   */\n  0x01\n    /* \"#utility.yul\":10480:10481   */\n  0x02\n    /* \"#utility.yul\":10472:10478   */\n  dup9\n    /* \"#utility.yul\":10468:10482   */\n  mul\n    /* \"#utility.yul\":10464:10486   */\n  add\n    /* \"#utility.yul\":10458:10462   */\n  dup9\n    /* \"#utility.yul\":10451:10487   */\n  sstore\n    /* \"#utility.yul\":9886:10497   */\n  pop\n  pop\n  pop\n    /* \"#utility.yul\":9849:10736   */\ntag_162:\n  pop\n    /* \"#utility.yul\":9439:10742   */\n  pop\n  pop\n  pop\n    /* \"#utility.yul\":9347:10742   */\n  pop\n  pop\n  jump\t// out\n    /* \"#utility.yul\":10748:10866   */\ntag_56:\n    /* \"#utility.yul\":10835:10859   */\n  tag_173\n    /* \"#utility.yul\":10853:10858   */\n  dup2\n    /* \"#utility.yul\":10835:10859   */\n  tag_20\n  jump\t// in\ntag_173:\n    /* \"#utility.yul\":10830:10833   */\n  dup3\n    /* \"#utility.yul\":10823:10860   */\n  mstore\n    /* \"#utility.yul\":10748:10866   */\n  pop\n  pop\n  jump\t// out\n    /* \"#utility.yul\":10872:11094   */\ntag_15:\n    /* \"#utility.yul\":10965:10969   */\n  0x00\n    /* \"#utility.yul\":11003:11005   */\n  0x20\n    /* \"#utility.yul\":10992:11001   */\n  dup3\n    /* \"#utility.yul\":10988:11006   */\n  add\n    /* \"#utility.yul\":10980:11006   */\n  swap1\n  pop\n    /* \"#utility.yul\":11016:11087   */\n  tag_175\n    /* \"#utility.yul\":11084:11085   */\n  0x00\n    /* \"#utility.yul\":11073:11082   */\n  dup4\n    /* \"#utility.yul\":11069:11086   */\n  add\n    /* \"#utility.yul\":11060:11066   */\n  dup5\n    /* \"#utility.yul\":11016:11087   */\n  tag_56\n  jump\t// in\ntag_175:\n    /* \"#utility.yul\":10872:11094   */\n  swap3\n  swap2\n  pop\n  pop\n  jump\t// out\n    /* \"contracts/1_Storage.sol\":57:1799  contract TimeCapsule {... */\ntag_16:\n  dataSize(sub_0)\n  dup1\n  dataOffset(sub_0)\n  0x00\n  codecopy\n  0x00\n  return\nstop\n\nsub_0: assembly {\n        /* \"contracts/1_Storage.sol\":57:1799  contract TimeCapsule {... */\n      mstore(0x40, 0x80)\n      callvalue\n      dup1\n      iszero\n      tag_1\n      jumpi\n      0x00\n      dup1\n      revert\n    tag_1:\n      pop\n      jumpi(tag_2, lt(calldatasize, 0x04))\n      shr(0xe0, calldataload(0x00))\n      dup1\n      0x8380edb7\n      gt\n      tag_10\n      jumpi\n      dup1\n      0x8380edb7\n      eq\n      tag_6\n      jumpi\n      dup1\n      0x8da5cb5b\n      eq\n      tag_7\n      jumpi\n      dup1\n      0xba228697\n      eq\n      tag_8\n      jumpi\n      dup1\n      0xecf453cb\n      eq\n      tag_9\n      jumpi\n      jump(tag_2)\n    tag_10:\n      dup1\n      0x12d853e1\n      eq\n      tag_3\n      jumpi\n      dup1\n      0x251c1aa3\n      eq\n      tag_4\n      jumpi\n      dup1\n      0x773dba7e\n      eq\n      tag_5\n      jumpi\n    tag_2:\n      0x00\n      dup1\n      revert\n        /* \"contracts/1_Storage.sol\":1219:1354  function unlockCapsule() public canUnlock {... */\n    tag_3:\n      tag_11\n      tag_12\n      jump\t// in\n    tag_11:\n      stop\n        /* \"contracts/1_Storage.sol\":111:136  uint256 public unlockTime */\n    tag_4:\n      tag_13\n      tag_14\n      jump\t// in\n    tag_13:\n      mload(0x40)\n      tag_15\n      swap2\n      swap1\n      tag_16\n      jump\t// in\n    tag_15:\n      mload(0x40)\n      dup1\n      swap2\n      sub\n      swap1\n      return\n        /* \"contracts/1_Storage.sol\":1655:1797  function unlockBeforeMaturity() public onlyOwner {... */\n    tag_5:\n      tag_17\n      tag_18\n      jump\t// in\n    tag_17:\n      stop\n        /* \"contracts/1_Storage.sol\":176:198  bool public isUnlocked */\n    tag_6:\n      tag_19\n      tag_20\n      jump\t// in\n    tag_19:\n      mload(0x40)\n      tag_21\n      swap2\n      swap1\n      tag_22\n      jump\t// in\n    tag_21:\n      mload(0x40)\n      dup1\n      swap2\n      sub\n      swap1\n      return\n        /* \"contracts/1_Storage.sol\":85:105  address public owner */\n    tag_7:\n      tag_23\n      tag_24\n      jump\t// in\n    tag_23:\n      mload(0x40)\n      tag_25\n      swap2\n      swap1\n      tag_26\n      jump\t// in\n    tag_25:\n      mload(0x40)\n      dup1\n      swap2\n      sub\n      swap1\n      return\n        /* \"contracts/1_Storage.sol\":142:170  string public capsuleMessage */\n    tag_8:\n      tag_27\n      tag_28\n      jump\t// in\n    tag_27:\n      mload(0x40)\n      tag_29\n      swap2\n      swap1\n      tag_30\n      jump\t// in\n    tag_29:\n      mload(0x40)\n      dup1\n      swap2\n      sub\n      swap1\n      return\n        /* \"contracts/1_Storage.sol\":1428:1617  function getCapsuleMessage() public view onlyAfterUnlockTime returns (string memory) {... */\n    tag_9:\n      tag_31\n      tag_32\n      jump\t// in\n    tag_31:\n      mload(0x40)\n      tag_33\n      swap2\n      swap1\n      tag_30\n      jump\t// in\n    tag_33:\n      mload(0x40)\n      dup1\n      swap2\n      sub\n      swap1\n      return\n        /* \"contracts/1_Storage.sol\":1219:1354  function unlockCapsule() public canUnlock {... */\n    tag_12:\n        /* \"contracts/1_Storage.sol\":1075:1080  owner */\n      0x00\n      dup1\n      sload\n      swap1\n      0x0100\n      exp\n      swap1\n      div\n      0xffffffffffffffffffffffffffffffffffffffff\n      and\n        /* \"contracts/1_Storage.sol\":1061:1080  msg.sender == owner */\n      0xffffffffffffffffffffffffffffffffffffffff\n      and\n        /* \"contracts/1_Storage.sol\":1061:1071  msg.sender */\n      caller\n        /* \"contracts/1_Storage.sol\":1061:1080  msg.sender == owner */\n      0xffffffffffffffffffffffffffffffffffffffff\n      and\n      eq\n        /* \"contracts/1_Storage.sol\":1061:1113  msg.sender == owner || block.timestamp >= unlockTime */\n      dup1\n      tag_35\n      jumpi\n      pop\n        /* \"contracts/1_Storage.sol\":1103:1113  unlockTime */\n      sload(0x01)\n        /* \"contracts/1_Storage.sol\":1084:1099  block.timestamp */\n      timestamp\n        /* \"contracts/1_Storage.sol\":1084:1113  block.timestamp >= unlockTime */\n      lt\n      iszero\n        /* \"contracts/1_Storage.sol\":1061:1113  msg.sender == owner || block.timestamp >= unlockTime */\n    tag_35:\n        /* \"contracts/1_Storage.sol\":1053:1152  require(msg.sender == owner || block.timestamp >= unlockTime, \"You cannot unlock the capsule yet.\") */\n      tag_36\n      jumpi\n      mload(0x40)\n      0x08c379a000000000000000000000000000000000000000000000000000000000\n      dup2\n      mstore\n      0x04\n      add\n      tag_37\n      swap1\n      tag_38\n      jump\t// in\n    tag_37:\n      mload(0x40)\n      dup1\n      swap2\n      sub\n      swap1\n      revert\n    tag_36:\n        /* \"contracts/1_Storage.sol\":1284:1288  true */\n      0x01\n        /* \"contracts/1_Storage.sol\":1271:1281  isUnlocked */\n      0x03\n      0x00\n        /* \"contracts/1_Storage.sol\":1271:1288  isUnlocked = true */\n      0x0100\n      exp\n      dup2\n      sload\n      dup2\n      0xff\n      mul\n      not\n      and\n      swap1\n      dup4\n      iszero\n      iszero\n      mul\n      or\n      swap1\n      sstore\n      pop\n        /* \"contracts/1_Storage.sol\":1319:1329  msg.sender */\n      caller\n        /* \"contracts/1_Storage.sol\":1303:1347  CapsuleUnlocked(msg.sender, block.timestamp) */\n      0xffffffffffffffffffffffffffffffffffffffff\n      and\n      0x1eef9913bcbf9ca33844966f8e25fe99646ec46ed4c7e21f3080cd8312784360\n        /* \"contracts/1_Storage.sol\":1331:1346  block.timestamp */\n      timestamp\n        /* \"contracts/1_Storage.sol\":1303:1347  CapsuleUnlocked(msg.sender, block.timestamp) */\n      mload(0x40)\n      tag_40\n      swap2\n      swap1\n      tag_16\n      jump\t// in\n    tag_40:\n      mload(0x40)\n      dup1\n      swap2\n      sub\n      swap1\n      log2\n        /* \"contracts/1_Storage.sol\":1219:1354  function unlockCapsule() public canUnlock {... */\n      jump\t// out\n        /* \"contracts/1_Storage.sol\":111:136  uint256 public unlockTime */\n    tag_14:\n      sload(0x01)\n      dup2\n      jump\t// out\n        /* \"contracts/1_Storage.sol\":1655:1797  function unlockBeforeMaturity() public onlyOwner {... */\n    tag_18:\n        /* \"contracts/1_Storage.sol\":826:831  owner */\n      0x00\n      dup1\n      sload\n      swap1\n      0x0100\n      exp\n      swap1\n      div\n      0xffffffffffffffffffffffffffffffffffffffff\n      and\n        /* \"contracts/1_Storage.sol\":812:831  msg.sender == owner */\n      0xffffffffffffffffffffffffffffffffffffffff\n      and\n        /* \"contracts/1_Storage.sol\":812:822  msg.sender */\n      caller\n        /* \"contracts/1_Storage.sol\":812:831  msg.sender == owner */\n      0xffffffffffffffffffffffffffffffffffffffff\n      and\n      eq\n        /* \"contracts/1_Storage.sol\":804:858  require(msg.sender == owner, \"You are not the owner!\") */\n      tag_42\n      jumpi\n      mload(0x40)\n      0x08c379a000000000000000000000000000000000000000000000000000000000\n      dup2\n      mstore\n      0x04\n      add\n      tag_43\n      swap1\n      tag_44\n      jump\t// in\n    tag_43:\n      mload(0x40)\n      dup1\n      swap2\n      sub\n      swap1\n      revert\n    tag_42:\n        /* \"contracts/1_Storage.sol\":1727:1731  true */\n      0x01\n        /* \"contracts/1_Storage.sol\":1714:1724  isUnlocked */\n      0x03\n      0x00\n        /* \"contracts/1_Storage.sol\":1714:1731  isUnlocked = true */\n      0x0100\n      exp\n      dup2\n      sload\n      dup2\n      0xff\n      mul\n      not\n      and\n      swap1\n      dup4\n      iszero\n      iszero\n      mul\n      or\n      swap1\n      sstore\n      pop\n        /* \"contracts/1_Storage.sol\":1762:1772  msg.sender */\n      caller\n        /* \"contracts/1_Storage.sol\":1746:1790  CapsuleUnlocked(msg.sender, block.timestamp) */\n      0xffffffffffffffffffffffffffffffffffffffff\n      and\n      0x1eef9913bcbf9ca33844966f8e25fe99646ec46ed4c7e21f3080cd8312784360\n        /* \"contracts/1_Storage.sol\":1774:1789  block.timestamp */\n      timestamp\n        /* \"contracts/1_Storage.sol\":1746:1790  CapsuleUnlocked(msg.sender, block.timestamp) */\n      mload(0x40)\n      tag_46\n      swap2\n      swap1\n      tag_16\n      jump\t// in\n    tag_46:\n      mload(0x40)\n      dup1\n      swap2\n      sub\n      swap1\n      log2\n        /* \"contracts/1_Storage.sol\":1655:1797  function unlockBeforeMaturity() public onlyOwner {... */\n      jump\t// out\n        /* \"contracts/1_Storage.sol\":176:198  bool public isUnlocked */\n    tag_20:\n      0x03\n      0x00\n      swap1\n      sload\n      swap1\n      0x0100\n      exp\n      swap1\n      div\n      0xff\n      and\n      dup2\n      jump\t// out\n        /* \"contracts/1_Storage.sol\":85:105  address public owner */\n    tag_24:\n      0x00\n      dup1\n      sload\n      swap1\n      0x0100\n      exp\n      swap1\n      div\n      0xffffffffffffffffffffffffffffffffffffffff\n      and\n      dup2\n      jump\t// out\n        /* \"contracts/1_Storage.sol\":142:170  string public capsuleMessage */\n    tag_28:\n      0x02\n      dup1\n      sload\n      tag_47\n      swap1\n      tag_48\n      jump\t// in\n    tag_47:\n      dup1\n      0x1f\n      add\n      0x20\n      dup1\n      swap2\n      div\n      mul\n      0x20\n      add\n      mload(0x40)\n      swap1\n      dup2\n      add\n      0x40\n      mstore\n      dup1\n      swap3\n      swap2\n      swap1\n      dup2\n      dup2\n      mstore\n      0x20\n      add\n      dup3\n      dup1\n      sload\n      tag_49\n      swap1\n      tag_48\n      jump\t// in\n    tag_49:\n      dup1\n      iszero\n      tag_50\n      jumpi\n      dup1\n      0x1f\n      lt\n      tag_51\n      jumpi\n      0x0100\n      dup1\n      dup4\n      sload\n      div\n      mul\n      dup4\n      mstore\n      swap2\n      0x20\n      add\n      swap2\n      jump(tag_50)\n    tag_51:\n      dup3\n      add\n      swap2\n      swap1\n      0x00\n      mstore\n      keccak256(0x00, 0x20)\n      swap1\n    tag_52:\n      dup2\n      sload\n      dup2\n      mstore\n      swap1\n      0x01\n      add\n      swap1\n      0x20\n      add\n      dup1\n      dup4\n      gt\n      tag_52\n      jumpi\n      dup3\n      swap1\n      sub\n      0x1f\n      and\n      dup3\n      add\n      swap2\n    tag_50:\n      pop\n      pop\n      pop\n      pop\n      pop\n      dup2\n      jump\t// out\n        /* \"contracts/1_Storage.sol\":1428:1617  function getCapsuleMessage() public view onlyAfterUnlockTime returns (string memory) {... */\n    tag_32:\n        /* \"contracts/1_Storage.sol\":1498:1511  string memory */\n      0x60\n        /* \"contracts/1_Storage.sol\":950:960  unlockTime */\n      sload(0x01)\n        /* \"contracts/1_Storage.sol\":931:946  block.timestamp */\n      timestamp\n        /* \"contracts/1_Storage.sol\":931:960  block.timestamp >= unlockTime */\n      lt\n      iszero\n        /* \"contracts/1_Storage.sol\":923:998  require(block.timestamp >= unlockTime, \"The time capsule is still locked.\") */\n      tag_54\n      jumpi\n      mload(0x40)\n      0x08c379a000000000000000000000000000000000000000000000000000000000\n      dup2\n      mstore\n      0x04\n      add\n      tag_55\n      swap1\n      tag_56\n      jump\t// in\n    tag_55:\n      mload(0x40)\n      dup1\n      swap2\n      sub\n      swap1\n      revert\n    tag_54:\n        /* \"contracts/1_Storage.sol\":1531:1541  isUnlocked */\n      0x03\n      0x00\n      swap1\n      sload\n      swap1\n      0x0100\n      exp\n      swap1\n      div\n      0xff\n      and\n        /* \"contracts/1_Storage.sol\":1523:1579  require(isUnlocked, \"The time capsule is still locked.\") */\n      tag_58\n      jumpi\n      mload(0x40)\n      0x08c379a000000000000000000000000000000000000000000000000000000000\n      dup2\n      mstore\n      0x04\n      add\n      tag_59\n      swap1\n      tag_56\n      jump\t// in\n    tag_59:\n      mload(0x40)\n      dup1\n      swap2\n      sub\n      swap1\n      revert\n    tag_58:\n        /* \"contracts/1_Storage.sol\":1596:1610  capsuleMessage */\n      0x02\n        /* \"contracts/1_Storage.sol\":1589:1610  return capsuleMessage */\n      dup1\n      sload\n      tag_60\n      swap1\n      tag_48\n      jump\t// in\n    tag_60:\n      dup1\n      0x1f\n      add\n      0x20\n      dup1\n      swap2\n      div\n      mul\n      0x20\n      add\n      mload(0x40)\n      swap1\n      dup2\n      add\n      0x40\n      mstore\n      dup1\n      swap3\n      swap2\n      swap1\n      dup2\n      dup2\n      mstore\n      0x20\n      add\n      dup3\n      dup1\n      sload\n      tag_61\n      swap1\n      tag_48\n      jump\t// in\n    tag_61:\n      dup1\n      iszero\n      tag_62\n      jumpi\n      dup1\n      0x1f\n      lt\n      tag_63\n      jumpi\n      0x0100\n      dup1\n      dup4\n      sload\n      div\n      mul\n      dup4\n      mstore\n      swap2\n      0x20\n      add\n      swap2\n      jump(tag_62)\n    tag_63:\n      dup3\n      add\n      swap2\n      swap1\n      0x00\n      mstore\n      keccak256(0x00, 0x20)\n      swap1\n    tag_64:\n      dup2\n      sload\n      dup2\n      mstore\n      swap1\n      0x01\n      add\n      swap1\n      0x20\n      add\n      dup1\n      dup4\n      gt\n      tag_64\n      jumpi\n      dup3\n      swap1\n      sub\n      0x1f\n      and\n      dup3\n      add\n      swap2\n    tag_62:\n      pop\n      pop\n      pop\n      pop\n      pop\n      swap1\n      pop\n        /* \"contracts/1_Storage.sol\":1428:1617  function getCapsuleMessage() public view onlyAfterUnlockTime returns (string memory) {... */\n      swap1\n      jump\t// out\n        /* \"#utility.yul\":7:84   */\n    tag_65:\n        /* \"#utility.yul\":44:51   */\n      0x00\n        /* \"#utility.yul\":73:78   */\n      dup2\n        /* \"#utility.yul\":62:78   */\n      swap1\n      pop\n        /* \"#utility.yul\":7:84   */\n      swap2\n      swap1\n      pop\n      jump\t// out\n        /* \"#utility.yul\":90:208   */\n    tag_66:\n        /* \"#utility.yul\":177:201   */\n      tag_87\n        /* \"#utility.yul\":195:200   */\n      dup2\n        /* \"#utility.yul\":177:201   */\n      tag_65\n      jump\t// in\n    tag_87:\n        /* \"#utility.yul\":172:175   */\n      dup3\n        /* \"#utility.yul\":165:202   */\n      mstore\n        /* \"#utility.yul\":90:208   */\n      pop\n      pop\n      jump\t// out\n        /* \"#utility.yul\":214:436   */\n    tag_16:\n        /* \"#utility.yul\":307:311   */\n      0x00\n        /* \"#utility.yul\":345:347   */\n      0x20\n        /* \"#utility.yul\":334:343   */\n      dup3\n        /* \"#utility.yul\":330:348   */\n      add\n        /* \"#utility.yul\":322:348   */\n      swap1\n      pop\n        /* \"#utility.yul\":358:429   */\n      tag_89\n        /* \"#utility.yul\":426:427   */\n      0x00\n        /* \"#utility.yul\":415:424   */\n      dup4\n        /* \"#utility.yul\":411:428   */\n      add\n        /* \"#utility.yul\":402:408   */\n      dup5\n        /* \"#utility.yul\":358:429   */\n      tag_66\n      jump\t// in\n    tag_89:\n        /* \"#utility.yul\":214:436   */\n      swap3\n      swap2\n      pop\n      pop\n      jump\t// out\n        /* \"#utility.yul\":442:532   */\n    tag_67:\n        /* \"#utility.yul\":476:483   */\n      0x00\n        /* \"#utility.yul\":519:524   */\n      dup2\n        /* \"#utility.yul\":512:525   */\n      iszero\n        /* \"#utility.yul\":505:526   */\n      iszero\n        /* \"#utility.yul\":494:526   */\n      swap1\n      pop\n        /* \"#utility.yul\":442:532   */\n      swap2\n      swap1\n      pop\n      jump\t// out\n        /* \"#utility.yul\":538:647   */\n    tag_68:\n        /* \"#utility.yul\":619:640   */\n      tag_92\n        /* \"#utility.yul\":634:639   */\n      dup2\n        /* \"#utility.yul\":619:640   */\n      tag_67\n      jump\t// in\n    tag_92:\n        /* \"#utility.yul\":614:617   */\n      dup3\n        /* \"#utility.yul\":607:641   */\n      mstore\n        /* \"#utility.yul\":538:647   */\n      pop\n      pop\n      jump\t// out\n        /* \"#utility.yul\":653:863   */\n    tag_22:\n        /* \"#utility.yul\":740:744   */\n      0x00\n        /* \"#utility.yul\":778:780   */\n      0x20\n        /* \"#utility.yul\":767:776   */\n      dup3\n        /* \"#utility.yul\":763:781   */\n      add\n        /* \"#utility.yul\":755:781   */\n      swap1\n      pop\n        /* \"#utility.yul\":791:856   */\n      tag_94\n        /* \"#utility.yul\":853:854   */\n      0x00\n        /* \"#utility.yul\":842:851   */\n      dup4\n        /* \"#utility.yul\":838:855   */\n      add\n        /* \"#utility.yul\":829:835   */\n      dup5\n        /* \"#utility.yul\":791:856   */\n      tag_68\n      jump\t// in\n    tag_94:\n        /* \"#utility.yul\":653:863   */\n      swap3\n      swap2\n      pop\n      pop\n      jump\t// out\n        /* \"#utility.yul\":869:995   */\n    tag_69:\n        /* \"#utility.yul\":906:913   */\n      0x00\n        /* \"#utility.yul\":946:988   */\n      0xffffffffffffffffffffffffffffffffffffffff\n        /* \"#utility.yul\":939:944   */\n      dup3\n        /* \"#utility.yul\":935:989   */\n      and\n        /* \"#utility.yul\":924:989   */\n      swap1\n      pop\n        /* \"#utility.yul\":869:995   */\n      swap2\n      swap1\n      pop\n      jump\t// out\n        /* \"#utility.yul\":1001:1097   */\n    tag_70:\n        /* \"#utility.yul\":1038:1045   */\n      0x00\n        /* \"#utility.yul\":1067:1091   */\n      tag_97\n        /* \"#utility.yul\":1085:1090   */\n      dup3\n        /* \"#utility.yul\":1067:1091   */\n      tag_69\n      jump\t// in\n    tag_97:\n        /* \"#utility.yul\":1056:1091   */\n      swap1\n      pop\n        /* \"#utility.yul\":1001:1097   */\n      swap2\n      swap1\n      pop\n      jump\t// out\n        /* \"#utility.yul\":1103:1221   */\n    tag_71:\n        /* \"#utility.yul\":1190:1214   */\n      tag_99\n        /* \"#utility.yul\":1208:1213   */\n      dup2\n        /* \"#utility.yul\":1190:1214   */\n      tag_70\n      jump\t// in\n    tag_99:\n        /* \"#utility.yul\":1185:1188   */\n      dup3\n        /* \"#utility.yul\":1178:1215   */\n      mstore\n        /* \"#utility.yul\":1103:1221   */\n      pop\n      pop\n      jump\t// out\n        /* \"#utility.yul\":1227:1449   */\n    tag_26:\n        /* \"#utility.yul\":1320:1324   */\n      0x00\n        /* \"#utility.yul\":1358:1360   */\n      0x20\n        /* \"#utility.yul\":1347:1356   */\n      dup3\n        /* \"#utility.yul\":1343:1361   */\n      add\n        /* \"#utility.yul\":1335:1361   */\n      swap1\n      pop\n        /* \"#utility.yul\":1371:1442   */\n      tag_101\n        /* \"#utility.yul\":1439:1440   */\n      0x00\n        /* \"#utility.yul\":1428:1437   */\n      dup4\n        /* \"#utility.yul\":1424:1441   */\n      add\n        /* \"#utility.yul\":1415:1421   */\n      dup5\n        /* \"#utility.yul\":1371:1442   */\n      tag_71\n      jump\t// in\n    tag_101:\n        /* \"#utility.yul\":1227:1449   */\n      swap3\n      swap2\n      pop\n      pop\n      jump\t// out\n        /* \"#utility.yul\":1455:1554   */\n    tag_72:\n        /* \"#utility.yul\":1507:1513   */\n      0x00\n        /* \"#utility.yul\":1541:1546   */\n      dup2\n        /* \"#utility.yul\":1535:1547   */\n      mload\n        /* \"#utility.yul\":1525:1547   */\n      swap1\n      pop\n        /* \"#utility.yul\":1455:1554   */\n      swap2\n      swap1\n      pop\n      jump\t// out\n        /* \"#utility.yul\":1560:1729   */\n    tag_73:\n        /* \"#utility.yul\":1644:1655   */\n      0x00\n        /* \"#utility.yul\":1678:1684   */\n      dup3\n        /* \"#utility.yul\":1673:1676   */\n      dup3\n        /* \"#utility.yul\":1666:1685   */\n      mstore\n        /* \"#utility.yul\":1718:1722   */\n      0x20\n        /* \"#utility.yul\":1713:1716   */\n      dup3\n        /* \"#utility.yul\":1709:1723   */\n      add\n        /* \"#utility.yul\":1694:1723   */\n      swap1\n      pop\n        /* \"#utility.yul\":1560:1729   */\n      swap3\n      swap2\n      pop\n      pop\n      jump\t// out\n        /* \"#utility.yul\":1735:1874   */\n    tag_74:\n        /* \"#utility.yul\":1824:1830   */\n      dup3\n        /* \"#utility.yul\":1819:1822   */\n      dup2\n        /* \"#utility.yul\":1814:1817   */\n      dup4\n        /* \"#utility.yul\":1808:1831   */\n      mcopy\n        /* \"#utility.yul\":1865:1866   */\n      0x00\n        /* \"#utility.yul\":1856:1862   */\n      dup4\n        /* \"#utility.yul\":1851:1854   */\n      dup4\n        /* \"#utility.yul\":1847:1863   */\n      add\n        /* \"#utility.yul\":1840:1867   */\n      mstore\n        /* \"#utility.yul\":1735:1874   */\n      pop\n      pop\n      pop\n      jump\t// out\n        /* \"#utility.yul\":1880:1982   */\n    tag_75:\n        /* \"#utility.yul\":1921:1927   */\n      0x00\n        /* \"#utility.yul\":1972:1974   */\n      0x1f\n        /* \"#utility.yul\":1968:1975   */\n      not\n        /* \"#utility.yul\":1963:1965   */\n      0x1f\n        /* \"#utility.yul\":1956:1961   */\n      dup4\n        /* \"#utility.yul\":1952:1966   */\n      add\n        /* \"#utility.yul\":1948:1976   */\n      and\n        /* \"#utility.yul\":1938:1976   */\n      swap1\n      pop\n        /* \"#utility.yul\":1880:1982   */\n      swap2\n      swap1\n      pop\n      jump\t// out\n        /* \"#utility.yul\":1988:2365   */\n    tag_76:\n        /* \"#utility.yul\":2076:2079   */\n      0x00\n        /* \"#utility.yul\":2104:2143   */\n      tag_107\n        /* \"#utility.yul\":2137:2142   */\n      dup3\n        /* \"#utility.yul\":2104:2143   */\n      tag_72\n      jump\t// in\n    tag_107:\n        /* \"#utility.yul\":2159:2230   */\n      tag_108\n        /* \"#utility.yul\":2223:2229   */\n      dup2\n        /* \"#utility.yul\":2218:2221   */\n      dup6\n        /* \"#utility.yul\":2159:2230   */\n      tag_73\n      jump\t// in\n    tag_108:\n        /* \"#utility.yul\":2152:2230   */\n      swap4\n      pop\n        /* \"#utility.yul\":2239:2304   */\n      tag_109\n        /* \"#utility.yul\":2297:2303   */\n      dup2\n        /* \"#utility.yul\":2292:2295   */\n      dup6\n        /* \"#utility.yul\":2285:2289   */\n      0x20\n        /* \"#utility.yul\":2278:2283   */\n      dup7\n        /* \"#utility.yul\":2274:2290   */\n      add\n        /* \"#utility.yul\":2239:2304   */\n      tag_74\n      jump\t// in\n    tag_109:\n        /* \"#utility.yul\":2329:2358   */\n      tag_110\n        /* \"#utility.yul\":2351:2357   */\n      dup2\n        /* \"#utility.yul\":2329:2358   */\n      tag_75\n      jump\t// in\n    tag_110:\n        /* \"#utility.yul\":2324:2327   */\n      dup5\n        /* \"#utility.yul\":2320:2359   */\n      add\n        /* \"#utility.yul\":2313:2359   */\n      swap2\n      pop\n        /* \"#utility.yul\":2080:2365   */\n      pop\n        /* \"#utility.yul\":1988:2365   */\n      swap3\n      swap2\n      pop\n      pop\n      jump\t// out\n        /* \"#utility.yul\":2371:2684   */\n    tag_30:\n        /* \"#utility.yul\":2484:2488   */\n      0x00\n        /* \"#utility.yul\":2522:2524   */\n      0x20\n        /* \"#utility.yul\":2511:2520   */\n      dup3\n        /* \"#utility.yul\":2507:2525   */\n      add\n        /* \"#utility.yul\":2499:2525   */\n      swap1\n      pop\n        /* \"#utility.yul\":2571:2580   */\n      dup2\n        /* \"#utility.yul\":2565:2569   */\n      dup2\n        /* \"#utility.yul\":2561:2581   */\n      sub\n        /* \"#utility.yul\":2557:2558   */\n      0x00\n        /* \"#utility.yul\":2546:2555   */\n      dup4\n        /* \"#utility.yul\":2542:2559   */\n      add\n        /* \"#utility.yul\":2535:2582   */\n      mstore\n        /* \"#utility.yul\":2599:2677   */\n      tag_112\n        /* \"#utility.yul\":2672:2676   */\n      dup2\n        /* \"#utility.yul\":2663:2669   */\n      dup5\n        /* \"#utility.yul\":2599:2677   */\n      tag_76\n      jump\t// in\n    tag_112:\n        /* \"#utility.yul\":2591:2677   */\n      swap1\n      pop\n        /* \"#utility.yul\":2371:2684   */\n      swap3\n      swap2\n      pop\n      pop\n      jump\t// out\n        /* \"#utility.yul\":2690:2911   */\n    tag_77:\n        /* \"#utility.yul\":2830:2864   */\n      0x596f752063616e6e6f7420756e6c6f636b207468652063617073756c65207965\n        /* \"#utility.yul\":2826:2827   */\n      0x00\n        /* \"#utility.yul\":2818:2824   */\n      dup3\n        /* \"#utility.yul\":2814:2828   */\n      add\n        /* \"#utility.yul\":2807:2865   */\n      mstore\n        /* \"#utility.yul\":2899:2903   */\n      0x742e000000000000000000000000000000000000000000000000000000000000\n        /* \"#utility.yul\":2894:2896   */\n      0x20\n        /* \"#utility.yul\":2886:2892   */\n      dup3\n        /* \"#utility.yul\":2882:2897   */\n      add\n        /* \"#utility.yul\":2875:2904   */\n      mstore\n        /* \"#utility.yul\":2690:2911   */\n      pop\n      jump\t// out\n        /* \"#utility.yul\":2917:3283   */\n    tag_78:\n        /* \"#utility.yul\":3059:3062   */\n      0x00\n        /* \"#utility.yul\":3080:3147   */\n      tag_115\n        /* \"#utility.yul\":3144:3146   */\n      0x22\n        /* \"#utility.yul\":3139:3142   */\n      dup4\n        /* \"#utility.yul\":3080:3147   */\n      tag_73\n      jump\t// in\n    tag_115:\n        /* \"#utility.yul\":3073:3147   */\n      swap2\n      pop\n        /* \"#utility.yul\":3156:3249   */\n      tag_116\n        /* \"#utility.yul\":3245:3248   */\n      dup3\n        /* \"#utility.yul\":3156:3249   */\n      tag_77\n      jump\t// in\n    tag_116:\n        /* \"#utility.yul\":3274:3276   */\n      0x40\n        /* \"#utility.yul\":3269:3272   */\n      dup3\n        /* \"#utility.yul\":3265:3277   */\n      add\n        /* \"#utility.yul\":3258:3277   */\n      swap1\n      pop\n        /* \"#utility.yul\":2917:3283   */\n      swap2\n      swap1\n      pop\n      jump\t// out\n        /* \"#utility.yul\":3289:3708   */\n    tag_38:\n        /* \"#utility.yul\":3455:3459   */\n      0x00\n        /* \"#utility.yul\":3493:3495   */\n      0x20\n        /* \"#utility.yul\":3482:3491   */\n      dup3\n        /* \"#utility.yul\":3478:3496   */\n      add\n        /* \"#utility.yul\":3470:3496   */\n      swap1\n      pop\n        /* \"#utility.yul\":3542:3551   */\n      dup2\n        /* \"#utility.yul\":3536:3540   */\n      dup2\n        /* \"#utility.yul\":3532:3552   */\n      sub\n        /* \"#utility.yul\":3528:3529   */\n      0x00\n        /* \"#utility.yul\":3517:3526   */\n      dup4\n        /* \"#utility.yul\":3513:3530   */\n      add\n        /* \"#utility.yul\":3506:3553   */\n      mstore\n        /* \"#utility.yul\":3570:3701   */\n      tag_118\n        /* \"#utility.yul\":3696:3700   */\n      dup2\n        /* \"#utility.yul\":3570:3701   */\n      tag_78\n      jump\t// in\n    tag_118:\n        /* \"#utility.yul\":3562:3701   */\n      swap1\n      pop\n        /* \"#utility.yul\":3289:3708   */\n      swap2\n      swap1\n      pop\n      jump\t// out\n        /* \"#utility.yul\":3714:3886   */\n    tag_79:\n        /* \"#utility.yul\":3854:3878   */\n      0x596f7520617265206e6f7420746865206f776e65722100000000000000000000\n        /* \"#utility.yul\":3850:3851   */\n      0x00\n        /* \"#utility.yul\":3842:3848   */\n      dup3\n        /* \"#utility.yul\":3838:3852   */\n      add\n        /* \"#utility.yul\":3831:3879   */\n      mstore\n        /* \"#utility.yul\":3714:3886   */\n      pop\n      jump\t// out\n        /* \"#utility.yul\":3892:4258   */\n    tag_80:\n        /* \"#utility.yul\":4034:4037   */\n      0x00\n        /* \"#utility.yul\":4055:4122   */\n      tag_121\n        /* \"#utility.yul\":4119:4121   */\n      0x16\n        /* \"#utility.yul\":4114:4117   */\n      dup4\n        /* \"#utility.yul\":4055:4122   */\n      tag_73\n      jump\t// in\n    tag_121:\n        /* \"#utility.yul\":4048:4122   */\n      swap2\n      pop\n        /* \"#utility.yul\":4131:4224   */\n      tag_122\n        /* \"#utility.yul\":4220:4223   */\n      dup3\n        /* \"#utility.yul\":4131:4224   */\n      tag_79\n      jump\t// in\n    tag_122:\n        /* \"#utility.yul\":4249:4251   */\n      0x20\n        /* \"#utility.yul\":4244:4247   */\n      dup3\n        /* \"#utility.yul\":4240:4252   */\n      add\n        /* \"#utility.yul\":4233:4252   */\n      swap1\n      pop\n        /* \"#utility.yul\":3892:4258   */\n      swap2\n      swap1\n      pop\n      jump\t// out\n        /* \"#utility.yul\":4264:4683   */\n    tag_44:\n        /* \"#utility.yul\":4430:4434   */\n      0x00\n        /* \"#utility.yul\":4468:4470   */\n      0x20\n        /* \"#utility.yul\":4457:4466   */\n      dup3\n        /* \"#utility.yul\":4453:4471   */\n      add\n        /* \"#utility.yul\":4445:4471   */\n      swap1\n      pop\n        /* \"#utility.yul\":4517:4526   */\n      dup2\n        /* \"#utility.yul\":4511:4515   */\n      dup2\n        /* \"#utility.yul\":4507:4527   */\n      sub\n        /* \"#utility.yul\":4503:4504   */\n      0x00\n        /* \"#utility.yul\":4492:4501   */\n      dup4\n        /* \"#utility.yul\":4488:4505   */\n      add\n        /* \"#utility.yul\":4481:4528   */\n      mstore\n        /* \"#utility.yul\":4545:4676   */\n      tag_124\n        /* \"#utility.yul\":4671:4675   */\n      dup2\n        /* \"#utility.yul\":4545:4676   */\n      tag_80\n      jump\t// in\n    tag_124:\n        /* \"#utility.yul\":4537:4676   */\n      swap1\n      pop\n        /* \"#utility.yul\":4264:4683   */\n      swap2\n      swap1\n      pop\n      jump\t// out\n        /* \"#utility.yul\":4689:4869   */\n    tag_81:\n        /* \"#utility.yul\":4737:4814   */\n      0x4e487b7100000000000000000000000000000000000000000000000000000000\n        /* \"#utility.yul\":4734:4735   */\n      0x00\n        /* \"#utility.yul\":4727:4815   */\n      mstore\n        /* \"#utility.yul\":4834:4838   */\n      0x22\n        /* \"#utility.yul\":4831:4832   */\n      0x04\n        /* \"#utility.yul\":4824:4839   */\n      mstore\n        /* \"#utility.yul\":4858:4862   */\n      0x24\n        /* \"#utility.yul\":4855:4856   */\n      0x00\n        /* \"#utility.yul\":4848:4863   */\n      revert\n        /* \"#utility.yul\":4875:5195   */\n    tag_48:\n        /* \"#utility.yul\":4919:4925   */\n      0x00\n        /* \"#utility.yul\":4956:4957   */\n      0x02\n        /* \"#utility.yul\":4950:4954   */\n      dup3\n        /* \"#utility.yul\":4946:4958   */\n      div\n        /* \"#utility.yul\":4936:4958   */\n      swap1\n      pop\n        /* \"#utility.yul\":5003:5004   */\n      0x01\n        /* \"#utility.yul\":4997:5001   */\n      dup3\n        /* \"#utility.yul\":4993:5005   */\n      and\n        /* \"#utility.yul\":5024:5042   */\n      dup1\n        /* \"#utility.yul\":5014:5095   */\n      tag_127\n      jumpi\n        /* \"#utility.yul\":5080:5084   */\n      0x7f\n        /* \"#utility.yul\":5072:5078   */\n      dup3\n        /* \"#utility.yul\":5068:5085   */\n      and\n        /* \"#utility.yul\":5058:5085   */\n      swap2\n      pop\n        /* \"#utility.yul\":5014:5095   */\n    tag_127:\n        /* \"#utility.yul\":5142:5144   */\n      0x20\n        /* \"#utility.yul\":5134:5140   */\n      dup3\n        /* \"#utility.yul\":5131:5145   */\n      lt\n        /* \"#utility.yul\":5111:5129   */\n      dup2\n        /* \"#utility.yul\":5108:5146   */\n      sub\n        /* \"#utility.yul\":5105:5189   */\n      tag_128\n      jumpi\n        /* \"#utility.yul\":5161:5179   */\n      tag_129\n      tag_81\n      jump\t// in\n    tag_129:\n        /* \"#utility.yul\":5105:5189   */\n    tag_128:\n        /* \"#utility.yul\":4926:5195   */\n      pop\n        /* \"#utility.yul\":4875:5195   */\n      swap2\n      swap1\n      pop\n      jump\t// out\n        /* \"#utility.yul\":5201:5421   */\n    tag_82:\n        /* \"#utility.yul\":5341:5375   */\n      0x5468652074696d652063617073756c65206973207374696c6c206c6f636b6564\n        /* \"#utility.yul\":5337:5338   */\n      0x00\n        /* \"#utility.yul\":5329:5335   */\n      dup3\n        /* \"#utility.yul\":5325:5339   */\n      add\n        /* \"#utility.yul\":5318:5376   */\n      mstore\n        /* \"#utility.yul\":5410:5413   */\n      0x2e00000000000000000000000000000000000000000000000000000000000000\n        /* \"#utility.yul\":5405:5407   */\n      0x20\n        /* \"#utility.yul\":5397:5403   */\n      dup3\n        /* \"#utility.yul\":5393:5408   */\n      add\n        /* \"#utility.yul\":5386:5414   */\n      mstore\n        /* \"#utility.yul\":5201:5421   */\n      pop\n      jump\t// out\n        /* \"#utility.yul\":5427:5793   */\n    tag_83:\n        /* \"#utility.yul\":5569:5572   */\n      0x00\n        /* \"#utility.yul\":5590:5657   */\n      tag_132\n        /* \"#utility.yul\":5654:5656   */\n      0x21\n        /* \"#utility.yul\":5649:5652   */\n      dup4\n        /* \"#utility.yul\":5590:5657   */\n      tag_73\n      jump\t// in\n    tag_132:\n        /* \"#utility.yul\":5583:5657   */\n      swap2\n      pop\n        /* \"#utility.yul\":5666:5759   */\n      tag_133\n        /* \"#utility.yul\":5755:5758   */\n      dup3\n        /* \"#utility.yul\":5666:5759   */\n      tag_82\n      jump\t// in\n    tag_133:\n        /* \"#utility.yul\":5784:5786   */\n      0x40\n        /* \"#utility.yul\":5779:5782   */\n      dup3\n        /* \"#utility.yul\":5775:5787   */\n      add\n        /* \"#utility.yul\":5768:5787   */\n      swap1\n      pop\n        /* \"#utility.yul\":5427:5793   */\n      swap2\n      swap1\n      pop\n      jump\t// out\n        /* \"#utility.yul\":5799:6218   */\n    tag_56:\n        /* \"#utility.yul\":5965:5969   */\n      0x00\n        /* \"#utility.yul\":6003:6005   */\n      0x20\n        /* \"#utility.yul\":5992:6001   */\n      dup3\n        /* \"#utility.yul\":5988:6006   */\n      add\n        /* \"#utility.yul\":5980:6006   */\n      swap1\n      pop\n        /* \"#utility.yul\":6052:6061   */\n      dup2\n        /* \"#utility.yul\":6046:6050   */\n      dup2\n        /* \"#utility.yul\":6042:6062   */\n      sub\n        /* \"#utility.yul\":6038:6039   */\n      0x00\n        /* \"#utility.yul\":6027:6036   */\n      dup4\n        /* \"#utility.yul\":6023:6040   */\n      add\n        /* \"#utility.yul\":6016:6063   */\n      mstore\n        /* \"#utility.yul\":6080:6211   */\n      tag_135\n        /* \"#utility.yul\":6206:6210   */\n      dup2\n        /* \"#utility.yul\":6080:6211   */\n      tag_83\n      jump\t// in\n    tag_135:\n        /* \"#utility.yul\":6072:6211   */\n      swap1\n      pop\n        /* \"#utility.yul\":5799:6218   */\n      swap2\n      swap1\n      pop\n      jump\t// out\n\n    auxdata: 0xa26469706673582212201c716542a37e3c522d256b6fc1c182f89fce132673d1da6383532edeba56ad4364736f6c634300081a0033\n}\n",
				"bytecode": {
					"linkReferences": {},
					"object": "608060405234801561000f575f80fd5b50604051610fd3380380610fd3833981810160405281019061003191906102fa565b428211610073576040517f08c379a000000000000000000000000000000000000000000000000000000000815260040161006a906103d4565b60405180910390fd5b5f8151116100b6576040517f08c379a00000000000000000000000000000000000000000000000000000000081526004016100ad9061043c565b60405180910390fd5b335f806101000a81548173ffffffffffffffffffffffffffffffffffffffff021916908373ffffffffffffffffffffffffffffffffffffffff16021790555081600181905550806002908161010b919061065e565b505f60035f6101000a81548160ff0219169083151502179055503373ffffffffffffffffffffffffffffffffffffffff167fb6d5a53adf9feebfd8fe1b61c8c721b6be115ea05e7b31f389a6b7a82a6540e38360405161016b919061073c565b60405180910390a25050610755565b5f604051905090565b5f80fd5b5f80fd5b5f819050919050565b61019d8161018b565b81146101a7575f80fd5b50565b5f815190506101b881610194565b92915050565b5f80fd5b5f80fd5b5f601f19601f8301169050919050565b7f4e487b71000000000000000000000000000000000000000000000000000000005f52604160045260245ffd5b61020c826101c6565b810181811067ffffffffffffffff8211171561022b5761022a6101d6565b5b80604052505050565b5f61023d61017a565b90506102498282610203565b919050565b5f67ffffffffffffffff821115610268576102676101d6565b5b610271826101c6565b9050602081019050919050565b8281835e5f83830152505050565b5f61029e6102998461024e565b610234565b9050828152602081018484840111156102ba576102b96101c2565b5b6102c584828561027e565b509392505050565b5f82601f8301126102e1576102e06101be565b5b81516102f184826020860161028c565b91505092915050565b5f80604083850312156103105761030f610183565b5b5f61031d858286016101aa565b925050602083015167ffffffffffffffff81111561033e5761033d610187565b5b61034a858286016102cd565b9150509250929050565b5f82825260208201905092915050565b7f556e6c6f636b2074696d65206d75737420626520696e207468652066757475725f8201527f6500000000000000000000000000000000000000000000000000000000000000602082015250565b5f6103be602183610354565b91506103c982610364565b604082019050919050565b5f6020820190508181035f8301526103eb816103b2565b9050919050565b7f4d6573736167652063616e6e6f7420626520656d7074790000000000000000005f82015250565b5f610426601783610354565b9150610431826103f2565b602082019050919050565b5f6020820190508181035f8301526104538161041a565b9050919050565b5f81519050919050565b7f4e487b71000000000000000000000000000000000000000000000000000000005f52602260045260245ffd5b5f60028204905060018216806104a857607f821691505b6020821081036104bb576104ba610464565b5b50919050565b5f819050815f5260205f209050919050565b5f6020601f8301049050919050565b5f82821b905092915050565b5f6008830261051d7fffffffffffffffffffffffffffffffffffffffffffffffffffffffffffffffff826104e2565b61052786836104e2565b95508019841693508086168417925050509392505050565b5f819050919050565b5f61056261055d6105588461018b565b61053f565b61018b565b9050919050565b5f819050919050565b61057b83610548565b61058f61058782610569565b8484546104ee565b825550505050565b5f90565b6105a3610597565b6105ae818484610572565b505050565b5b818110156105d1576105c65f8261059b565b6001810190506105b4565b5050565b601f821115610616576105e7816104c1565b6105f0846104d3565b810160208510156105ff578190505b61061361060b856104d3565b8301826105b3565b50505b505050565b5f82821c905092915050565b5f6106365f198460080261061b565b1980831691505092915050565b5f61064e8383610627565b9150826002028217905092915050565b6106678261045a565b67ffffffffffffffff8111156106805761067f6101d6565b5b61068a8254610491565b6106958282856105d5565b5f60209050601f8311600181146106c6575f84156106b4578287015190505b6106be8582610643565b865550610725565b601f1984166106d4866104c1565b5f5b828110156106fb578489015182556001820191506020850194506020810190506106d6565b868310156107185784890151610714601f891682610627565b8355505b6001600288020188555050505b505050505050565b6107368161018b565b82525050565b5f60208201905061074f5f83018461072d565b92915050565b610871806107625f395ff3fe608060405234801561000f575f80fd5b506004361061007b575f3560e01c80638380edb7116100595780638380edb7146100b15780638da5cb5b146100cf578063ba228697146100ed578063ecf453cb1461010b5761007b565b806312d853e11461007f578063251c1aa314610089578063773dba7e146100a7575b5f80fd5b610087610129565b005b61009161022d565b60405161009e9190610526565b60405180910390f35b6100af610233565b005b6100b961032a565b6040516100c69190610559565b60405180910390f35b6100d761033c565b6040516100e491906105b1565b60405180910390f35b6100f561035f565b604051610102919061063a565b60405180910390f35b6101136103eb565b604051610120919061063a565b60405180910390f35b5f8054906101000a900473ffffffffffffffffffffffffffffffffffffffff1673ffffffffffffffffffffffffffffffffffffffff163373ffffffffffffffffffffffffffffffffffffffff16148061018457506001544210155b6101c3576040517f08c379a00000000000000000000000000000000000000000000000000000000081526004016101ba906106ca565b60405180910390fd5b600160035f6101000a81548160ff0219169083151502179055503373ffffffffffffffffffffffffffffffffffffffff167f1eef9913bcbf9ca33844966f8e25fe99646ec46ed4c7e21f3080cd8312784360426040516102239190610526565b60405180910390a2565b60015481565b5f8054906101000a900473ffffffffffffffffffffffffffffffffffffffff1673ffffffffffffffffffffffffffffffffffffffff163373ffffffffffffffffffffffffffffffffffffffff16146102c0576040517f08c379a00000000000000000000000000000000000000000000000000000000081526004016102b790610732565b60405180910390fd5b600160035f6101000a81548160ff0219169083151502179055503373ffffffffffffffffffffffffffffffffffffffff167f1eef9913bcbf9ca33844966f8e25fe99646ec46ed4c7e21f3080cd8312784360426040516103209190610526565b60405180910390a2565b60035f9054906101000a900460ff1681565b5f8054906101000a900473ffffffffffffffffffffffffffffffffffffffff1681565b6002805461036c9061077d565b80601f01602080910402602001604051908101604052809291908181526020018280546103989061077d565b80156103e35780601f106103ba576101008083540402835291602001916103e3565b820191905f5260205f20905b8154815290600101906020018083116103c657829003601f168201915b505050505081565b6060600154421015610432576040517f08c379a00000000000000000000000000000000000000000000000000000000081526004016104299061081d565b60405180910390fd5b60035f9054906101000a900460ff16610480576040517f08c379a00000000000000000000000000000000000000000000000000000000081526004016104779061081d565b60405180910390fd5b6002805461048d9061077d565b80601f01602080910402602001604051908101604052809291908181526020018280546104b99061077d565b80156105045780601f106104db57610100808354040283529160200191610504565b820191905f5260205f20905b8154815290600101906020018083116104e757829003601f168201915b5050505050905090565b5f819050919050565b6105208161050e565b82525050565b5f6020820190506105395f830184610517565b92915050565b5f8115159050919050565b6105538161053f565b82525050565b5f60208201905061056c5f83018461054a565b92915050565b5f73ffffffffffffffffffffffffffffffffffffffff82169050919050565b5f61059b82610572565b9050919050565b6105ab81610591565b82525050565b5f6020820190506105c45f8301846105a2565b92915050565b5f81519050919050565b5f82825260208201905092915050565b8281835e5f83830152505050565b5f601f19601f8301169050919050565b5f61060c826105ca565b61061681856105d4565b93506106268185602086016105e4565b61062f816105f2565b840191505092915050565b5f6020820190508181035f8301526106528184610602565b905092915050565b7f596f752063616e6e6f7420756e6c6f636b207468652063617073756c652079655f8201527f742e000000000000000000000000000000000000000000000000000000000000602082015250565b5f6106b46022836105d4565b91506106bf8261065a565b604082019050919050565b5f6020820190508181035f8301526106e1816106a8565b9050919050565b7f596f7520617265206e6f7420746865206f776e657221000000000000000000005f82015250565b5f61071c6016836105d4565b9150610727826106e8565b602082019050919050565b5f6020820190508181035f83015261074981610710565b9050919050565b7f4e487b71000000000000000000000000000000000000000000000000000000005f52602260045260245ffd5b5f600282049050600182168061079457607f821691505b6020821081036107a7576107a6610750565b5b50919050565b7f5468652074696d652063617073756c65206973207374696c6c206c6f636b65645f8201527f2e00000000000000000000000000000000000000000000000000000000000000602082015250565b5f6108076021836105d4565b9150610812826107ad565b604082019050919050565b5f6020820190508181035f830152610834816107fb565b905091905056fea26469706673582212201c716542a37e3c522d256b6fc1c182f89fce132673d1da6383532edeba56ad4364736f6c634300081a0033",
					"opcodes": "PUSH1 0x80 PUSH1 0x40 MSTORE CALLVALUE DUP1 ISZERO PUSH2 0xF JUMPI PUSH0 DUP1 REVERT JUMPDEST POP PUSH1 0x40 MLOAD PUSH2 0xFD3 CODESIZE SUB DUP1 PUSH2 0xFD3 DUP4 CODECOPY DUP2 DUP2 ADD PUSH1 0x40 MSTORE DUP2 ADD SWAP1 PUSH2 0x31 SWAP2 SWAP1 PUSH2 0x2FA JUMP JUMPDEST TIMESTAMP DUP3 GT PUSH2 0x73 JUMPI PUSH1 0x40 MLOAD PUSH32 0x8C379A000000000000000000000000000000000000000000000000000000000 DUP2 MSTORE PUSH1 0x4 ADD PUSH2 0x6A SWAP1 PUSH2 0x3D4 JUMP JUMPDEST PUSH1 0x40 MLOAD DUP1 SWAP2 SUB SWAP1 REVERT JUMPDEST PUSH0 DUP2 MLOAD GT PUSH2 0xB6 JUMPI PUSH1 0x40 MLOAD PUSH32 0x8C379A000000000000000000000000000000000000000000000000000000000 DUP2 MSTORE PUSH1 0x4 ADD PUSH2 0xAD SWAP1 PUSH2 0x43C JUMP JUMPDEST PUSH1 0x40 MLOAD DUP1 SWAP2 SUB SWAP1 REVERT JUMPDEST CALLER PUSH0 DUP1 PUSH2 0x100 EXP DUP2 SLOAD DUP2 PUSH20 0xFFFFFFFFFFFFFFFFFFFFFFFFFFFFFFFFFFFFFFFF MUL NOT AND SWAP1 DUP4 PUSH20 0xFFFFFFFFFFFFFFFFFFFFFFFFFFFFFFFFFFFFFFFF AND MUL OR SWAP1 SSTORE POP DUP2 PUSH1 0x1 DUP2 SWAP1 SSTORE POP DUP1 PUSH1 0x2 SWAP1 DUP2 PUSH2 0x10B SWAP2 SWAP1 PUSH2 0x65E JUMP JUMPDEST POP PUSH0 PUSH1 0x3 PUSH0 PUSH2 0x100 EXP DUP2 SLOAD DUP2 PUSH1 0xFF MUL NOT AND SWAP1 DUP4 ISZERO ISZERO MUL OR SWAP1 SSTORE POP CALLER PUSH20 0xFFFFFFFFFFFFFFFFFFFFFFFFFFFFFFFFFFFFFFFF AND PUSH32 0xB6D5A53ADF9FEEBFD8FE1B61C8C721B6BE115EA05E7B31F389A6B7A82A6540E3 DUP4 PUSH1 0x40 MLOAD PUSH2 0x16B SWAP2 SWAP1 PUSH2 0x73C JUMP JUMPDEST PUSH1 0x40 MLOAD DUP1 SWAP2 SUB SWAP1 LOG2 POP POP PUSH2 0x755 JUMP JUMPDEST PUSH0 PUSH1 0x40 MLOAD SWAP1 POP SWAP1 JUMP JUMPDEST PUSH0 DUP1 REVERT JUMPDEST PUSH0 DUP1 REVERT JUMPDEST PUSH0 DUP2 SWAP1 POP SWAP2 SWAP1 POP JUMP JUMPDEST PUSH2 0x19D DUP2 PUSH2 0x18B JUMP JUMPDEST DUP2 EQ PUSH2 0x1A7 JUMPI PUSH0 DUP1 REVERT JUMPDEST POP JUMP JUMPDEST PUSH0 DUP2 MLOAD SWAP1 POP PUSH2 0x1B8 DUP2 PUSH2 0x194 JUMP JUMPDEST SWAP3 SWAP2 POP POP JUMP JUMPDEST PUSH0 DUP1 REVERT JUMPDEST PUSH0 DUP1 REVERT JUMPDEST PUSH0 PUSH1 0x1F NOT PUSH1 0x1F DUP4 ADD AND SWAP1 POP SWAP2 SWAP1 POP JUMP JUMPDEST PUSH32 0x4E487B7100000000000000000000000000000000000000000000000000000000 PUSH0 MSTORE PUSH1 0x41 PUSH1 0x4 MSTORE PUSH1 0x24 PUSH0 REVERT JUMPDEST PUSH2 0x20C DUP3 PUSH2 0x1C6 JUMP JUMPDEST DUP2 ADD DUP2 DUP2 LT PUSH8 0xFFFFFFFFFFFFFFFF DUP3 GT OR ISZERO PUSH2 0x22B JUMPI PUSH2 0x22A PUSH2 0x1D6 JUMP JUMPDEST JUMPDEST DUP1 PUSH1 0x40 MSTORE POP POP POP JUMP JUMPDEST PUSH0 PUSH2 0x23D PUSH2 0x17A JUMP JUMPDEST SWAP1 POP PUSH2 0x249 DUP3 DUP3 PUSH2 0x203 JUMP JUMPDEST SWAP2 SWAP1 POP JUMP JUMPDEST PUSH0 PUSH8 0xFFFFFFFFFFFFFFFF DUP3 GT ISZERO PUSH2 0x268 JUMPI PUSH2 0x267 PUSH2 0x1D6 JUMP JUMPDEST JUMPDEST PUSH2 0x271 DUP3 PUSH2 0x1C6 JUMP JUMPDEST SWAP1 POP PUSH1 0x20 DUP2 ADD SWAP1 POP SWAP2 SWAP1 POP JUMP JUMPDEST DUP3 DUP2 DUP4 MCOPY PUSH0 DUP4 DUP4 ADD MSTORE POP POP POP JUMP JUMPDEST PUSH0 PUSH2 0x29E PUSH2 0x299 DUP5 PUSH2 0x24E JUMP JUMPDEST PUSH2 0x234 JUMP JUMPDEST SWAP1 POP DUP3 DUP2 MSTORE PUSH1 0x20 DUP2 ADD DUP5 DUP5 DUP5 ADD GT ISZERO PUSH2 0x2BA JUMPI PUSH2 0x2B9 PUSH2 0x1C2 JUMP JUMPDEST JUMPDEST PUSH2 0x2C5 DUP5 DUP3 DUP6 PUSH2 0x27E JUMP JUMPDEST POP SWAP4 SWAP3 POP POP POP JUMP JUMPDEST PUSH0 DUP3 PUSH1 0x1F DUP4 ADD SLT PUSH2 0x2E1 JUMPI PUSH2 0x2E0 PUSH2 0x1BE JUMP JUMPDEST JUMPDEST DUP2 MLOAD PUSH2 0x2F1 DUP5 DUP3 PUSH1 0x20 DUP7 ADD PUSH2 0x28C JUMP JUMPDEST SWAP2 POP POP SWAP3 SWAP2 POP POP JUMP JUMPDEST PUSH0 DUP1 PUSH1 0x40 DUP4 DUP6 SUB SLT ISZERO PUSH2 0x310 JUMPI PUSH2 0x30F PUSH2 0x183 JUMP JUMPDEST JUMPDEST PUSH0 PUSH2 0x31D DUP6 DUP3 DUP7 ADD PUSH2 0x1AA JUMP JUMPDEST SWAP3 POP POP PUSH1 0x20 DUP4 ADD MLOAD PUSH8 0xFFFFFFFFFFFFFFFF DUP2 GT ISZERO PUSH2 0x33E JUMPI PUSH2 0x33D PUSH2 0x187 JUMP JUMPDEST JUMPDEST PUSH2 0x34A DUP6 DUP3 DUP7 ADD PUSH2 0x2CD JUMP JUMPDEST SWAP2 POP POP SWAP3 POP SWAP3 SWAP1 POP JUMP JUMPDEST PUSH0 DUP3 DUP3 MSTORE PUSH1 0x20 DUP3 ADD SWAP1 POP SWAP3 SWAP2 POP POP JUMP JUMPDEST PUSH32 0x556E6C6F636B2074696D65206D75737420626520696E20746865206675747572 PUSH0 DUP3 ADD MSTORE PUSH32 0x6500000000000000000000000000000000000000000000000000000000000000 PUSH1 0x20 DUP3 ADD MSTORE POP JUMP JUMPDEST PUSH0 PUSH2 0x3BE PUSH1 0x21 DUP4 PUSH2 0x354 JUMP JUMPDEST SWAP2 POP PUSH2 0x3C9 DUP3 PUSH2 0x364 JUMP JUMPDEST PUSH1 0x40 DUP3 ADD SWAP1 POP SWAP2 SWAP1 POP JUMP JUMPDEST PUSH0 PUSH1 0x20 DUP3 ADD SWAP1 POP DUP2 DUP2 SUB PUSH0 DUP4 ADD MSTORE PUSH2 0x3EB DUP2 PUSH2 0x3B2 JUMP JUMPDEST SWAP1 POP SWAP2 SWAP1 POP JUMP JUMPDEST PUSH32 0x4D6573736167652063616E6E6F7420626520656D707479000000000000000000 PUSH0 DUP3 ADD MSTORE POP JUMP JUMPDEST PUSH0 PUSH2 0x426 PUSH1 0x17 DUP4 PUSH2 0x354 JUMP JUMPDEST SWAP2 POP PUSH2 0x431 DUP3 PUSH2 0x3F2 JUMP JUMPDEST PUSH1 0x20 DUP3 ADD SWAP1 POP SWAP2 SWAP1 POP JUMP JUMPDEST PUSH0 PUSH1 0x20 DUP3 ADD SWAP1 POP DUP2 DUP2 SUB PUSH0 DUP4 ADD MSTORE PUSH2 0x453 DUP2 PUSH2 0x41A JUMP JUMPDEST SWAP1 POP SWAP2 SWAP1 POP JUMP JUMPDEST PUSH0 DUP2 MLOAD SWAP1 POP SWAP2 SWAP1 POP JUMP JUMPDEST PUSH32 0x4E487B7100000000000000000000000000000000000000000000000000000000 PUSH0 MSTORE PUSH1 0x22 PUSH1 0x4 MSTORE PUSH1 0x24 PUSH0 REVERT JUMPDEST PUSH0 PUSH1 0x2 DUP3 DIV SWAP1 POP PUSH1 0x1 DUP3 AND DUP1 PUSH2 0x4A8 JUMPI PUSH1 0x7F DUP3 AND SWAP2 POP JUMPDEST PUSH1 0x20 DUP3 LT DUP2 SUB PUSH2 0x4BB JUMPI PUSH2 0x4BA PUSH2 0x464 JUMP JUMPDEST JUMPDEST POP SWAP2 SWAP1 POP JUMP JUMPDEST PUSH0 DUP2 SWAP1 POP DUP2 PUSH0 MSTORE PUSH1 0x20 PUSH0 KECCAK256 SWAP1 POP SWAP2 SWAP1 POP JUMP JUMPDEST PUSH0 PUSH1 0x20 PUSH1 0x1F DUP4 ADD DIV SWAP1 POP SWAP2 SWAP1 POP JUMP JUMPDEST PUSH0 DUP3 DUP3 SHL SWAP1 POP SWAP3 SWAP2 POP POP JUMP JUMPDEST PUSH0 PUSH1 0x8 DUP4 MUL PUSH2 0x51D PUSH32 0xFFFFFFFFFFFFFFFFFFFFFFFFFFFFFFFFFFFFFFFFFFFFFFFFFFFFFFFFFFFFFFFF DUP3 PUSH2 0x4E2 JUMP JUMPDEST PUSH2 0x527 DUP7 DUP4 PUSH2 0x4E2 JUMP JUMPDEST SWAP6 POP DUP1 NOT DUP5 AND SWAP4 POP DUP1 DUP7 AND DUP5 OR SWAP3 POP POP POP SWAP4 SWAP3 POP POP POP JUMP JUMPDEST PUSH0 DUP2 SWAP1 POP SWAP2 SWAP1 POP JUMP JUMPDEST PUSH0 PUSH2 0x562 PUSH2 0x55D PUSH2 0x558 DUP5 PUSH2 0x18B JUMP JUMPDEST PUSH2 0x53F JUMP JUMPDEST PUSH2 0x18B JUMP JUMPDEST SWAP1 POP SWAP2 SWAP1 POP JUMP JUMPDEST PUSH0 DUP2 SWAP1 POP SWAP2 SWAP1 POP JUMP JUMPDEST PUSH2 0x57B DUP4 PUSH2 0x548 JUMP JUMPDEST PUSH2 0x58F PUSH2 0x587 DUP3 PUSH2 0x569 JUMP JUMPDEST DUP5 DUP5 SLOAD PUSH2 0x4EE JUMP JUMPDEST DUP3 SSTORE POP POP POP POP JUMP JUMPDEST PUSH0 SWAP1 JUMP JUMPDEST PUSH2 0x5A3 PUSH2 0x597 JUMP JUMPDEST PUSH2 0x5AE DUP2 DUP5 DUP5 PUSH2 0x572 JUMP JUMPDEST POP POP POP JUMP JUMPDEST JUMPDEST DUP2 DUP2 LT ISZERO PUSH2 0x5D1 JUMPI PUSH2 0x5C6 PUSH0 DUP3 PUSH2 0x59B JUMP JUMPDEST PUSH1 0x1 DUP2 ADD SWAP1 POP PUSH2 0x5B4 JUMP JUMPDEST POP POP JUMP JUMPDEST PUSH1 0x1F DUP3 GT ISZERO PUSH2 0x616 JUMPI PUSH2 0x5E7 DUP2 PUSH2 0x4C1 JUMP JUMPDEST PUSH2 0x5F0 DUP5 PUSH2 0x4D3 JUMP JUMPDEST DUP2 ADD PUSH1 0x20 DUP6 LT ISZERO PUSH2 0x5FF JUMPI DUP2 SWAP1 POP JUMPDEST PUSH2 0x613 PUSH2 0x60B DUP6 PUSH2 0x4D3 JUMP JUMPDEST DUP4 ADD DUP3 PUSH2 0x5B3 JUMP JUMPDEST POP POP JUMPDEST POP POP POP JUMP JUMPDEST PUSH0 DUP3 DUP3 SHR SWAP1 POP SWAP3 SWAP2 POP POP JUMP JUMPDEST PUSH0 PUSH2 0x636 PUSH0 NOT DUP5 PUSH1 0x8 MUL PUSH2 0x61B JUMP JUMPDEST NOT DUP1 DUP4 AND SWAP2 POP POP SWAP3 SWAP2 POP POP JUMP JUMPDEST PUSH0 PUSH2 0x64E DUP4 DUP4 PUSH2 0x627 JUMP JUMPDEST SWAP2 POP DUP3 PUSH1 0x2 MUL DUP3 OR SWAP1 POP SWAP3 SWAP2 POP POP JUMP JUMPDEST PUSH2 0x667 DUP3 PUSH2 0x45A JUMP JUMPDEST PUSH8 0xFFFFFFFFFFFFFFFF DUP2 GT ISZERO PUSH2 0x680 JUMPI PUSH2 0x67F PUSH2 0x1D6 JUMP JUMPDEST JUMPDEST PUSH2 0x68A DUP3 SLOAD PUSH2 0x491 JUMP JUMPDEST PUSH2 0x695 DUP3 DUP3 DUP6 PUSH2 0x5D5 JUMP JUMPDEST PUSH0 PUSH1 0x20 SWAP1 POP PUSH1 0x1F DUP4 GT PUSH1 0x1 DUP2 EQ PUSH2 0x6C6 JUMPI PUSH0 DUP5 ISZERO PUSH2 0x6B4 JUMPI DUP3 DUP8 ADD MLOAD SWAP1 POP JUMPDEST PUSH2 0x6BE DUP6 DUP3 PUSH2 0x643 JUMP JUMPDEST DUP7 SSTORE POP PUSH2 0x725 JUMP JUMPDEST PUSH1 0x1F NOT DUP5 AND PUSH2 0x6D4 DUP7 PUSH2 0x4C1 JUMP JUMPDEST PUSH0 JUMPDEST DUP3 DUP2 LT ISZERO PUSH2 0x6FB JUMPI DUP5 DUP10 ADD MLOAD DUP3 SSTORE PUSH1 0x1 DUP3 ADD SWAP2 POP PUSH1 0x20 DUP6 ADD SWAP5 POP PUSH1 0x20 DUP2 ADD SWAP1 POP PUSH2 0x6D6 JUMP JUMPDEST DUP7 DUP4 LT ISZERO PUSH2 0x718 JUMPI DUP5 DUP10 ADD MLOAD PUSH2 0x714 PUSH1 0x1F DUP10 AND DUP3 PUSH2 0x627 JUMP JUMPDEST DUP4 SSTORE POP JUMPDEST PUSH1 0x1 PUSH1 0x2 DUP9 MUL ADD DUP9 SSTORE POP POP POP JUMPDEST POP POP POP POP POP POP JUMP JUMPDEST PUSH2 0x736 DUP2 PUSH2 0x18B JUMP JUMPDEST DUP3 MSTORE POP POP JUMP JUMPDEST PUSH0 PUSH1 0x20 DUP3 ADD SWAP1 POP PUSH2 0x74F PUSH0 DUP4 ADD DUP5 PUSH2 0x72D JUMP JUMPDEST SWAP3 SWAP2 POP POP JUMP JUMPDEST PUSH2 0x871 DUP1 PUSH2 0x762 PUSH0 CODECOPY PUSH0 RETURN INVALID PUSH1 0x80 PUSH1 0x40 MSTORE CALLVALUE DUP1 ISZERO PUSH2 0xF JUMPI PUSH0 DUP1 REVERT JUMPDEST POP PUSH1 0x4 CALLDATASIZE LT PUSH2 0x7B JUMPI PUSH0 CALLDATALOAD PUSH1 0xE0 SHR DUP1 PUSH4 0x8380EDB7 GT PUSH2 0x59 JUMPI DUP1 PUSH4 0x8380EDB7 EQ PUSH2 0xB1 JUMPI DUP1 PUSH4 0x8DA5CB5B EQ PUSH2 0xCF JUMPI DUP1 PUSH4 0xBA228697 EQ PUSH2 0xED JUMPI DUP1 PUSH4 0xECF453CB EQ PUSH2 0x10B JUMPI PUSH2 0x7B JUMP JUMPDEST DUP1 PUSH4 0x12D853E1 EQ PUSH2 0x7F JUMPI DUP1 PUSH4 0x251C1AA3 EQ PUSH2 0x89 JUMPI DUP1 PUSH4 0x773DBA7E EQ PUSH2 0xA7 JUMPI JUMPDEST PUSH0 DUP1 REVERT JUMPDEST PUSH2 0x87 PUSH2 0x129 JUMP JUMPDEST STOP JUMPDEST PUSH2 0x91 PUSH2 0x22D JUMP JUMPDEST PUSH1 0x40 MLOAD PUSH2 0x9E SWAP2 SWAP1 PUSH2 0x526 JUMP JUMPDEST PUSH1 0x40 MLOAD DUP1 SWAP2 SUB SWAP1 RETURN JUMPDEST PUSH2 0xAF PUSH2 0x233 JUMP JUMPDEST STOP JUMPDEST PUSH2 0xB9 PUSH2 0x32A JUMP JUMPDEST PUSH1 0x40 MLOAD PUSH2 0xC6 SWAP2 SWAP1 PUSH2 0x559 JUMP JUMPDEST PUSH1 0x40 MLOAD DUP1 SWAP2 SUB SWAP1 RETURN JUMPDEST PUSH2 0xD7 PUSH2 0x33C JUMP JUMPDEST PUSH1 0x40 MLOAD PUSH2 0xE4 SWAP2 SWAP1 PUSH2 0x5B1 JUMP JUMPDEST PUSH1 0x40 MLOAD DUP1 SWAP2 SUB SWAP1 RETURN JUMPDEST PUSH2 0xF5 PUSH2 0x35F JUMP JUMPDEST PUSH1 0x40 MLOAD PUSH2 0x102 SWAP2 SWAP1 PUSH2 0x63A JUMP JUMPDEST PUSH1 0x40 MLOAD DUP1 SWAP2 SUB SWAP1 RETURN JUMPDEST PUSH2 0x113 PUSH2 0x3EB JUMP JUMPDEST PUSH1 0x40 MLOAD PUSH2 0x120 SWAP2 SWAP1 PUSH2 0x63A JUMP JUMPDEST PUSH1 0x40 MLOAD DUP1 SWAP2 SUB SWAP1 RETURN JUMPDEST PUSH0 DUP1 SLOAD SWAP1 PUSH2 0x100 EXP SWAP1 DIV PUSH20 0xFFFFFFFFFFFFFFFFFFFFFFFFFFFFFFFFFFFFFFFF AND PUSH20 0xFFFFFFFFFFFFFFFFFFFFFFFFFFFFFFFFFFFFFFFF AND CALLER PUSH20 0xFFFFFFFFFFFFFFFFFFFFFFFFFFFFFFFFFFFFFFFF AND EQ DUP1 PUSH2 0x184 JUMPI POP PUSH1 0x1 SLOAD TIMESTAMP LT ISZERO JUMPDEST PUSH2 0x1C3 JUMPI PUSH1 0x40 MLOAD PUSH32 0x8C379A000000000000000000000000000000000000000000000000000000000 DUP2 MSTORE PUSH1 0x4 ADD PUSH2 0x1BA SWAP1 PUSH2 0x6CA JUMP JUMPDEST PUSH1 0x40 MLOAD DUP1 SWAP2 SUB SWAP1 REVERT JUMPDEST PUSH1 0x1 PUSH1 0x3 PUSH0 PUSH2 0x100 EXP DUP2 SLOAD DUP2 PUSH1 0xFF MUL NOT AND SWAP1 DUP4 ISZERO ISZERO MUL OR SWAP1 SSTORE POP CALLER PUSH20 0xFFFFFFFFFFFFFFFFFFFFFFFFFFFFFFFFFFFFFFFF AND PUSH32 0x1EEF9913BCBF9CA33844966F8E25FE99646EC46ED4C7E21F3080CD8312784360 TIMESTAMP PUSH1 0x40 MLOAD PUSH2 0x223 SWAP2 SWAP1 PUSH2 0x526 JUMP JUMPDEST PUSH1 0x40 MLOAD DUP1 SWAP2 SUB SWAP1 LOG2 JUMP JUMPDEST PUSH1 0x1 SLOAD DUP2 JUMP JUMPDEST PUSH0 DUP1 SLOAD SWAP1 PUSH2 0x100 EXP SWAP1 DIV PUSH20 0xFFFFFFFFFFFFFFFFFFFFFFFFFFFFFFFFFFFFFFFF AND PUSH20 0xFFFFFFFFFFFFFFFFFFFFFFFFFFFFFFFFFFFFFFFF AND CALLER PUSH20 0xFFFFFFFFFFFFFFFFFFFFFFFFFFFFFFFFFFFFFFFF AND EQ PUSH2 0x2C0 JUMPI PUSH1 0x40 MLOAD PUSH32 0x8C379A000000000000000000000000000000000000000000000000000000000 DUP2 MSTORE PUSH1 0x4 ADD PUSH2 0x2B7 SWAP1 PUSH2 0x732 JUMP JUMPDEST PUSH1 0x40 MLOAD DUP1 SWAP2 SUB SWAP1 REVERT JUMPDEST PUSH1 0x1 PUSH1 0x3 PUSH0 PUSH2 0x100 EXP DUP2 SLOAD DUP2 PUSH1 0xFF MUL NOT AND SWAP1 DUP4 ISZERO ISZERO MUL OR SWAP1 SSTORE POP CALLER PUSH20 0xFFFFFFFFFFFFFFFFFFFFFFFFFFFFFFFFFFFFFFFF AND PUSH32 0x1EEF9913BCBF9CA33844966F8E25FE99646EC46ED4C7E21F3080CD8312784360 TIMESTAMP PUSH1 0x40 MLOAD PUSH2 0x320 SWAP2 SWAP1 PUSH2 0x526 JUMP JUMPDEST PUSH1 0x40 MLOAD DUP1 SWAP2 SUB SWAP1 LOG2 JUMP JUMPDEST PUSH1 0x3 PUSH0 SWAP1 SLOAD SWAP1 PUSH2 0x100 EXP SWAP1 DIV PUSH1 0xFF AND DUP2 JUMP JUMPDEST PUSH0 DUP1 SLOAD SWAP1 PUSH2 0x100 EXP SWAP1 DIV PUSH20 0xFFFFFFFFFFFFFFFFFFFFFFFFFFFFFFFFFFFFFFFF AND DUP2 JUMP JUMPDEST PUSH1 0x2 DUP1 SLOAD PUSH2 0x36C SWAP1 PUSH2 0x77D JUMP JUMPDEST DUP1 PUSH1 0x1F ADD PUSH1 0x20 DUP1 SWAP2 DIV MUL PUSH1 0x20 ADD PUSH1 0x40 MLOAD SWAP1 DUP2 ADD PUSH1 0x40 MSTORE DUP1 SWAP3 SWAP2 SWAP1 DUP2 DUP2 MSTORE PUSH1 0x20 ADD DUP3 DUP1 SLOAD PUSH2 0x398 SWAP1 PUSH2 0x77D JUMP JUMPDEST DUP1 ISZERO PUSH2 0x3E3 JUMPI DUP1 PUSH1 0x1F LT PUSH2 0x3BA JUMPI PUSH2 0x100 DUP1 DUP4 SLOAD DIV MUL DUP4 MSTORE SWAP2 PUSH1 0x20 ADD SWAP2 PUSH2 0x3E3 JUMP JUMPDEST DUP3 ADD SWAP2 SWAP1 PUSH0 MSTORE PUSH1 0x20 PUSH0 KECCAK256 SWAP1 JUMPDEST DUP2 SLOAD DUP2 MSTORE SWAP1 PUSH1 0x1 ADD SWAP1 PUSH1 0x20 ADD DUP1 DUP4 GT PUSH2 0x3C6 JUMPI DUP3 SWAP1 SUB PUSH1 0x1F AND DUP3 ADD SWAP2 JUMPDEST POP POP POP POP POP DUP2 JUMP JUMPDEST PUSH1 0x60 PUSH1 0x1 SLOAD TIMESTAMP LT ISZERO PUSH2 0x432 JUMPI PUSH1 0x40 MLOAD PUSH32 0x8C379A000000000000000000000000000000000000000000000000000000000 DUP2 MSTORE PUSH1 0x4 ADD PUSH2 0x429 SWAP1 PUSH2 0x81D JUMP JUMPDEST PUSH1 0x40 MLOAD DUP1 SWAP2 SUB SWAP1 REVERT JUMPDEST PUSH1 0x3 PUSH0 SWAP1 SLOAD SWAP1 PUSH2 0x100 EXP SWAP1 DIV PUSH1 0xFF AND PUSH2 0x480 JUMPI PUSH1 0x40 MLOAD PUSH32 0x8C379A000000000000000000000000000000000000000000000000000000000 DUP2 MSTORE PUSH1 0x4 ADD PUSH2 0x477 SWAP1 PUSH2 0x81D JUMP JUMPDEST PUSH1 0x40 MLOAD DUP1 SWAP2 SUB SWAP1 REVERT JUMPDEST PUSH1 0x2 DUP1 SLOAD PUSH2 0x48D SWAP1 PUSH2 0x77D JUMP JUMPDEST DUP1 PUSH1 0x1F ADD PUSH1 0x20 DUP1 SWAP2 DIV MUL PUSH1 0x20 ADD PUSH1 0x40 MLOAD SWAP1 DUP2 ADD PUSH1 0x40 MSTORE DUP1 SWAP3 SWAP2 SWAP1 DUP2 DUP2 MSTORE PUSH1 0x20 ADD DUP3 DUP1 SLOAD PUSH2 0x4B9 SWAP1 PUSH2 0x77D JUMP JUMPDEST DUP1 ISZERO PUSH2 0x504 JUMPI DUP1 PUSH1 0x1F LT PUSH2 0x4DB JUMPI PUSH2 0x100 DUP1 DUP4 SLOAD DIV MUL DUP4 MSTORE SWAP2 PUSH1 0x20 ADD SWAP2 PUSH2 0x504 JUMP JUMPDEST DUP3 ADD SWAP2 SWAP1 PUSH0 MSTORE PUSH1 0x20 PUSH0 KECCAK256 SWAP1 JUMPDEST DUP2 SLOAD DUP2 MSTORE SWAP1 PUSH1 0x1 ADD SWAP1 PUSH1 0x20 ADD DUP1 DUP4 GT PUSH2 0x4E7 JUMPI DUP3 SWAP1 SUB PUSH1 0x1F AND DUP3 ADD SWAP2 JUMPDEST POP POP POP POP POP SWAP1 POP SWAP1 JUMP JUMPDEST PUSH0 DUP2 SWAP1 POP SWAP2 SWAP1 POP JUMP JUMPDEST PUSH2 0x520 DUP2 PUSH2 0x50E JUMP JUMPDEST DUP3 MSTORE POP POP JUMP JUMPDEST PUSH0 PUSH1 0x20 DUP3 ADD SWAP1 POP PUSH2 0x539 PUSH0 DUP4 ADD DUP5 PUSH2 0x517 JUMP JUMPDEST SWAP3 SWAP2 POP POP JUMP JUMPDEST PUSH0 DUP2 ISZERO ISZERO SWAP1 POP SWAP2 SWAP1 POP JUMP JUMPDEST PUSH2 0x553 DUP2 PUSH2 0x53F JUMP JUMPDEST DUP3 MSTORE POP POP JUMP JUMPDEST PUSH0 PUSH1 0x20 DUP3 ADD SWAP1 POP PUSH2 0x56C PUSH0 DUP4 ADD DUP5 PUSH2 0x54A JUMP JUMPDEST SWAP3 SWAP2 POP POP JUMP JUMPDEST PUSH0 PUSH20 0xFFFFFFFFFFFFFFFFFFFFFFFFFFFFFFFFFFFFFFFF DUP3 AND SWAP1 POP SWAP2 SWAP1 POP JUMP JUMPDEST PUSH0 PUSH2 0x59B DUP3 PUSH2 0x572 JUMP JUMPDEST SWAP1 POP SWAP2 SWAP1 POP JUMP JUMPDEST PUSH2 0x5AB DUP2 PUSH2 0x591 JUMP JUMPDEST DUP3 MSTORE POP POP JUMP JUMPDEST PUSH0 PUSH1 0x20 DUP3 ADD SWAP1 POP PUSH2 0x5C4 PUSH0 DUP4 ADD DUP5 PUSH2 0x5A2 JUMP JUMPDEST SWAP3 SWAP2 POP POP JUMP JUMPDEST PUSH0 DUP2 MLOAD SWAP1 POP SWAP2 SWAP1 POP JUMP JUMPDEST PUSH0 DUP3 DUP3 MSTORE PUSH1 0x20 DUP3 ADD SWAP1 POP SWAP3 SWAP2 POP POP JUMP JUMPDEST DUP3 DUP2 DUP4 MCOPY PUSH0 DUP4 DUP4 ADD MSTORE POP POP POP JUMP JUMPDEST PUSH0 PUSH1 0x1F NOT PUSH1 0x1F DUP4 ADD AND SWAP1 POP SWAP2 SWAP1 POP JUMP JUMPDEST PUSH0 PUSH2 0x60C DUP3 PUSH2 0x5CA JUMP JUMPDEST PUSH2 0x616 DUP2 DUP6 PUSH2 0x5D4 JUMP JUMPDEST SWAP4 POP PUSH2 0x626 DUP2 DUP6 PUSH1 0x20 DUP7 ADD PUSH2 0x5E4 JUMP JUMPDEST PUSH2 0x62F DUP2 PUSH2 0x5F2 JUMP JUMPDEST DUP5 ADD SWAP2 POP POP SWAP3 SWAP2 POP POP JUMP JUMPDEST PUSH0 PUSH1 0x20 DUP3 ADD SWAP1 POP DUP2 DUP2 SUB PUSH0 DUP4 ADD MSTORE PUSH2 0x652 DUP2 DUP5 PUSH2 0x602 JUMP JUMPDEST SWAP1 POP SWAP3 SWAP2 POP POP JUMP JUMPDEST PUSH32 0x596F752063616E6E6F7420756E6C6F636B207468652063617073756C65207965 PUSH0 DUP3 ADD MSTORE PUSH32 0x742E000000000000000000000000000000000000000000000000000000000000 PUSH1 0x20 DUP3 ADD MSTORE POP JUMP JUMPDEST PUSH0 PUSH2 0x6B4 PUSH1 0x22 DUP4 PUSH2 0x5D4 JUMP JUMPDEST SWAP2 POP PUSH2 0x6BF DUP3 PUSH2 0x65A JUMP JUMPDEST PUSH1 0x40 DUP3 ADD SWAP1 POP SWAP2 SWAP1 POP JUMP JUMPDEST PUSH0 PUSH1 0x20 DUP3 ADD SWAP1 POP DUP2 DUP2 SUB PUSH0 DUP4 ADD MSTORE PUSH2 0x6E1 DUP2 PUSH2 0x6A8 JUMP JUMPDEST SWAP1 POP SWAP2 SWAP1 POP JUMP JUMPDEST PUSH32 0x596F7520617265206E6F7420746865206F776E65722100000000000000000000 PUSH0 DUP3 ADD MSTORE POP JUMP JUMPDEST PUSH0 PUSH2 0x71C PUSH1 0x16 DUP4 PUSH2 0x5D4 JUMP JUMPDEST SWAP2 POP PUSH2 0x727 DUP3 PUSH2 0x6E8 JUMP JUMPDEST PUSH1 0x20 DUP3 ADD SWAP1 POP SWAP2 SWAP1 POP JUMP JUMPDEST PUSH0 PUSH1 0x20 DUP3 ADD SWAP1 POP DUP2 DUP2 SUB PUSH0 DUP4 ADD MSTORE PUSH2 0x749 DUP2 PUSH2 0x710 JUMP JUMPDEST SWAP1 POP SWAP2 SWAP1 POP JUMP JUMPDEST PUSH32 0x4E487B7100000000000000000000000000000000000000000000000000000000 PUSH0 MSTORE PUSH1 0x22 PUSH1 0x4 MSTORE PUSH1 0x24 PUSH0 REVERT JUMPDEST PUSH0 PUSH1 0x2 DUP3 DIV SWAP1 POP PUSH1 0x1 DUP3 AND DUP1 PUSH2 0x794 JUMPI PUSH1 0x7F DUP3 AND SWAP2 POP JUMPDEST PUSH1 0x20 DUP3 LT DUP2 SUB PUSH2 0x7A7 JUMPI PUSH2 0x7A6 PUSH2 0x750 JUMP JUMPDEST JUMPDEST POP SWAP2 SWAP1 POP JUMP JUMPDEST PUSH32 0x5468652074696D652063617073756C65206973207374696C6C206C6F636B6564 PUSH0 DUP3 ADD MSTORE PUSH32 0x2E00000000000000000000000000000000000000000000000000000000000000 PUSH1 0x20 DUP3 ADD MSTORE POP JUMP JUMPDEST PUSH0 PUSH2 0x807 PUSH1 0x21 DUP4 PUSH2 0x5D4 JUMP JUMPDEST SWAP2 POP PUSH2 0x812 DUP3 PUSH2 0x7AD JUMP JUMPDEST PUSH1 0x40 DUP3 ADD SWAP1 POP SWAP2 SWAP1 POP JUMP JUMPDEST PUSH0 PUSH1 0x20 DUP3 ADD SWAP1 POP DUP2 DUP2 SUB PUSH0 DUP4 ADD MSTORE PUSH2 0x834 DUP2 PUSH2 0x7FB JUMP JUMPDEST SWAP1 POP SWAP2 SWAP1 POP JUMP INVALID LOG2 PUSH5 0x6970667358 0x22 SLT KECCAK256 SHR PUSH18 0x6542A37E3C522D256B6FC1C182F89FCE1326 PUSH20 0xD1DA6383532EDEBA56AD4364736F6C634300081A STOP CALLER "
				},
				"gasEstimates": {
					"creation": {
						"codeDepositCost": "432200",
						"executionCost": "infinite",
						"totalCost": "infinite"
					},
					"external": {
						"capsuleMessage()": "infinite",
						"getCapsuleMessage()": "infinite",
						"isUnlocked()": "2466",
						"owner()": "2527",
						"unlockBeforeMaturity()": "28190",
						"unlockCapsule()": "30276",
						"unlockTime()": "2448"
					}
				},
				"methodIdentifiers": {
					"capsuleMessage()": "ba228697",
					"getCapsuleMessage()": "ecf453cb",
					"isUnlocked()": "8380edb7",
					"owner()": "8da5cb5b",
					"unlockBeforeMaturity()": "773dba7e",
					"unlockCapsule()": "12d853e1",
					"unlockTime()": "251c1aa3"
				}
			},
			"storageLayout": {
				"storage": [
					{
						"astId": 3,
						"contract": "contracts/1_Storage.sol:TimeCapsule",
						"label": "owner",
						"offset": 0,
						"slot": "0",
						"type": "t_address"
					},
					{
						"astId": 5,
						"contract": "contracts/1_Storage.sol:TimeCapsule",
						"label": "unlockTime",
						"offset": 0,
						"slot": "1",
						"type": "t_uint256"
					},
					{
						"astId": 7,
						"contract": "contracts/1_Storage.sol:TimeCapsule",
						"label": "capsuleMessage",
						"offset": 0,
						"slot": "2",
						"type": "t_string_storage"
					},
					{
						"astId": 9,
						"contract": "contracts/1_Storage.sol:TimeCapsule",
						"label": "isUnlocked",
						"offset": 0,
						"slot": "3",
						"type": "t_bool"
					}
				],
				"types": {
					"t_address": {
						"encoding": "inplace",
						"label": "address",
						"numberOfBytes": "20"
					},
					"t_bool": {
						"encoding": "inplace",
						"label": "bool",
						"numberOfBytes": "1"
					},
					"t_string_storage": {
						"encoding": "bytes",
						"label": "string",
						"numberOfBytes": "32"
					},
					"t_uint256": {
						"encoding": "inplace",
						"label": "uint256",
						"numberOfBytes": "32"
					}
				}
			},
			"userdoc": {
				"kind": "user",
				"methods": {},
				"version": 1
			}
		}
	}
}